{
	"contracts/LaptopMarketplaceERC20Test2.sol": {
		"LaptopMarketplace": {
			"abi": [
				{
					"inputs": [],
					"stateMutability": "nonpayable",
					"type": "constructor"
				},
				{
					"inputs": [
						{
							"internalType": "address",
							"name": "owner",
							"type": "address"
						}
					],
					"name": "OwnableInvalidOwner",
					"type": "error"
				},
				{
					"inputs": [
						{
							"internalType": "address",
							"name": "account",
							"type": "address"
						}
					],
					"name": "OwnableUnauthorizedAccount",
					"type": "error"
				},
				{
					"anonymous": false,
					"inputs": [
						{
							"indexed": false,
							"internalType": "address",
							"name": "seller",
							"type": "address"
						},
						{
							"indexed": false,
							"internalType": "uint256",
							"name": "amount",
							"type": "uint256"
						}
					],
					"name": "BalanceWithdrawn",
					"type": "event"
				},
				{
					"anonymous": false,
					"inputs": [
						{
							"indexed": false,
							"internalType": "uint256",
							"name": "id",
							"type": "uint256"
						},
						{
							"indexed": false,
							"internalType": "string",
							"name": "itemName",
							"type": "string"
						},
						{
							"indexed": false,
							"internalType": "uint256",
							"name": "itemPrice",
							"type": "uint256"
						},
						{
							"indexed": false,
							"internalType": "address",
							"name": "itemOwner",
							"type": "address"
						}
					],
					"name": "ItemAdded",
					"type": "event"
				},
				{
					"anonymous": false,
					"inputs": [
						{
							"indexed": false,
							"internalType": "uint256",
							"name": "id",
							"type": "uint256"
						},
						{
							"indexed": false,
							"internalType": "string",
							"name": "itemName",
							"type": "string"
						},
						{
							"indexed": false,
							"internalType": "uint256",
							"name": "itemPrice",
							"type": "uint256"
						},
						{
							"indexed": false,
							"internalType": "address",
							"name": "buyer",
							"type": "address"
						}
					],
					"name": "ItemPurchased",
					"type": "event"
				},
				{
					"anonymous": false,
					"inputs": [
						{
							"indexed": true,
							"internalType": "address",
							"name": "previousOwner",
							"type": "address"
						},
						{
							"indexed": true,
							"internalType": "address",
							"name": "newOwner",
							"type": "address"
						}
					],
					"name": "OwnershipTransferred",
					"type": "event"
				},
				{
					"inputs": [
						{
							"internalType": "string",
							"name": "_itemName",
							"type": "string"
						},
						{
							"internalType": "uint256",
							"name": "_itemPrice",
							"type": "uint256"
						}
					],
					"name": "addItem",
					"outputs": [],
					"stateMutability": "nonpayable",
					"type": "function"
				},
				{
					"inputs": [
						{
							"internalType": "address",
							"name": "",
							"type": "address"
						}
					],
					"name": "balances",
					"outputs": [
						{
							"internalType": "uint256",
							"name": "",
							"type": "uint256"
						}
					],
					"stateMutability": "view",
					"type": "function"
				},
				{
					"inputs": [
						{
							"internalType": "uint256",
							"name": "_id",
							"type": "uint256"
						}
					],
					"name": "buyItem",
					"outputs": [],
					"stateMutability": "nonpayable",
					"type": "function"
				},
				{
					"inputs": [],
					"name": "checkBalance",
					"outputs": [
						{
							"internalType": "uint256",
							"name": "",
							"type": "uint256"
						}
					],
					"stateMutability": "view",
					"type": "function"
				},
				{
					"inputs": [],
					"name": "itemCount",
					"outputs": [
						{
							"internalType": "uint256",
							"name": "",
							"type": "uint256"
						}
					],
					"stateMutability": "view",
					"type": "function"
				},
				{
					"inputs": [
						{
							"internalType": "uint256",
							"name": "",
							"type": "uint256"
						}
					],
					"name": "items",
					"outputs": [
						{
							"internalType": "uint256",
							"name": "id",
							"type": "uint256"
						},
						{
							"internalType": "string",
							"name": "itemName",
							"type": "string"
						},
						{
							"internalType": "uint256",
							"name": "itemPrice",
							"type": "uint256"
						},
						{
							"internalType": "address payable",
							"name": "itemOwner",
							"type": "address"
						},
						{
							"internalType": "bool",
							"name": "isSold",
							"type": "bool"
						}
					],
					"stateMutability": "view",
					"type": "function"
				},
				{
					"inputs": [],
					"name": "laptopToken",
					"outputs": [
						{
							"internalType": "contract IERC20",
							"name": "",
							"type": "address"
						}
					],
					"stateMutability": "view",
					"type": "function"
				},
				{
					"inputs": [],
					"name": "owner",
					"outputs": [
						{
							"internalType": "address",
							"name": "",
							"type": "address"
						}
					],
					"stateMutability": "view",
					"type": "function"
				},
				{
					"inputs": [],
					"name": "renounceOwnership",
					"outputs": [],
					"stateMutability": "nonpayable",
					"type": "function"
				},
				{
					"inputs": [
						{
							"internalType": "address",
							"name": "newOwner",
							"type": "address"
						}
					],
					"name": "transferOwnership",
					"outputs": [],
					"stateMutability": "nonpayable",
					"type": "function"
				},
				{
					"inputs": [],
					"name": "withdrawBalance",
					"outputs": [],
					"stateMutability": "nonpayable",
					"type": "function"
				}
			],
			"devdoc": {
				"errors": {
					"OwnableInvalidOwner(address)": [
						{
							"details": "The owner is not a valid owner account. (eg. `address(0)`)"
						}
					],
					"OwnableUnauthorizedAccount(address)": [
						{
							"details": "The caller account is not authorized to perform an operation."
						}
					]
				},
				"kind": "dev",
				"methods": {
					"owner()": {
						"details": "Returns the address of the current owner."
					},
					"renounceOwnership()": {
						"details": "Leaves the contract without owner. It will not be possible to call `onlyOwner` functions. Can only be called by the current owner. NOTE: Renouncing ownership will leave the contract without an owner, thereby disabling any functionality that is only available to the owner."
					},
					"transferOwnership(address)": {
						"details": "Transfers ownership of the contract to a new account (`newOwner`). Can only be called by the current owner."
					}
				},
				"version": 1
			},
			"evm": {
				"assembly": "    /* \"contracts/LaptopMarketplaceERC20Test2.sol\":236:2709  contract LaptopMarketplace is Ownable {... */\n  mstore(0x40, 0x80)\n    /* \"contracts/LaptopMarketplaceERC20Test2.sol\":460:461  0 */\n  0x00\n    /* \"contracts/LaptopMarketplaceERC20Test2.sol\":436:461  uint public itemCount = 0 */\n  0x01\n  sstore\n    /* \"contracts/LaptopMarketplaceERC20Test2.sol\":818:935  constructor() Ownable(msg.sender) {... */\n  callvalue\n  dup1\n  iszero\n  tag_1\n  jumpi\n  0x00\n  dup1\n  revert\ntag_1:\n  pop\n    /* \"contracts/LaptopMarketplaceERC20Test2.sol\":840:850  msg.sender */\n  caller\n    /* \"@openzeppelin/contracts/access/Ownable.sol\":1297:1298  0 */\n  0x00\n    /* \"@openzeppelin/contracts/access/Ownable.sol\":1273:1299  initialOwner == address(0) */\n  0xffffffffffffffffffffffffffffffffffffffff\n  and\n    /* \"@openzeppelin/contracts/access/Ownable.sol\":1273:1285  initialOwner */\n  dup2\n    /* \"@openzeppelin/contracts/access/Ownable.sol\":1273:1299  initialOwner == address(0) */\n  0xffffffffffffffffffffffffffffffffffffffff\n  and\n  sub\n    /* \"@openzeppelin/contracts/access/Ownable.sol\":1269:1364  if (initialOwner == address(0)) {... */\n  tag_5\n  jumpi\n    /* \"@openzeppelin/contracts/access/Ownable.sol\":1350:1351  0 */\n  0x00\n    /* \"@openzeppelin/contracts/access/Ownable.sol\":1322:1353  OwnableInvalidOwner(address(0)) */\n  mload(0x40)\n  0x1e4fbdf700000000000000000000000000000000000000000000000000000000\n  dup2\n  mstore\n  0x04\n  add\n  tag_6\n  swap2\n  swap1\n  tag_7\n  jump\t// in\ntag_6:\n  mload(0x40)\n  dup1\n  swap2\n  sub\n  swap1\n  revert\n    /* \"@openzeppelin/contracts/access/Ownable.sol\":1269:1364  if (initialOwner == address(0)) {... */\ntag_5:\n    /* \"@openzeppelin/contracts/access/Ownable.sol\":1373:1405  _transferOwnership(initialOwner) */\n  tag_8\n    /* \"@openzeppelin/contracts/access/Ownable.sol\":1392:1404  initialOwner */\n  dup2\n    /* \"@openzeppelin/contracts/access/Ownable.sol\":1373:1391  _transferOwnership */\n  shl(0x20, tag_9)\n    /* \"@openzeppelin/contracts/access/Ownable.sol\":1373:1405  _transferOwnership(initialOwner) */\n  0x20\n  shr\n  jump\t// in\ntag_8:\n    /* \"@openzeppelin/contracts/access/Ownable.sol\":1225:1412  constructor(address initialOwner) {... */\n  pop\n    /* \"contracts/LaptopMarketplaceERC20Test2.sol\":884:926  0x6345ADA4e7d51e363D87090be6920069149de021 */\n  0x6345ada4e7d51e363d87090be6920069149de021\n    /* \"contracts/LaptopMarketplaceERC20Test2.sol\":863:874  laptopToken */\n  0x04\n  0x00\n    /* \"contracts/LaptopMarketplaceERC20Test2.sol\":863:927  laptopToken = IERC20(0x6345ADA4e7d51e363D87090be6920069149de021) */\n  0x0100\n  exp\n  dup2\n  sload\n  dup2\n  0xffffffffffffffffffffffffffffffffffffffff\n  mul\n  not\n  and\n  swap1\n  dup4\n  0xffffffffffffffffffffffffffffffffffffffff\n  and\n  mul\n  or\n  swap1\n  sstore\n  pop\n    /* \"contracts/LaptopMarketplaceERC20Test2.sol\":236:2709  contract LaptopMarketplace is Ownable {... */\n  jump(tag_11)\n    /* \"@openzeppelin/contracts/access/Ownable.sol\":2912:3099  function _transferOwnership(address newOwner) internal virtual {... */\ntag_9:\n    /* \"@openzeppelin/contracts/access/Ownable.sol\":2985:3001  address oldOwner */\n  0x00\n    /* \"@openzeppelin/contracts/access/Ownable.sol\":3004:3010  _owner */\n  dup1\n  0x00\n  swap1\n  sload\n  swap1\n  0x0100\n  exp\n  swap1\n  div\n  0xffffffffffffffffffffffffffffffffffffffff\n  and\n    /* \"@openzeppelin/contracts/access/Ownable.sol\":2985:3010  address oldOwner = _owner */\n  swap1\n  pop\n    /* \"@openzeppelin/contracts/access/Ownable.sol\":3029:3037  newOwner */\n  dup2\n    /* \"@openzeppelin/contracts/access/Ownable.sol\":3020:3026  _owner */\n  0x00\n  dup1\n    /* \"@openzeppelin/contracts/access/Ownable.sol\":3020:3037  _owner = newOwner */\n  0x0100\n  exp\n  dup2\n  sload\n  dup2\n  0xffffffffffffffffffffffffffffffffffffffff\n  mul\n  not\n  and\n  swap1\n  dup4\n  0xffffffffffffffffffffffffffffffffffffffff\n  and\n  mul\n  or\n  swap1\n  sstore\n  pop\n    /* \"@openzeppelin/contracts/access/Ownable.sol\":3083:3091  newOwner */\n  dup2\n    /* \"@openzeppelin/contracts/access/Ownable.sol\":3052:3092  OwnershipTransferred(oldOwner, newOwner) */\n  0xffffffffffffffffffffffffffffffffffffffff\n  and\n    /* \"@openzeppelin/contracts/access/Ownable.sol\":3073:3081  oldOwner */\n  dup2\n    /* \"@openzeppelin/contracts/access/Ownable.sol\":3052:3092  OwnershipTransferred(oldOwner, newOwner) */\n  0xffffffffffffffffffffffffffffffffffffffff\n  and\n  0x8be0079c531659141344cd1fd0a4f28419497f9722a3daafe3b4186f6b6457e0\n  mload(0x40)\n  mload(0x40)\n  dup1\n  swap2\n  sub\n  swap1\n  log3\n    /* \"@openzeppelin/contracts/access/Ownable.sol\":2975:3099  {... */\n  pop\n    /* \"@openzeppelin/contracts/access/Ownable.sol\":2912:3099  function _transferOwnership(address newOwner) internal virtual {... */\n  pop\n  jump\t// out\n    /* \"#utility.yul\":7:133   */\ntag_13:\n    /* \"#utility.yul\":44:51   */\n  0x00\n    /* \"#utility.yul\":84:126   */\n  0xffffffffffffffffffffffffffffffffffffffff\n    /* \"#utility.yul\":77:82   */\n  dup3\n    /* \"#utility.yul\":73:127   */\n  and\n    /* \"#utility.yul\":62:127   */\n  swap1\n  pop\n    /* \"#utility.yul\":7:133   */\n  swap2\n  swap1\n  pop\n  jump\t// out\n    /* \"#utility.yul\":139:235   */\ntag_14:\n    /* \"#utility.yul\":176:183   */\n  0x00\n    /* \"#utility.yul\":205:229   */\n  tag_19\n    /* \"#utility.yul\":223:228   */\n  dup3\n    /* \"#utility.yul\":205:229   */\n  tag_13\n  jump\t// in\ntag_19:\n    /* \"#utility.yul\":194:229   */\n  swap1\n  pop\n    /* \"#utility.yul\":139:235   */\n  swap2\n  swap1\n  pop\n  jump\t// out\n    /* \"#utility.yul\":241:359   */\ntag_15:\n    /* \"#utility.yul\":328:352   */\n  tag_21\n    /* \"#utility.yul\":346:351   */\n  dup2\n    /* \"#utility.yul\":328:352   */\n  tag_14\n  jump\t// in\ntag_21:\n    /* \"#utility.yul\":323:326   */\n  dup3\n    /* \"#utility.yul\":316:353   */\n  mstore\n    /* \"#utility.yul\":241:359   */\n  pop\n  pop\n  jump\t// out\n    /* \"#utility.yul\":365:587   */\ntag_7:\n    /* \"#utility.yul\":458:462   */\n  0x00\n    /* \"#utility.yul\":496:498   */\n  0x20\n    /* \"#utility.yul\":485:494   */\n  dup3\n    /* \"#utility.yul\":481:499   */\n  add\n    /* \"#utility.yul\":473:499   */\n  swap1\n  pop\n    /* \"#utility.yul\":509:580   */\n  tag_23\n    /* \"#utility.yul\":577:578   */\n  0x00\n    /* \"#utility.yul\":566:575   */\n  dup4\n    /* \"#utility.yul\":562:579   */\n  add\n    /* \"#utility.yul\":553:559   */\n  dup5\n    /* \"#utility.yul\":509:580   */\n  tag_15\n  jump\t// in\ntag_23:\n    /* \"#utility.yul\":365:587   */\n  swap3\n  swap2\n  pop\n  pop\n  jump\t// out\n    /* \"contracts/LaptopMarketplaceERC20Test2.sol\":236:2709  contract LaptopMarketplace is Ownable {... */\ntag_11:\n  dataSize(sub_0)\n  dup1\n  dataOffset(sub_0)\n  0x00\n  codecopy\n  0x00\n  return\nstop\n\nsub_0: assembly {\n        /* \"contracts/LaptopMarketplaceERC20Test2.sol\":236:2709  contract LaptopMarketplace is Ownable {... */\n      mstore(0x40, 0x80)\n      callvalue\n      dup1\n      iszero\n      tag_1\n      jumpi\n      0x00\n      dup1\n      revert\n    tag_1:\n      pop\n      jumpi(tag_2, lt(calldatasize, 0x04))\n      shr(0xe0, calldataload(0x00))\n      dup1\n      0x8da5cb5b\n      gt\n      tag_14\n      jumpi\n      dup1\n      0x8da5cb5b\n      eq\n      tag_8\n      jumpi\n      dup1\n      0xbfb231d2\n      eq\n      tag_9\n      jumpi\n      dup1\n      0xc0fa4155\n      eq\n      tag_10\n      jumpi\n      dup1\n      0xc71daccb\n      eq\n      tag_11\n      jumpi\n      dup1\n      0xe7fb74c7\n      eq\n      tag_12\n      jumpi\n      dup1\n      0xf2fde38b\n      eq\n      tag_13\n      jumpi\n      jump(tag_2)\n    tag_14:\n      dup1\n      0x27e235e3\n      eq\n      tag_3\n      jumpi\n      dup1\n      0x5fd8c710\n      eq\n      tag_4\n      jumpi\n      dup1\n      0x62d6bbdf\n      eq\n      tag_5\n      jumpi\n      dup1\n      0x6bfb0d01\n      eq\n      tag_6\n      jumpi\n      dup1\n      0x715018a6\n      eq\n      tag_7\n      jumpi\n    tag_2:\n      0x00\n      dup1\n      revert\n        /* \"contracts/LaptopMarketplaceERC20Test2.sol\":509:549  mapping(address => uint) public balances */\n    tag_3:\n      tag_15\n      0x04\n      dup1\n      calldatasize\n      sub\n      dup2\n      add\n      swap1\n      tag_16\n      swap2\n      swap1\n      tag_17\n      jump\t// in\n    tag_16:\n      tag_18\n      jump\t// in\n    tag_15:\n      mload(0x40)\n      tag_19\n      swap2\n      swap1\n      tag_20\n      jump\t// in\n    tag_19:\n      mload(0x40)\n      dup1\n      swap2\n      sub\n      swap1\n      return\n        /* \"contracts/LaptopMarketplaceERC20Test2.sol\":2151:2601  function withdrawBalance() public {... */\n    tag_4:\n      tag_21\n      tag_22\n      jump\t// in\n    tag_21:\n      stop\n        /* \"contracts/LaptopMarketplaceERC20Test2.sol\":943:1281  function addItem(string memory _itemName, uint _itemPrice) public {... */\n    tag_5:\n      tag_23\n      0x04\n      dup1\n      calldatasize\n      sub\n      dup2\n      add\n      swap1\n      tag_24\n      swap2\n      swap1\n      tag_25\n      jump\t// in\n    tag_24:\n      tag_26\n      jump\t// in\n    tag_23:\n      stop\n        /* \"contracts/LaptopMarketplaceERC20Test2.sol\":436:461  uint public itemCount = 0 */\n    tag_6:\n      tag_27\n      tag_28\n      jump\t// in\n    tag_27:\n      mload(0x40)\n      tag_29\n      swap2\n      swap1\n      tag_20\n      jump\t// in\n    tag_29:\n      mload(0x40)\n      dup1\n      swap2\n      sub\n      swap1\n      return\n        /* \"@openzeppelin/contracts/access/Ownable.sol\":2293:2394  function renounceOwnership() public virtual onlyOwner {... */\n    tag_7:\n      tag_30\n      tag_31\n      jump\t// in\n    tag_30:\n      stop\n        /* \"@openzeppelin/contracts/access/Ownable.sol\":1638:1723  function owner() public view virtual returns (address) {... */\n    tag_8:\n      tag_32\n      tag_33\n      jump\t// in\n    tag_32:\n      mload(0x40)\n      tag_34\n      swap2\n      swap1\n      tag_35\n      jump\t// in\n    tag_34:\n      mload(0x40)\n      dup1\n      swap2\n      sub\n      swap1\n      return\n        /* \"contracts/LaptopMarketplaceERC20Test2.sol\":468:502  mapping(uint => Item) public items */\n    tag_9:\n      tag_36\n      0x04\n      dup1\n      calldatasize\n      sub\n      dup2\n      add\n      swap1\n      tag_37\n      swap2\n      swap1\n      tag_38\n      jump\t// in\n    tag_37:\n      tag_39\n      jump\t// in\n    tag_36:\n      mload(0x40)\n      tag_40\n      swap6\n      swap5\n      swap4\n      swap3\n      swap2\n      swap1\n      tag_41\n      jump\t// in\n    tag_40:\n      mload(0x40)\n      dup1\n      swap2\n      sub\n      swap1\n      return\n        /* \"contracts/LaptopMarketplaceERC20Test2.sol\":558:583  IERC20 public laptopToken */\n    tag_10:\n      tag_42\n      tag_43\n      jump\t// in\n    tag_42:\n      mload(0x40)\n      tag_44\n      swap2\n      swap1\n      tag_45\n      jump\t// in\n    tag_44:\n      mload(0x40)\n      dup1\n      swap2\n      sub\n      swap1\n      return\n        /* \"contracts/LaptopMarketplaceERC20Test2.sol\":2609:2706  function checkBalance() public view returns (uint) {... */\n    tag_11:\n      tag_46\n      tag_47\n      jump\t// in\n    tag_46:\n      mload(0x40)\n      tag_48\n      swap2\n      swap1\n      tag_20\n      jump\t// in\n    tag_48:\n      mload(0x40)\n      dup1\n      swap2\n      sub\n      swap1\n      return\n        /* \"contracts/LaptopMarketplaceERC20Test2.sol\":1289:2143  function buyItem(uint _id) public {... */\n    tag_12:\n      tag_49\n      0x04\n      dup1\n      calldatasize\n      sub\n      dup2\n      add\n      swap1\n      tag_50\n      swap2\n      swap1\n      tag_38\n      jump\t// in\n    tag_50:\n      tag_51\n      jump\t// in\n    tag_49:\n      stop\n        /* \"@openzeppelin/contracts/access/Ownable.sol\":2543:2758  function transferOwnership(address newOwner) public virtual onlyOwner {... */\n    tag_13:\n      tag_52\n      0x04\n      dup1\n      calldatasize\n      sub\n      dup2\n      add\n      swap1\n      tag_53\n      swap2\n      swap1\n      tag_17\n      jump\t// in\n    tag_53:\n      tag_54\n      jump\t// in\n    tag_52:\n      stop\n        /* \"contracts/LaptopMarketplaceERC20Test2.sol\":509:549  mapping(address => uint) public balances */\n    tag_18:\n      mstore(0x20, 0x03)\n      dup1\n      0x00\n      mstore\n      keccak256(0x00, 0x40)\n      0x00\n      swap2\n      pop\n      swap1\n      pop\n      sload\n      dup2\n      jump\t// out\n        /* \"contracts/LaptopMarketplaceERC20Test2.sol\":2151:2601  function withdrawBalance() public {... */\n    tag_22:\n        /* \"contracts/LaptopMarketplaceERC20Test2.sol\":2196:2208  uint balance */\n      0x00\n        /* \"contracts/LaptopMarketplaceERC20Test2.sol\":2211:2219  balances */\n      0x03\n        /* \"contracts/LaptopMarketplaceERC20Test2.sol\":2211:2231  balances[msg.sender] */\n      0x00\n        /* \"contracts/LaptopMarketplaceERC20Test2.sol\":2220:2230  msg.sender */\n      caller\n        /* \"contracts/LaptopMarketplaceERC20Test2.sol\":2211:2231  balances[msg.sender] */\n      0xffffffffffffffffffffffffffffffffffffffff\n      and\n      0xffffffffffffffffffffffffffffffffffffffff\n      and\n      dup2\n      mstore\n      0x20\n      add\n      swap1\n      dup2\n      mstore\n      0x20\n      add\n      0x00\n      keccak256\n      sload\n        /* \"contracts/LaptopMarketplaceERC20Test2.sol\":2196:2231  uint balance = balances[msg.sender] */\n      swap1\n      pop\n        /* \"contracts/LaptopMarketplaceERC20Test2.sol\":2260:2261  0 */\n      0x00\n        /* \"contracts/LaptopMarketplaceERC20Test2.sol\":2250:2257  balance */\n      dup2\n        /* \"contracts/LaptopMarketplaceERC20Test2.sol\":2250:2261  balance > 0 */\n      gt\n        /* \"contracts/LaptopMarketplaceERC20Test2.sol\":2242:2288  require(balance > 0, \"No balance to withdraw\") */\n      tag_56\n      jumpi\n      mload(0x40)\n      0x08c379a000000000000000000000000000000000000000000000000000000000\n      dup2\n      mstore\n      0x04\n      add\n      tag_57\n      swap1\n      tag_58\n      jump\t// in\n    tag_57:\n      mload(0x40)\n      dup1\n      swap2\n      sub\n      swap1\n      revert\n    tag_56:\n        /* \"contracts/LaptopMarketplaceERC20Test2.sol\":2401:2402  0 */\n      0x00\n        /* \"contracts/LaptopMarketplaceERC20Test2.sol\":2378:2386  balances */\n      0x03\n        /* \"contracts/LaptopMarketplaceERC20Test2.sol\":2378:2398  balances[msg.sender] */\n      0x00\n        /* \"contracts/LaptopMarketplaceERC20Test2.sol\":2387:2397  msg.sender */\n      caller\n        /* \"contracts/LaptopMarketplaceERC20Test2.sol\":2378:2398  balances[msg.sender] */\n      0xffffffffffffffffffffffffffffffffffffffff\n      and\n      0xffffffffffffffffffffffffffffffffffffffff\n      and\n      dup2\n      mstore\n      0x20\n      add\n      swap1\n      dup2\n      mstore\n      0x20\n      add\n      0x00\n      keccak256\n        /* \"contracts/LaptopMarketplaceERC20Test2.sol\":2378:2402  balances[msg.sender] = 0 */\n      dup2\n      swap1\n      sstore\n      pop\n        /* \"contracts/LaptopMarketplaceERC20Test2.sol\":2468:2479  laptopToken */\n      0x04\n      0x00\n      swap1\n      sload\n      swap1\n      0x0100\n      exp\n      swap1\n      div\n      0xffffffffffffffffffffffffffffffffffffffff\n      and\n        /* \"contracts/LaptopMarketplaceERC20Test2.sol\":2468:2488  laptopToken.transfer */\n      0xffffffffffffffffffffffffffffffffffffffff\n      and\n      0xa9059cbb\n        /* \"contracts/LaptopMarketplaceERC20Test2.sol\":2489:2499  msg.sender */\n      caller\n        /* \"contracts/LaptopMarketplaceERC20Test2.sol\":2501:2508  balance */\n      dup4\n        /* \"contracts/LaptopMarketplaceERC20Test2.sol\":2468:2509  laptopToken.transfer(msg.sender, balance) */\n      mload(0x40)\n      dup4\n      0xffffffff\n      and\n      0xe0\n      shl\n      dup2\n      mstore\n      0x04\n      add\n      tag_59\n      swap3\n      swap2\n      swap1\n      tag_60\n      jump\t// in\n    tag_59:\n      0x20\n      mload(0x40)\n      dup1\n      dup4\n      sub\n      dup2\n      0x00\n      dup8\n      gas\n      call\n      iszero\n      dup1\n      iszero\n      tag_62\n      jumpi\n      returndatasize\n      0x00\n      dup1\n      returndatacopy\n      revert(0x00, returndatasize)\n    tag_62:\n      pop\n      pop\n      pop\n      pop\n      mload(0x40)\n      returndatasize\n      not(0x1f)\n      0x1f\n      dup3\n      add\n      and\n      dup3\n      add\n      dup1\n      0x40\n      mstore\n      pop\n      dup2\n      add\n      swap1\n      tag_63\n      swap2\n      swap1\n      tag_64\n      jump\t// in\n    tag_63:\n        /* \"contracts/LaptopMarketplaceERC20Test2.sol\":2460:2538  require(laptopToken.transfer(msg.sender, balance), \"Withdraw transfer failed\") */\n      tag_65\n      jumpi\n      mload(0x40)\n      0x08c379a000000000000000000000000000000000000000000000000000000000\n      dup2\n      mstore\n      0x04\n      add\n      tag_66\n      swap1\n      tag_67\n      jump\t// in\n    tag_66:\n      mload(0x40)\n      dup1\n      swap2\n      sub\n      swap1\n      revert\n    tag_65:\n        /* \"contracts/LaptopMarketplaceERC20Test2.sol\":2556:2593  BalanceWithdrawn(msg.sender, balance) */\n      0xddc398b321237a8d40ac914388309c2f52a08c134e4dc4ce61e32f57cb7d80f1\n        /* \"contracts/LaptopMarketplaceERC20Test2.sol\":2573:2583  msg.sender */\n      caller\n        /* \"contracts/LaptopMarketplaceERC20Test2.sol\":2585:2592  balance */\n      dup3\n        /* \"contracts/LaptopMarketplaceERC20Test2.sol\":2556:2593  BalanceWithdrawn(msg.sender, balance) */\n      mload(0x40)\n      tag_68\n      swap3\n      swap2\n      swap1\n      tag_60\n      jump\t// in\n    tag_68:\n      mload(0x40)\n      dup1\n      swap2\n      sub\n      swap1\n      log1\n        /* \"contracts/LaptopMarketplaceERC20Test2.sol\":2185:2601  {... */\n      pop\n        /* \"contracts/LaptopMarketplaceERC20Test2.sol\":2151:2601  function withdrawBalance() public {... */\n      jump\t// out\n        /* \"contracts/LaptopMarketplaceERC20Test2.sol\":943:1281  function addItem(string memory _itemName, uint _itemPrice) public {... */\n    tag_26:\n        /* \"contracts/LaptopMarketplaceERC20Test2.sol\":1041:1042  0 */\n      0x00\n        /* \"contracts/LaptopMarketplaceERC20Test2.sol\":1028:1038  _itemPrice */\n      dup2\n        /* \"contracts/LaptopMarketplaceERC20Test2.sol\":1028:1042  _itemPrice > 0 */\n      gt\n        /* \"contracts/LaptopMarketplaceERC20Test2.sol\":1020:1080  require(_itemPrice > 0, \"Item price must be greater than 0\") */\n      tag_70\n      jumpi\n      mload(0x40)\n      0x08c379a000000000000000000000000000000000000000000000000000000000\n      dup2\n      mstore\n      0x04\n      add\n      tag_71\n      swap1\n      tag_72\n      jump\t// in\n    tag_71:\n      mload(0x40)\n      dup1\n      swap2\n      sub\n      swap1\n      revert\n    tag_70:\n        /* \"contracts/LaptopMarketplaceERC20Test2.sol\":1093:1102  itemCount */\n      0x01\n      0x00\n        /* \"contracts/LaptopMarketplaceERC20Test2.sol\":1093:1104  itemCount++ */\n      dup2\n      sload\n      dup1\n      swap3\n      swap2\n      swap1\n      tag_73\n      swap1\n      tag_74\n      jump\t// in\n    tag_73:\n      swap2\n      swap1\n      pop\n      sstore\n      pop\n        /* \"contracts/LaptopMarketplaceERC20Test2.sol\":1134:1200  Item(itemCount, _itemName, _itemPrice, payable(msg.sender), false) */\n      mload(0x40)\n      dup1\n      0xa0\n      add\n      0x40\n      mstore\n      dup1\n        /* \"contracts/LaptopMarketplaceERC20Test2.sol\":1139:1148  itemCount */\n      sload(0x01)\n        /* \"contracts/LaptopMarketplaceERC20Test2.sol\":1134:1200  Item(itemCount, _itemName, _itemPrice, payable(msg.sender), false) */\n      dup2\n      mstore\n      0x20\n      add\n        /* \"contracts/LaptopMarketplaceERC20Test2.sol\":1150:1159  _itemName */\n      dup4\n        /* \"contracts/LaptopMarketplaceERC20Test2.sol\":1134:1200  Item(itemCount, _itemName, _itemPrice, payable(msg.sender), false) */\n      dup2\n      mstore\n      0x20\n      add\n        /* \"contracts/LaptopMarketplaceERC20Test2.sol\":1161:1171  _itemPrice */\n      dup3\n        /* \"contracts/LaptopMarketplaceERC20Test2.sol\":1134:1200  Item(itemCount, _itemName, _itemPrice, payable(msg.sender), false) */\n      dup2\n      mstore\n      0x20\n      add\n        /* \"contracts/LaptopMarketplaceERC20Test2.sol\":1181:1191  msg.sender */\n      caller\n        /* \"contracts/LaptopMarketplaceERC20Test2.sol\":1134:1200  Item(itemCount, _itemName, _itemPrice, payable(msg.sender), false) */\n      0xffffffffffffffffffffffffffffffffffffffff\n      and\n      dup2\n      mstore\n      0x20\n      add\n        /* \"contracts/LaptopMarketplaceERC20Test2.sol\":1194:1199  false */\n      0x00\n        /* \"contracts/LaptopMarketplaceERC20Test2.sol\":1134:1200  Item(itemCount, _itemName, _itemPrice, payable(msg.sender), false) */\n      iszero\n      iszero\n      dup2\n      mstore\n      pop\n        /* \"contracts/LaptopMarketplaceERC20Test2.sol\":1115:1120  items */\n      0x02\n        /* \"contracts/LaptopMarketplaceERC20Test2.sol\":1115:1131  items[itemCount] */\n      0x00\n        /* \"contracts/LaptopMarketplaceERC20Test2.sol\":1121:1130  itemCount */\n      sload(0x01)\n        /* \"contracts/LaptopMarketplaceERC20Test2.sol\":1115:1131  items[itemCount] */\n      dup2\n      mstore\n      0x20\n      add\n      swap1\n      dup2\n      mstore\n      0x20\n      add\n      0x00\n      keccak256\n        /* \"contracts/LaptopMarketplaceERC20Test2.sol\":1115:1200  items[itemCount] = Item(itemCount, _itemName, _itemPrice, payable(msg.sender), false) */\n      0x00\n      dup3\n      add\n      mload\n      dup2\n      0x00\n      add\n      sstore\n      0x20\n      dup3\n      add\n      mload\n      dup2\n      0x01\n      add\n      swap1\n      dup2\n      tag_75\n      swap2\n      swap1\n      tag_76\n      jump\t// in\n    tag_75:\n      pop\n      0x40\n      dup3\n      add\n      mload\n      dup2\n      0x02\n      add\n      sstore\n      0x60\n      dup3\n      add\n      mload\n      dup2\n      0x03\n      add\n      exp(0x0100, 0x00)\n      dup2\n      sload\n      dup2\n      0xffffffffffffffffffffffffffffffffffffffff\n      mul\n      not\n      and\n      swap1\n      dup4\n      0xffffffffffffffffffffffffffffffffffffffff\n      and\n      mul\n      or\n      swap1\n      sstore\n      pop\n      0x80\n      dup3\n      add\n      mload\n      dup2\n      0x03\n      add\n      exp(0x0100, 0x14)\n      dup2\n      sload\n      dup2\n      0xff\n      mul\n      not\n      and\n      swap1\n      dup4\n      iszero\n      iszero\n      mul\n      or\n      swap1\n      sstore\n      pop\n      swap1\n      pop\n      pop\n        /* \"contracts/LaptopMarketplaceERC20Test2.sol\":1218:1273  ItemAdded(itemCount, _itemName, _itemPrice, msg.sender) */\n      0x4cb34837c7f53a61f23e94bec431249774053a2ab0b596d1382fb3dde16f65cd\n        /* \"contracts/LaptopMarketplaceERC20Test2.sol\":1228:1237  itemCount */\n      sload(0x01)\n        /* \"contracts/LaptopMarketplaceERC20Test2.sol\":1239:1248  _itemName */\n      dup4\n        /* \"contracts/LaptopMarketplaceERC20Test2.sol\":1250:1260  _itemPrice */\n      dup4\n        /* \"contracts/LaptopMarketplaceERC20Test2.sol\":1262:1272  msg.sender */\n      caller\n        /* \"contracts/LaptopMarketplaceERC20Test2.sol\":1218:1273  ItemAdded(itemCount, _itemName, _itemPrice, msg.sender) */\n      mload(0x40)\n      tag_77\n      swap5\n      swap4\n      swap3\n      swap2\n      swap1\n      tag_78\n      jump\t// in\n    tag_77:\n      mload(0x40)\n      dup1\n      swap2\n      sub\n      swap1\n      log1\n        /* \"contracts/LaptopMarketplaceERC20Test2.sol\":943:1281  function addItem(string memory _itemName, uint _itemPrice) public {... */\n      pop\n      pop\n      jump\t// out\n        /* \"contracts/LaptopMarketplaceERC20Test2.sol\":436:461  uint public itemCount = 0 */\n    tag_28:\n      sload(0x01)\n      dup2\n      jump\t// out\n        /* \"@openzeppelin/contracts/access/Ownable.sol\":2293:2394  function renounceOwnership() public virtual onlyOwner {... */\n    tag_31:\n        /* \"@openzeppelin/contracts/access/Ownable.sol\":1531:1544  _checkOwner() */\n      tag_80\n        /* \"@openzeppelin/contracts/access/Ownable.sol\":1531:1542  _checkOwner */\n      tag_81\n        /* \"@openzeppelin/contracts/access/Ownable.sol\":1531:1544  _checkOwner() */\n      jump\t// in\n    tag_80:\n        /* \"@openzeppelin/contracts/access/Ownable.sol\":2357:2387  _transferOwnership(address(0)) */\n      tag_83\n        /* \"@openzeppelin/contracts/access/Ownable.sol\":2384:2385  0 */\n      0x00\n        /* \"@openzeppelin/contracts/access/Ownable.sol\":2357:2375  _transferOwnership */\n      tag_84\n        /* \"@openzeppelin/contracts/access/Ownable.sol\":2357:2387  _transferOwnership(address(0)) */\n      jump\t// in\n    tag_83:\n        /* \"@openzeppelin/contracts/access/Ownable.sol\":2293:2394  function renounceOwnership() public virtual onlyOwner {... */\n      jump\t// out\n        /* \"@openzeppelin/contracts/access/Ownable.sol\":1638:1723  function owner() public view virtual returns (address) {... */\n    tag_33:\n        /* \"@openzeppelin/contracts/access/Ownable.sol\":1684:1691  address */\n      0x00\n        /* \"@openzeppelin/contracts/access/Ownable.sol\":1710:1716  _owner */\n      dup1\n      0x00\n      swap1\n      sload\n      swap1\n      0x0100\n      exp\n      swap1\n      div\n      0xffffffffffffffffffffffffffffffffffffffff\n      and\n        /* \"@openzeppelin/contracts/access/Ownable.sol\":1703:1716  return _owner */\n      swap1\n      pop\n        /* \"@openzeppelin/contracts/access/Ownable.sol\":1638:1723  function owner() public view virtual returns (address) {... */\n      swap1\n      jump\t// out\n        /* \"contracts/LaptopMarketplaceERC20Test2.sol\":468:502  mapping(uint => Item) public items */\n    tag_39:\n      mstore(0x20, 0x02)\n      dup1\n      0x00\n      mstore\n      keccak256(0x00, 0x40)\n      0x00\n      swap2\n      pop\n      swap1\n      pop\n      dup1\n      0x00\n      add\n      sload\n      swap1\n      dup1\n      0x01\n      add\n      dup1\n      sload\n      tag_86\n      swap1\n      tag_87\n      jump\t// in\n    tag_86:\n      dup1\n      0x1f\n      add\n      0x20\n      dup1\n      swap2\n      div\n      mul\n      0x20\n      add\n      mload(0x40)\n      swap1\n      dup2\n      add\n      0x40\n      mstore\n      dup1\n      swap3\n      swap2\n      swap1\n      dup2\n      dup2\n      mstore\n      0x20\n      add\n      dup3\n      dup1\n      sload\n      tag_88\n      swap1\n      tag_87\n      jump\t// in\n    tag_88:\n      dup1\n      iszero\n      tag_89\n      jumpi\n      dup1\n      0x1f\n      lt\n      tag_90\n      jumpi\n      0x0100\n      dup1\n      dup4\n      sload\n      div\n      mul\n      dup4\n      mstore\n      swap2\n      0x20\n      add\n      swap2\n      jump(tag_89)\n    tag_90:\n      dup3\n      add\n      swap2\n      swap1\n      0x00\n      mstore\n      keccak256(0x00, 0x20)\n      swap1\n    tag_91:\n      dup2\n      sload\n      dup2\n      mstore\n      swap1\n      0x01\n      add\n      swap1\n      0x20\n      add\n      dup1\n      dup4\n      gt\n      tag_91\n      jumpi\n      dup3\n      swap1\n      sub\n      0x1f\n      and\n      dup3\n      add\n      swap2\n    tag_89:\n      pop\n      pop\n      pop\n      pop\n      pop\n      swap1\n      dup1\n      0x02\n      add\n      sload\n      swap1\n      dup1\n      0x03\n      add\n      0x00\n      swap1\n      sload\n      swap1\n      0x0100\n      exp\n      swap1\n      div\n      0xffffffffffffffffffffffffffffffffffffffff\n      and\n      swap1\n      dup1\n      0x03\n      add\n      0x14\n      swap1\n      sload\n      swap1\n      0x0100\n      exp\n      swap1\n      div\n      0xff\n      and\n      swap1\n      pop\n      dup6\n      jump\t// out\n        /* \"contracts/LaptopMarketplaceERC20Test2.sol\":558:583  IERC20 public laptopToken */\n    tag_43:\n      0x04\n      0x00\n      swap1\n      sload\n      swap1\n      0x0100\n      exp\n      swap1\n      div\n      0xffffffffffffffffffffffffffffffffffffffff\n      and\n      dup2\n      jump\t// out\n        /* \"contracts/LaptopMarketplaceERC20Test2.sol\":2609:2706  function checkBalance() public view returns (uint) {... */\n    tag_47:\n        /* \"contracts/LaptopMarketplaceERC20Test2.sol\":2654:2658  uint */\n      0x00\n        /* \"contracts/LaptopMarketplaceERC20Test2.sol\":2678:2686  balances */\n      0x03\n        /* \"contracts/LaptopMarketplaceERC20Test2.sol\":2678:2698  balances[msg.sender] */\n      0x00\n        /* \"contracts/LaptopMarketplaceERC20Test2.sol\":2687:2697  msg.sender */\n      caller\n        /* \"contracts/LaptopMarketplaceERC20Test2.sol\":2678:2698  balances[msg.sender] */\n      0xffffffffffffffffffffffffffffffffffffffff\n      and\n      0xffffffffffffffffffffffffffffffffffffffff\n      and\n      dup2\n      mstore\n      0x20\n      add\n      swap1\n      dup2\n      mstore\n      0x20\n      add\n      0x00\n      keccak256\n      sload\n        /* \"contracts/LaptopMarketplaceERC20Test2.sol\":2671:2698  return balances[msg.sender] */\n      swap1\n      pop\n        /* \"contracts/LaptopMarketplaceERC20Test2.sol\":2609:2706  function checkBalance() public view returns (uint) {... */\n      swap1\n      jump\t// out\n        /* \"contracts/LaptopMarketplaceERC20Test2.sol\":1289:2143  function buyItem(uint _id) public {... */\n    tag_51:\n        /* \"contracts/LaptopMarketplaceERC20Test2.sol\":1334:1351  Item storage item */\n      0x00\n        /* \"contracts/LaptopMarketplaceERC20Test2.sol\":1354:1359  items */\n      0x02\n        /* \"contracts/LaptopMarketplaceERC20Test2.sol\":1354:1364  items[_id] */\n      0x00\n        /* \"contracts/LaptopMarketplaceERC20Test2.sol\":1360:1363  _id */\n      dup4\n        /* \"contracts/LaptopMarketplaceERC20Test2.sol\":1354:1364  items[_id] */\n      dup2\n      mstore\n      0x20\n      add\n      swap1\n      dup2\n      mstore\n      0x20\n      add\n      0x00\n      keccak256\n        /* \"contracts/LaptopMarketplaceERC20Test2.sol\":1334:1364  Item storage item = items[_id] */\n      swap1\n      pop\n        /* \"contracts/LaptopMarketplaceERC20Test2.sol\":1389:1390  0 */\n      0x00\n        /* \"contracts/LaptopMarketplaceERC20Test2.sol\":1383:1386  _id */\n      dup3\n        /* \"contracts/LaptopMarketplaceERC20Test2.sol\":1383:1390  _id > 0 */\n      gt\n        /* \"contracts/LaptopMarketplaceERC20Test2.sol\":1383:1410  _id > 0 && _id <= itemCount */\n      dup1\n      iszero\n      tag_94\n      jumpi\n      pop\n        /* \"contracts/LaptopMarketplaceERC20Test2.sol\":1401:1410  itemCount */\n      sload(0x01)\n        /* \"contracts/LaptopMarketplaceERC20Test2.sol\":1394:1397  _id */\n      dup3\n        /* \"contracts/LaptopMarketplaceERC20Test2.sol\":1394:1410  _id <= itemCount */\n      gt\n      iszero\n        /* \"contracts/LaptopMarketplaceERC20Test2.sol\":1383:1410  _id > 0 && _id <= itemCount */\n    tag_94:\n        /* \"contracts/LaptopMarketplaceERC20Test2.sol\":1375:1429  require(_id > 0 && _id <= itemCount, \"Item not found\") */\n      tag_95\n      jumpi\n      mload(0x40)\n      0x08c379a000000000000000000000000000000000000000000000000000000000\n      dup2\n      mstore\n      0x04\n      add\n      tag_96\n      swap1\n      tag_97\n      jump\t// in\n    tag_96:\n      mload(0x40)\n      dup1\n      swap2\n      sub\n      swap1\n      revert\n    tag_95:\n        /* \"contracts/LaptopMarketplaceERC20Test2.sol\":1449:1453  item */\n      dup1\n        /* \"contracts/LaptopMarketplaceERC20Test2.sol\":1449:1460  item.isSold */\n      0x03\n      add\n      0x14\n      swap1\n      sload\n      swap1\n      0x0100\n      exp\n      swap1\n      div\n      0xff\n      and\n        /* \"contracts/LaptopMarketplaceERC20Test2.sol\":1448:1460  !item.isSold */\n      iszero\n        /* \"contracts/LaptopMarketplaceERC20Test2.sol\":1440:1482  require(!item.isSold, \"Item already sold\") */\n      tag_98\n      jumpi\n      mload(0x40)\n      0x08c379a000000000000000000000000000000000000000000000000000000000\n      dup2\n      mstore\n      0x04\n      add\n      tag_99\n      swap1\n      tag_100\n      jump\t// in\n    tag_99:\n      mload(0x40)\n      dup1\n      swap2\n      sub\n      swap1\n      revert\n    tag_98:\n        /* \"contracts/LaptopMarketplaceERC20Test2.sol\":1519:1529  msg.sender */\n      caller\n        /* \"contracts/LaptopMarketplaceERC20Test2.sol\":1501:1529  item.itemOwner != msg.sender */\n      0xffffffffffffffffffffffffffffffffffffffff\n      and\n        /* \"contracts/LaptopMarketplaceERC20Test2.sol\":1501:1505  item */\n      dup2\n        /* \"contracts/LaptopMarketplaceERC20Test2.sol\":1501:1515  item.itemOwner */\n      0x03\n      add\n      0x00\n      swap1\n      sload\n      swap1\n      0x0100\n      exp\n      swap1\n      div\n      0xffffffffffffffffffffffffffffffffffffffff\n      and\n        /* \"contracts/LaptopMarketplaceERC20Test2.sol\":1501:1529  item.itemOwner != msg.sender */\n      0xffffffffffffffffffffffffffffffffffffffff\n      and\n      sub\n        /* \"contracts/LaptopMarketplaceERC20Test2.sol\":1493:1570  require(item.itemOwner != msg.sender, \"Item owner cannot buy their own item\") */\n      tag_101\n      jumpi\n      mload(0x40)\n      0x08c379a000000000000000000000000000000000000000000000000000000000\n      dup2\n      mstore\n      0x04\n      add\n      tag_102\n      swap1\n      tag_103\n      jump\t// in\n    tag_102:\n      mload(0x40)\n      dup1\n      swap2\n      sub\n      swap1\n      revert\n    tag_101:\n        /* \"contracts/LaptopMarketplaceERC20Test2.sol\":1649:1660  laptopToken */\n      0x04\n      0x00\n      swap1\n      sload\n      swap1\n      0x0100\n      exp\n      swap1\n      div\n      0xffffffffffffffffffffffffffffffffffffffff\n      and\n        /* \"contracts/LaptopMarketplaceERC20Test2.sol\":1649:1673  laptopToken.transferFrom */\n      0xffffffffffffffffffffffffffffffffffffffff\n      and\n      0x23b872dd\n        /* \"contracts/LaptopMarketplaceERC20Test2.sol\":1674:1684  msg.sender */\n      caller\n        /* \"contracts/LaptopMarketplaceERC20Test2.sol\":1694:1698  this */\n      address\n        /* \"contracts/LaptopMarketplaceERC20Test2.sol\":1701:1705  item */\n      dup5\n        /* \"contracts/LaptopMarketplaceERC20Test2.sol\":1701:1715  item.itemPrice */\n      0x02\n      add\n      sload\n        /* \"contracts/LaptopMarketplaceERC20Test2.sol\":1649:1716  laptopToken.transferFrom(msg.sender, address(this), item.itemPrice) */\n      mload(0x40)\n      dup5\n      0xffffffff\n      and\n      0xe0\n      shl\n      dup2\n      mstore\n      0x04\n      add\n      tag_104\n      swap4\n      swap3\n      swap2\n      swap1\n      tag_105\n      jump\t// in\n    tag_104:\n      0x20\n      mload(0x40)\n      dup1\n      dup4\n      sub\n      dup2\n      0x00\n      dup8\n      gas\n      call\n      iszero\n      dup1\n      iszero\n      tag_107\n      jumpi\n      returndatasize\n      0x00\n      dup1\n      returndatacopy\n      revert(0x00, returndatasize)\n    tag_107:\n      pop\n      pop\n      pop\n      pop\n      mload(0x40)\n      returndatasize\n      not(0x1f)\n      0x1f\n      dup3\n      add\n      and\n      dup3\n      add\n      dup1\n      0x40\n      mstore\n      pop\n      dup2\n      add\n      swap1\n      tag_108\n      swap2\n      swap1\n      tag_64\n      jump\t// in\n    tag_108:\n        /* \"contracts/LaptopMarketplaceERC20Test2.sol\":1641:1742  require(laptopToken.transferFrom(msg.sender, address(this), item.itemPrice), \"Token transfer failed\") */\n      tag_109\n      jumpi\n      mload(0x40)\n      0x08c379a000000000000000000000000000000000000000000000000000000000\n      dup2\n      mstore\n      0x04\n      add\n      tag_110\n      swap1\n      tag_111\n      jump\t// in\n    tag_110:\n      mload(0x40)\n      dup1\n      swap2\n      sub\n      swap1\n      revert\n    tag_109:\n        /* \"contracts/LaptopMarketplaceERC20Test2.sol\":1836:1840  true */\n      0x01\n        /* \"contracts/LaptopMarketplaceERC20Test2.sol\":1822:1826  item */\n      dup2\n        /* \"contracts/LaptopMarketplaceERC20Test2.sol\":1822:1833  item.isSold */\n      0x03\n      add\n      0x14\n        /* \"contracts/LaptopMarketplaceERC20Test2.sol\":1822:1840  item.isSold = true */\n      0x0100\n      exp\n      dup2\n      sload\n      dup2\n      0xff\n      mul\n      not\n      and\n      swap1\n      dup4\n      iszero\n      iszero\n      mul\n      or\n      swap1\n      sstore\n      pop\n        /* \"contracts/LaptopMarketplaceERC20Test2.sol\":1879:1883  item */\n      dup1\n        /* \"contracts/LaptopMarketplaceERC20Test2.sol\":1879:1893  item.itemPrice */\n      0x02\n      add\n      sload\n        /* \"contracts/LaptopMarketplaceERC20Test2.sol\":1851:1859  balances */\n      0x03\n        /* \"contracts/LaptopMarketplaceERC20Test2.sol\":1851:1875  balances[item.itemOwner] */\n      0x00\n        /* \"contracts/LaptopMarketplaceERC20Test2.sol\":1860:1864  item */\n      dup4\n        /* \"contracts/LaptopMarketplaceERC20Test2.sol\":1860:1874  item.itemOwner */\n      0x03\n      add\n      0x00\n      swap1\n      sload\n      swap1\n      0x0100\n      exp\n      swap1\n      div\n      0xffffffffffffffffffffffffffffffffffffffff\n      and\n        /* \"contracts/LaptopMarketplaceERC20Test2.sol\":1851:1875  balances[item.itemOwner] */\n      0xffffffffffffffffffffffffffffffffffffffff\n      and\n      0xffffffffffffffffffffffffffffffffffffffff\n      and\n      dup2\n      mstore\n      0x20\n      add\n      swap1\n      dup2\n      mstore\n      0x20\n      add\n      0x00\n      keccak256\n      0x00\n        /* \"contracts/LaptopMarketplaceERC20Test2.sol\":1851:1893  balances[item.itemOwner] += item.itemPrice */\n      dup3\n      dup3\n      sload\n      tag_112\n      swap2\n      swap1\n      tag_113\n      jump\t// in\n    tag_112:\n      swap3\n      pop\n      pop\n      dup2\n      swap1\n      sstore\n      pop\n        /* \"contracts/LaptopMarketplaceERC20Test2.sol\":2017:2027  msg.sender */\n      caller\n        /* \"contracts/LaptopMarketplaceERC20Test2.sol\":1992:1996  item */\n      dup2\n        /* \"contracts/LaptopMarketplaceERC20Test2.sol\":1992:2006  item.itemOwner */\n      0x03\n      add\n      0x00\n        /* \"contracts/LaptopMarketplaceERC20Test2.sol\":1992:2028  item.itemOwner = payable(msg.sender) */\n      0x0100\n      exp\n      dup2\n      sload\n      dup2\n      0xffffffffffffffffffffffffffffffffffffffff\n      mul\n      not\n      and\n      swap1\n      dup4\n      0xffffffffffffffffffffffffffffffffffffffff\n      and\n      mul\n      or\n      swap1\n      sstore\n      pop\n        /* \"contracts/LaptopMarketplaceERC20Test2.sol\":2052:2056  item */\n      dup1\n        /* \"contracts/LaptopMarketplaceERC20Test2.sol\":2039:2044  items */\n      0x02\n        /* \"contracts/LaptopMarketplaceERC20Test2.sol\":2039:2049  items[_id] */\n      0x00\n        /* \"contracts/LaptopMarketplaceERC20Test2.sol\":2045:2048  _id */\n      dup5\n        /* \"contracts/LaptopMarketplaceERC20Test2.sol\":2039:2049  items[_id] */\n      dup2\n      mstore\n      0x20\n      add\n      swap1\n      dup2\n      mstore\n      0x20\n      add\n      0x00\n      keccak256\n        /* \"contracts/LaptopMarketplaceERC20Test2.sol\":2039:2056  items[_id] = item */\n      0x00\n      dup3\n      add\n      sload\n      dup2\n      0x00\n      add\n      sstore\n      0x01\n      dup3\n      add\n      dup2\n      0x01\n      add\n      swap1\n      dup2\n      tag_114\n      swap2\n      swap1\n      tag_115\n      jump\t// in\n    tag_114:\n      pop\n      0x02\n      dup3\n      add\n      sload\n      dup2\n      0x02\n      add\n      sstore\n      0x03\n      dup3\n      add\n      0x00\n      swap1\n      sload\n      swap1\n      0x0100\n      exp\n      swap1\n      div\n      0xffffffffffffffffffffffffffffffffffffffff\n      and\n      dup2\n      0x03\n      add\n      exp(0x0100, 0x00)\n      dup2\n      sload\n      dup2\n      0xffffffffffffffffffffffffffffffffffffffff\n      mul\n      not\n      and\n      swap1\n      dup4\n      0xffffffffffffffffffffffffffffffffffffffff\n      and\n      mul\n      or\n      swap1\n      sstore\n      pop\n      0x03\n      dup3\n      add\n      0x14\n      swap1\n      sload\n      swap1\n      0x0100\n      exp\n      swap1\n      div\n      0xff\n      and\n      dup2\n      0x03\n      add\n      exp(0x0100, 0x14)\n      dup2\n      sload\n      dup2\n      0xff\n      mul\n      not\n      and\n      swap1\n      dup4\n      iszero\n      iszero\n      mul\n      or\n      swap1\n      sstore\n      pop\n      swap1\n      pop\n      pop\n        /* \"contracts/LaptopMarketplaceERC20Test2.sol\":2074:2135  ItemPurchased(_id, item.itemName, item.itemPrice, msg.sender) */\n      0x6bd88e8e70ebe642aa8a5e3889834e40294ae8a8043b694a94071a8a2be7c67b\n        /* \"contracts/LaptopMarketplaceERC20Test2.sol\":2088:2091  _id */\n      dup3\n        /* \"contracts/LaptopMarketplaceERC20Test2.sol\":2093:2097  item */\n      dup3\n        /* \"contracts/LaptopMarketplaceERC20Test2.sol\":2093:2106  item.itemName */\n      0x01\n      add\n        /* \"contracts/LaptopMarketplaceERC20Test2.sol\":2108:2112  item */\n      dup4\n        /* \"contracts/LaptopMarketplaceERC20Test2.sol\":2108:2122  item.itemPrice */\n      0x02\n      add\n      sload\n        /* \"contracts/LaptopMarketplaceERC20Test2.sol\":2124:2134  msg.sender */\n      caller\n        /* \"contracts/LaptopMarketplaceERC20Test2.sol\":2074:2135  ItemPurchased(_id, item.itemName, item.itemPrice, msg.sender) */\n      mload(0x40)\n      tag_116\n      swap5\n      swap4\n      swap3\n      swap2\n      swap1\n      tag_117\n      jump\t// in\n    tag_116:\n      mload(0x40)\n      dup1\n      swap2\n      sub\n      swap1\n      log1\n        /* \"contracts/LaptopMarketplaceERC20Test2.sol\":1323:2143  {... */\n      pop\n        /* \"contracts/LaptopMarketplaceERC20Test2.sol\":1289:2143  function buyItem(uint _id) public {... */\n      pop\n      jump\t// out\n        /* \"@openzeppelin/contracts/access/Ownable.sol\":2543:2758  function transferOwnership(address newOwner) public virtual onlyOwner {... */\n    tag_54:\n        /* \"@openzeppelin/contracts/access/Ownable.sol\":1531:1544  _checkOwner() */\n      tag_119\n        /* \"@openzeppelin/contracts/access/Ownable.sol\":1531:1542  _checkOwner */\n      tag_81\n        /* \"@openzeppelin/contracts/access/Ownable.sol\":1531:1544  _checkOwner() */\n      jump\t// in\n    tag_119:\n        /* \"@openzeppelin/contracts/access/Ownable.sol\":2647:2648  0 */\n      0x00\n        /* \"@openzeppelin/contracts/access/Ownable.sol\":2627:2649  newOwner == address(0) */\n      0xffffffffffffffffffffffffffffffffffffffff\n      and\n        /* \"@openzeppelin/contracts/access/Ownable.sol\":2627:2635  newOwner */\n      dup2\n        /* \"@openzeppelin/contracts/access/Ownable.sol\":2627:2649  newOwner == address(0) */\n      0xffffffffffffffffffffffffffffffffffffffff\n      and\n      sub\n        /* \"@openzeppelin/contracts/access/Ownable.sol\":2623:2714  if (newOwner == address(0)) {... */\n      tag_121\n      jumpi\n        /* \"@openzeppelin/contracts/access/Ownable.sol\":2700:2701  0 */\n      0x00\n        /* \"@openzeppelin/contracts/access/Ownable.sol\":2672:2703  OwnableInvalidOwner(address(0)) */\n      mload(0x40)\n      0x1e4fbdf700000000000000000000000000000000000000000000000000000000\n      dup2\n      mstore\n      0x04\n      add\n      tag_122\n      swap2\n      swap1\n      tag_35\n      jump\t// in\n    tag_122:\n      mload(0x40)\n      dup1\n      swap2\n      sub\n      swap1\n      revert\n        /* \"@openzeppelin/contracts/access/Ownable.sol\":2623:2714  if (newOwner == address(0)) {... */\n    tag_121:\n        /* \"@openzeppelin/contracts/access/Ownable.sol\":2723:2751  _transferOwnership(newOwner) */\n      tag_123\n        /* \"@openzeppelin/contracts/access/Ownable.sol\":2742:2750  newOwner */\n      dup2\n        /* \"@openzeppelin/contracts/access/Ownable.sol\":2723:2741  _transferOwnership */\n      tag_84\n        /* \"@openzeppelin/contracts/access/Ownable.sol\":2723:2751  _transferOwnership(newOwner) */\n      jump\t// in\n    tag_123:\n        /* \"@openzeppelin/contracts/access/Ownable.sol\":2543:2758  function transferOwnership(address newOwner) public virtual onlyOwner {... */\n      pop\n      jump\t// out\n        /* \"@openzeppelin/contracts/access/Ownable.sol\":1796:1958  function _checkOwner() internal view virtual {... */\n    tag_81:\n        /* \"@openzeppelin/contracts/access/Ownable.sol\":1866:1878  _msgSender() */\n      tag_125\n        /* \"@openzeppelin/contracts/access/Ownable.sol\":1866:1876  _msgSender */\n      tag_126\n        /* \"@openzeppelin/contracts/access/Ownable.sol\":1866:1878  _msgSender() */\n      jump\t// in\n    tag_125:\n        /* \"@openzeppelin/contracts/access/Ownable.sol\":1855:1878  owner() != _msgSender() */\n      0xffffffffffffffffffffffffffffffffffffffff\n      and\n        /* \"@openzeppelin/contracts/access/Ownable.sol\":1855:1862  owner() */\n      tag_127\n        /* \"@openzeppelin/contracts/access/Ownable.sol\":1855:1860  owner */\n      tag_33\n        /* \"@openzeppelin/contracts/access/Ownable.sol\":1855:1862  owner() */\n      jump\t// in\n    tag_127:\n        /* \"@openzeppelin/contracts/access/Ownable.sol\":1855:1878  owner() != _msgSender() */\n      0xffffffffffffffffffffffffffffffffffffffff\n      and\n      eq\n        /* \"@openzeppelin/contracts/access/Ownable.sol\":1851:1952  if (owner() != _msgSender()) {... */\n      tag_128\n      jumpi\n        /* \"@openzeppelin/contracts/access/Ownable.sol\":1928:1940  _msgSender() */\n      tag_129\n        /* \"@openzeppelin/contracts/access/Ownable.sol\":1928:1938  _msgSender */\n      tag_126\n        /* \"@openzeppelin/contracts/access/Ownable.sol\":1928:1940  _msgSender() */\n      jump\t// in\n    tag_129:\n        /* \"@openzeppelin/contracts/access/Ownable.sol\":1901:1941  OwnableUnauthorizedAccount(_msgSender()) */\n      mload(0x40)\n      0x118cdaa700000000000000000000000000000000000000000000000000000000\n      dup2\n      mstore\n      0x04\n      add\n      tag_130\n      swap2\n      swap1\n      tag_35\n      jump\t// in\n    tag_130:\n      mload(0x40)\n      dup1\n      swap2\n      sub\n      swap1\n      revert\n        /* \"@openzeppelin/contracts/access/Ownable.sol\":1851:1952  if (owner() != _msgSender()) {... */\n    tag_128:\n        /* \"@openzeppelin/contracts/access/Ownable.sol\":1796:1958  function _checkOwner() internal view virtual {... */\n      jump\t// out\n        /* \"@openzeppelin/contracts/access/Ownable.sol\":2912:3099  function _transferOwnership(address newOwner) internal virtual {... */\n    tag_84:\n        /* \"@openzeppelin/contracts/access/Ownable.sol\":2985:3001  address oldOwner */\n      0x00\n        /* \"@openzeppelin/contracts/access/Ownable.sol\":3004:3010  _owner */\n      dup1\n      0x00\n      swap1\n      sload\n      swap1\n      0x0100\n      exp\n      swap1\n      div\n      0xffffffffffffffffffffffffffffffffffffffff\n      and\n        /* \"@openzeppelin/contracts/access/Ownable.sol\":2985:3010  address oldOwner = _owner */\n      swap1\n      pop\n        /* \"@openzeppelin/contracts/access/Ownable.sol\":3029:3037  newOwner */\n      dup2\n        /* \"@openzeppelin/contracts/access/Ownable.sol\":3020:3026  _owner */\n      0x00\n      dup1\n        /* \"@openzeppelin/contracts/access/Ownable.sol\":3020:3037  _owner = newOwner */\n      0x0100\n      exp\n      dup2\n      sload\n      dup2\n      0xffffffffffffffffffffffffffffffffffffffff\n      mul\n      not\n      and\n      swap1\n      dup4\n      0xffffffffffffffffffffffffffffffffffffffff\n      and\n      mul\n      or\n      swap1\n      sstore\n      pop\n        /* \"@openzeppelin/contracts/access/Ownable.sol\":3083:3091  newOwner */\n      dup2\n        /* \"@openzeppelin/contracts/access/Ownable.sol\":3052:3092  OwnershipTransferred(oldOwner, newOwner) */\n      0xffffffffffffffffffffffffffffffffffffffff\n      and\n        /* \"@openzeppelin/contracts/access/Ownable.sol\":3073:3081  oldOwner */\n      dup2\n        /* \"@openzeppelin/contracts/access/Ownable.sol\":3052:3092  OwnershipTransferred(oldOwner, newOwner) */\n      0xffffffffffffffffffffffffffffffffffffffff\n      and\n      0x8be0079c531659141344cd1fd0a4f28419497f9722a3daafe3b4186f6b6457e0\n      mload(0x40)\n      mload(0x40)\n      dup1\n      swap2\n      sub\n      swap1\n      log3\n        /* \"@openzeppelin/contracts/access/Ownable.sol\":2975:3099  {... */\n      pop\n        /* \"@openzeppelin/contracts/access/Ownable.sol\":2912:3099  function _transferOwnership(address newOwner) internal virtual {... */\n      pop\n      jump\t// out\n        /* \"@openzeppelin/contracts/utils/Context.sol\":656:752  function _msgSender() internal view virtual returns (address) {... */\n    tag_126:\n        /* \"@openzeppelin/contracts/utils/Context.sol\":709:716  address */\n      0x00\n        /* \"@openzeppelin/contracts/utils/Context.sol\":735:745  msg.sender */\n      caller\n        /* \"@openzeppelin/contracts/utils/Context.sol\":728:745  return msg.sender */\n      swap1\n      pop\n        /* \"@openzeppelin/contracts/utils/Context.sol\":656:752  function _msgSender() internal view virtual returns (address) {... */\n      swap1\n      jump\t// out\n        /* \"#utility.yul\":7:82   */\n    tag_133:\n        /* \"#utility.yul\":40:46   */\n      0x00\n        /* \"#utility.yul\":73:75   */\n      0x40\n        /* \"#utility.yul\":67:76   */\n      mload\n        /* \"#utility.yul\":57:76   */\n      swap1\n      pop\n        /* \"#utility.yul\":7:82   */\n      swap1\n      jump\t// out\n        /* \"#utility.yul\":88:205   */\n    tag_134:\n        /* \"#utility.yul\":197:198   */\n      0x00\n        /* \"#utility.yul\":194:195   */\n      dup1\n        /* \"#utility.yul\":187:199   */\n      revert\n        /* \"#utility.yul\":211:328   */\n    tag_135:\n        /* \"#utility.yul\":320:321   */\n      0x00\n        /* \"#utility.yul\":317:318   */\n      dup1\n        /* \"#utility.yul\":310:322   */\n      revert\n        /* \"#utility.yul\":334:460   */\n    tag_136:\n        /* \"#utility.yul\":371:378   */\n      0x00\n        /* \"#utility.yul\":411:453   */\n      0xffffffffffffffffffffffffffffffffffffffff\n        /* \"#utility.yul\":404:409   */\n      dup3\n        /* \"#utility.yul\":400:454   */\n      and\n        /* \"#utility.yul\":389:454   */\n      swap1\n      pop\n        /* \"#utility.yul\":334:460   */\n      swap2\n      swap1\n      pop\n      jump\t// out\n        /* \"#utility.yul\":466:562   */\n    tag_137:\n        /* \"#utility.yul\":503:510   */\n      0x00\n        /* \"#utility.yul\":532:556   */\n      tag_208\n        /* \"#utility.yul\":550:555   */\n      dup3\n        /* \"#utility.yul\":532:556   */\n      tag_136\n      jump\t// in\n    tag_208:\n        /* \"#utility.yul\":521:556   */\n      swap1\n      pop\n        /* \"#utility.yul\":466:562   */\n      swap2\n      swap1\n      pop\n      jump\t// out\n        /* \"#utility.yul\":568:690   */\n    tag_138:\n        /* \"#utility.yul\":641:665   */\n      tag_210\n        /* \"#utility.yul\":659:664   */\n      dup2\n        /* \"#utility.yul\":641:665   */\n      tag_137\n      jump\t// in\n    tag_210:\n        /* \"#utility.yul\":634:639   */\n      dup2\n        /* \"#utility.yul\":631:666   */\n      eq\n        /* \"#utility.yul\":621:684   */\n      tag_211\n      jumpi\n        /* \"#utility.yul\":680:681   */\n      0x00\n        /* \"#utility.yul\":677:678   */\n      dup1\n        /* \"#utility.yul\":670:682   */\n      revert\n        /* \"#utility.yul\":621:684   */\n    tag_211:\n        /* \"#utility.yul\":568:690   */\n      pop\n      jump\t// out\n        /* \"#utility.yul\":696:835   */\n    tag_139:\n        /* \"#utility.yul\":742:747   */\n      0x00\n        /* \"#utility.yul\":780:786   */\n      dup2\n        /* \"#utility.yul\":767:787   */\n      calldataload\n        /* \"#utility.yul\":758:787   */\n      swap1\n      pop\n        /* \"#utility.yul\":796:829   */\n      tag_213\n        /* \"#utility.yul\":823:828   */\n      dup2\n        /* \"#utility.yul\":796:829   */\n      tag_138\n      jump\t// in\n    tag_213:\n        /* \"#utility.yul\":696:835   */\n      swap3\n      swap2\n      pop\n      pop\n      jump\t// out\n        /* \"#utility.yul\":841:1170   */\n    tag_17:\n        /* \"#utility.yul\":900:906   */\n      0x00\n        /* \"#utility.yul\":949:951   */\n      0x20\n        /* \"#utility.yul\":937:946   */\n      dup3\n        /* \"#utility.yul\":928:935   */\n      dup5\n        /* \"#utility.yul\":924:947   */\n      sub\n        /* \"#utility.yul\":920:952   */\n      slt\n        /* \"#utility.yul\":917:1036   */\n      iszero\n      tag_215\n      jumpi\n        /* \"#utility.yul\":955:1034   */\n      tag_216\n      tag_134\n      jump\t// in\n    tag_216:\n        /* \"#utility.yul\":917:1036   */\n    tag_215:\n        /* \"#utility.yul\":1075:1076   */\n      0x00\n        /* \"#utility.yul\":1100:1153   */\n      tag_217\n        /* \"#utility.yul\":1145:1152   */\n      dup5\n        /* \"#utility.yul\":1136:1142   */\n      dup3\n        /* \"#utility.yul\":1125:1134   */\n      dup6\n        /* \"#utility.yul\":1121:1143   */\n      add\n        /* \"#utility.yul\":1100:1153   */\n      tag_139\n      jump\t// in\n    tag_217:\n        /* \"#utility.yul\":1090:1153   */\n      swap2\n      pop\n        /* \"#utility.yul\":1046:1163   */\n      pop\n        /* \"#utility.yul\":841:1170   */\n      swap3\n      swap2\n      pop\n      pop\n      jump\t// out\n        /* \"#utility.yul\":1176:1253   */\n    tag_140:\n        /* \"#utility.yul\":1213:1220   */\n      0x00\n        /* \"#utility.yul\":1242:1247   */\n      dup2\n        /* \"#utility.yul\":1231:1247   */\n      swap1\n      pop\n        /* \"#utility.yul\":1176:1253   */\n      swap2\n      swap1\n      pop\n      jump\t// out\n        /* \"#utility.yul\":1259:1377   */\n    tag_141:\n        /* \"#utility.yul\":1346:1370   */\n      tag_220\n        /* \"#utility.yul\":1364:1369   */\n      dup2\n        /* \"#utility.yul\":1346:1370   */\n      tag_140\n      jump\t// in\n    tag_220:\n        /* \"#utility.yul\":1341:1344   */\n      dup3\n        /* \"#utility.yul\":1334:1371   */\n      mstore\n        /* \"#utility.yul\":1259:1377   */\n      pop\n      pop\n      jump\t// out\n        /* \"#utility.yul\":1383:1605   */\n    tag_20:\n        /* \"#utility.yul\":1476:1480   */\n      0x00\n        /* \"#utility.yul\":1514:1516   */\n      0x20\n        /* \"#utility.yul\":1503:1512   */\n      dup3\n        /* \"#utility.yul\":1499:1517   */\n      add\n        /* \"#utility.yul\":1491:1517   */\n      swap1\n      pop\n        /* \"#utility.yul\":1527:1598   */\n      tag_222\n        /* \"#utility.yul\":1595:1596   */\n      0x00\n        /* \"#utility.yul\":1584:1593   */\n      dup4\n        /* \"#utility.yul\":1580:1597   */\n      add\n        /* \"#utility.yul\":1571:1577   */\n      dup5\n        /* \"#utility.yul\":1527:1598   */\n      tag_141\n      jump\t// in\n    tag_222:\n        /* \"#utility.yul\":1383:1605   */\n      swap3\n      swap2\n      pop\n      pop\n      jump\t// out\n        /* \"#utility.yul\":1611:1728   */\n    tag_142:\n        /* \"#utility.yul\":1720:1721   */\n      0x00\n        /* \"#utility.yul\":1717:1718   */\n      dup1\n        /* \"#utility.yul\":1710:1722   */\n      revert\n        /* \"#utility.yul\":1734:1851   */\n    tag_143:\n        /* \"#utility.yul\":1843:1844   */\n      0x00\n        /* \"#utility.yul\":1840:1841   */\n      dup1\n        /* \"#utility.yul\":1833:1845   */\n      revert\n        /* \"#utility.yul\":1857:1959   */\n    tag_144:\n        /* \"#utility.yul\":1898:1904   */\n      0x00\n        /* \"#utility.yul\":1949:1951   */\n      0x1f\n        /* \"#utility.yul\":1945:1952   */\n      not\n        /* \"#utility.yul\":1940:1942   */\n      0x1f\n        /* \"#utility.yul\":1933:1938   */\n      dup4\n        /* \"#utility.yul\":1929:1943   */\n      add\n        /* \"#utility.yul\":1925:1953   */\n      and\n        /* \"#utility.yul\":1915:1953   */\n      swap1\n      pop\n        /* \"#utility.yul\":1857:1959   */\n      swap2\n      swap1\n      pop\n      jump\t// out\n        /* \"#utility.yul\":1965:2145   */\n    tag_145:\n        /* \"#utility.yul\":2013:2090   */\n      0x4e487b7100000000000000000000000000000000000000000000000000000000\n        /* \"#utility.yul\":2010:2011   */\n      0x00\n        /* \"#utility.yul\":2003:2091   */\n      mstore\n        /* \"#utility.yul\":2110:2114   */\n      0x41\n        /* \"#utility.yul\":2107:2108   */\n      0x04\n        /* \"#utility.yul\":2100:2115   */\n      mstore\n        /* \"#utility.yul\":2134:2138   */\n      0x24\n        /* \"#utility.yul\":2131:2132   */\n      0x00\n        /* \"#utility.yul\":2124:2139   */\n      revert\n        /* \"#utility.yul\":2151:2432   */\n    tag_146:\n        /* \"#utility.yul\":2234:2261   */\n      tag_228\n        /* \"#utility.yul\":2256:2260   */\n      dup3\n        /* \"#utility.yul\":2234:2261   */\n      tag_144\n      jump\t// in\n    tag_228:\n        /* \"#utility.yul\":2226:2232   */\n      dup2\n        /* \"#utility.yul\":2222:2262   */\n      add\n        /* \"#utility.yul\":2364:2370   */\n      dup2\n        /* \"#utility.yul\":2352:2362   */\n      dup2\n        /* \"#utility.yul\":2349:2371   */\n      lt\n        /* \"#utility.yul\":2328:2346   */\n      0xffffffffffffffff\n        /* \"#utility.yul\":2316:2326   */\n      dup3\n        /* \"#utility.yul\":2313:2347   */\n      gt\n        /* \"#utility.yul\":2310:2372   */\n      or\n        /* \"#utility.yul\":2307:2395   */\n      iszero\n      tag_229\n      jumpi\n        /* \"#utility.yul\":2375:2393   */\n      tag_230\n      tag_145\n      jump\t// in\n    tag_230:\n        /* \"#utility.yul\":2307:2395   */\n    tag_229:\n        /* \"#utility.yul\":2415:2425   */\n      dup1\n        /* \"#utility.yul\":2411:2413   */\n      0x40\n        /* \"#utility.yul\":2404:2426   */\n      mstore\n        /* \"#utility.yul\":2194:2432   */\n      pop\n        /* \"#utility.yul\":2151:2432   */\n      pop\n      pop\n      jump\t// out\n        /* \"#utility.yul\":2438:2567   */\n    tag_147:\n        /* \"#utility.yul\":2472:2478   */\n      0x00\n        /* \"#utility.yul\":2499:2519   */\n      tag_232\n      tag_133\n      jump\t// in\n    tag_232:\n        /* \"#utility.yul\":2489:2519   */\n      swap1\n      pop\n        /* \"#utility.yul\":2528:2561   */\n      tag_233\n        /* \"#utility.yul\":2556:2560   */\n      dup3\n        /* \"#utility.yul\":2548:2554   */\n      dup3\n        /* \"#utility.yul\":2528:2561   */\n      tag_146\n      jump\t// in\n    tag_233:\n        /* \"#utility.yul\":2438:2567   */\n      swap2\n      swap1\n      pop\n      jump\t// out\n        /* \"#utility.yul\":2573:2881   */\n    tag_148:\n        /* \"#utility.yul\":2635:2639   */\n      0x00\n        /* \"#utility.yul\":2725:2743   */\n      0xffffffffffffffff\n        /* \"#utility.yul\":2717:2723   */\n      dup3\n        /* \"#utility.yul\":2714:2744   */\n      gt\n        /* \"#utility.yul\":2711:2767   */\n      iszero\n      tag_235\n      jumpi\n        /* \"#utility.yul\":2747:2765   */\n      tag_236\n      tag_145\n      jump\t// in\n    tag_236:\n        /* \"#utility.yul\":2711:2767   */\n    tag_235:\n        /* \"#utility.yul\":2785:2814   */\n      tag_237\n        /* \"#utility.yul\":2807:2813   */\n      dup3\n        /* \"#utility.yul\":2785:2814   */\n      tag_144\n      jump\t// in\n    tag_237:\n        /* \"#utility.yul\":2777:2814   */\n      swap1\n      pop\n        /* \"#utility.yul\":2869:2873   */\n      0x20\n        /* \"#utility.yul\":2863:2867   */\n      dup2\n        /* \"#utility.yul\":2859:2874   */\n      add\n        /* \"#utility.yul\":2851:2874   */\n      swap1\n      pop\n        /* \"#utility.yul\":2573:2881   */\n      swap2\n      swap1\n      pop\n      jump\t// out\n        /* \"#utility.yul\":2887:3035   */\n    tag_149:\n        /* \"#utility.yul\":2985:2991   */\n      dup3\n        /* \"#utility.yul\":2980:2983   */\n      dup2\n        /* \"#utility.yul\":2975:2978   */\n      dup4\n        /* \"#utility.yul\":2962:2992   */\n      calldatacopy\n        /* \"#utility.yul\":3026:3027   */\n      0x00\n        /* \"#utility.yul\":3017:3023   */\n      dup4\n        /* \"#utility.yul\":3012:3015   */\n      dup4\n        /* \"#utility.yul\":3008:3024   */\n      add\n        /* \"#utility.yul\":3001:3028   */\n      mstore\n        /* \"#utility.yul\":2887:3035   */\n      pop\n      pop\n      pop\n      jump\t// out\n        /* \"#utility.yul\":3041:3466   */\n    tag_150:\n        /* \"#utility.yul\":3119:3124   */\n      0x00\n        /* \"#utility.yul\":3144:3210   */\n      tag_240\n        /* \"#utility.yul\":3160:3209   */\n      tag_241\n        /* \"#utility.yul\":3202:3208   */\n      dup5\n        /* \"#utility.yul\":3160:3209   */\n      tag_148\n      jump\t// in\n    tag_241:\n        /* \"#utility.yul\":3144:3210   */\n      tag_147\n      jump\t// in\n    tag_240:\n        /* \"#utility.yul\":3135:3210   */\n      swap1\n      pop\n        /* \"#utility.yul\":3233:3239   */\n      dup3\n        /* \"#utility.yul\":3226:3231   */\n      dup2\n        /* \"#utility.yul\":3219:3240   */\n      mstore\n        /* \"#utility.yul\":3271:3275   */\n      0x20\n        /* \"#utility.yul\":3264:3269   */\n      dup2\n        /* \"#utility.yul\":3260:3276   */\n      add\n        /* \"#utility.yul\":3309:3312   */\n      dup5\n        /* \"#utility.yul\":3300:3306   */\n      dup5\n        /* \"#utility.yul\":3295:3298   */\n      dup5\n        /* \"#utility.yul\":3291:3307   */\n      add\n        /* \"#utility.yul\":3288:3313   */\n      gt\n        /* \"#utility.yul\":3285:3397   */\n      iszero\n      tag_242\n      jumpi\n        /* \"#utility.yul\":3316:3395   */\n      tag_243\n      tag_143\n      jump\t// in\n    tag_243:\n        /* \"#utility.yul\":3285:3397   */\n    tag_242:\n        /* \"#utility.yul\":3406:3460   */\n      tag_244\n        /* \"#utility.yul\":3453:3459   */\n      dup5\n        /* \"#utility.yul\":3448:3451   */\n      dup3\n        /* \"#utility.yul\":3443:3446   */\n      dup6\n        /* \"#utility.yul\":3406:3460   */\n      tag_149\n      jump\t// in\n    tag_244:\n        /* \"#utility.yul\":3125:3466   */\n      pop\n        /* \"#utility.yul\":3041:3466   */\n      swap4\n      swap3\n      pop\n      pop\n      pop\n      jump\t// out\n        /* \"#utility.yul\":3486:3826   */\n    tag_151:\n        /* \"#utility.yul\":3542:3547   */\n      0x00\n        /* \"#utility.yul\":3591:3594   */\n      dup3\n        /* \"#utility.yul\":3584:3588   */\n      0x1f\n        /* \"#utility.yul\":3576:3582   */\n      dup4\n        /* \"#utility.yul\":3572:3589   */\n      add\n        /* \"#utility.yul\":3568:3595   */\n      slt\n        /* \"#utility.yul\":3558:3680   */\n      tag_246\n      jumpi\n        /* \"#utility.yul\":3599:3678   */\n      tag_247\n      tag_142\n      jump\t// in\n    tag_247:\n        /* \"#utility.yul\":3558:3680   */\n    tag_246:\n        /* \"#utility.yul\":3716:3722   */\n      dup2\n        /* \"#utility.yul\":3703:3723   */\n      calldataload\n        /* \"#utility.yul\":3741:3820   */\n      tag_248\n        /* \"#utility.yul\":3816:3819   */\n      dup5\n        /* \"#utility.yul\":3808:3814   */\n      dup3\n        /* \"#utility.yul\":3801:3805   */\n      0x20\n        /* \"#utility.yul\":3793:3799   */\n      dup7\n        /* \"#utility.yul\":3789:3806   */\n      add\n        /* \"#utility.yul\":3741:3820   */\n      tag_150\n      jump\t// in\n    tag_248:\n        /* \"#utility.yul\":3732:3820   */\n      swap2\n      pop\n        /* \"#utility.yul\":3548:3826   */\n      pop\n        /* \"#utility.yul\":3486:3826   */\n      swap3\n      swap2\n      pop\n      pop\n      jump\t// out\n        /* \"#utility.yul\":3832:3954   */\n    tag_152:\n        /* \"#utility.yul\":3905:3929   */\n      tag_250\n        /* \"#utility.yul\":3923:3928   */\n      dup2\n        /* \"#utility.yul\":3905:3929   */\n      tag_140\n      jump\t// in\n    tag_250:\n        /* \"#utility.yul\":3898:3903   */\n      dup2\n        /* \"#utility.yul\":3895:3930   */\n      eq\n        /* \"#utility.yul\":3885:3948   */\n      tag_251\n      jumpi\n        /* \"#utility.yul\":3944:3945   */\n      0x00\n        /* \"#utility.yul\":3941:3942   */\n      dup1\n        /* \"#utility.yul\":3934:3946   */\n      revert\n        /* \"#utility.yul\":3885:3948   */\n    tag_251:\n        /* \"#utility.yul\":3832:3954   */\n      pop\n      jump\t// out\n        /* \"#utility.yul\":3960:4099   */\n    tag_153:\n        /* \"#utility.yul\":4006:4011   */\n      0x00\n        /* \"#utility.yul\":4044:4050   */\n      dup2\n        /* \"#utility.yul\":4031:4051   */\n      calldataload\n        /* \"#utility.yul\":4022:4051   */\n      swap1\n      pop\n        /* \"#utility.yul\":4060:4093   */\n      tag_253\n        /* \"#utility.yul\":4087:4092   */\n      dup2\n        /* \"#utility.yul\":4060:4093   */\n      tag_152\n      jump\t// in\n    tag_253:\n        /* \"#utility.yul\":3960:4099   */\n      swap3\n      swap2\n      pop\n      pop\n      jump\t// out\n        /* \"#utility.yul\":4105:4759   */\n    tag_25:\n        /* \"#utility.yul\":4183:4189   */\n      0x00\n        /* \"#utility.yul\":4191:4197   */\n      dup1\n        /* \"#utility.yul\":4240:4242   */\n      0x40\n        /* \"#utility.yul\":4228:4237   */\n      dup4\n        /* \"#utility.yul\":4219:4226   */\n      dup6\n        /* \"#utility.yul\":4215:4238   */\n      sub\n        /* \"#utility.yul\":4211:4243   */\n      slt\n        /* \"#utility.yul\":4208:4327   */\n      iszero\n      tag_255\n      jumpi\n        /* \"#utility.yul\":4246:4325   */\n      tag_256\n      tag_134\n      jump\t// in\n    tag_256:\n        /* \"#utility.yul\":4208:4327   */\n    tag_255:\n        /* \"#utility.yul\":4394:4395   */\n      0x00\n        /* \"#utility.yul\":4383:4392   */\n      dup4\n        /* \"#utility.yul\":4379:4396   */\n      add\n        /* \"#utility.yul\":4366:4397   */\n      calldataload\n        /* \"#utility.yul\":4424:4442   */\n      0xffffffffffffffff\n        /* \"#utility.yul\":4416:4422   */\n      dup2\n        /* \"#utility.yul\":4413:4443   */\n      gt\n        /* \"#utility.yul\":4410:4527   */\n      iszero\n      tag_257\n      jumpi\n        /* \"#utility.yul\":4446:4525   */\n      tag_258\n      tag_135\n      jump\t// in\n    tag_258:\n        /* \"#utility.yul\":4410:4527   */\n    tag_257:\n        /* \"#utility.yul\":4551:4614   */\n      tag_259\n        /* \"#utility.yul\":4606:4613   */\n      dup6\n        /* \"#utility.yul\":4597:4603   */\n      dup3\n        /* \"#utility.yul\":4586:4595   */\n      dup7\n        /* \"#utility.yul\":4582:4604   */\n      add\n        /* \"#utility.yul\":4551:4614   */\n      tag_151\n      jump\t// in\n    tag_259:\n        /* \"#utility.yul\":4541:4614   */\n      swap3\n      pop\n        /* \"#utility.yul\":4337:4624   */\n      pop\n        /* \"#utility.yul\":4663:4665   */\n      0x20\n        /* \"#utility.yul\":4689:4742   */\n      tag_260\n        /* \"#utility.yul\":4734:4741   */\n      dup6\n        /* \"#utility.yul\":4725:4731   */\n      dup3\n        /* \"#utility.yul\":4714:4723   */\n      dup7\n        /* \"#utility.yul\":4710:4732   */\n      add\n        /* \"#utility.yul\":4689:4742   */\n      tag_153\n      jump\t// in\n    tag_260:\n        /* \"#utility.yul\":4679:4742   */\n      swap2\n      pop\n        /* \"#utility.yul\":4634:4752   */\n      pop\n        /* \"#utility.yul\":4105:4759   */\n      swap3\n      pop\n      swap3\n      swap1\n      pop\n      jump\t// out\n        /* \"#utility.yul\":4765:4883   */\n    tag_154:\n        /* \"#utility.yul\":4852:4876   */\n      tag_262\n        /* \"#utility.yul\":4870:4875   */\n      dup2\n        /* \"#utility.yul\":4852:4876   */\n      tag_137\n      jump\t// in\n    tag_262:\n        /* \"#utility.yul\":4847:4850   */\n      dup3\n        /* \"#utility.yul\":4840:4877   */\n      mstore\n        /* \"#utility.yul\":4765:4883   */\n      pop\n      pop\n      jump\t// out\n        /* \"#utility.yul\":4889:5111   */\n    tag_35:\n        /* \"#utility.yul\":4982:4986   */\n      0x00\n        /* \"#utility.yul\":5020:5022   */\n      0x20\n        /* \"#utility.yul\":5009:5018   */\n      dup3\n        /* \"#utility.yul\":5005:5023   */\n      add\n        /* \"#utility.yul\":4997:5023   */\n      swap1\n      pop\n        /* \"#utility.yul\":5033:5104   */\n      tag_264\n        /* \"#utility.yul\":5101:5102   */\n      0x00\n        /* \"#utility.yul\":5090:5099   */\n      dup4\n        /* \"#utility.yul\":5086:5103   */\n      add\n        /* \"#utility.yul\":5077:5083   */\n      dup5\n        /* \"#utility.yul\":5033:5104   */\n      tag_154\n      jump\t// in\n    tag_264:\n        /* \"#utility.yul\":4889:5111   */\n      swap3\n      swap2\n      pop\n      pop\n      jump\t// out\n        /* \"#utility.yul\":5117:5446   */\n    tag_38:\n        /* \"#utility.yul\":5176:5182   */\n      0x00\n        /* \"#utility.yul\":5225:5227   */\n      0x20\n        /* \"#utility.yul\":5213:5222   */\n      dup3\n        /* \"#utility.yul\":5204:5211   */\n      dup5\n        /* \"#utility.yul\":5200:5223   */\n      sub\n        /* \"#utility.yul\":5196:5228   */\n      slt\n        /* \"#utility.yul\":5193:5312   */\n      iszero\n      tag_266\n      jumpi\n        /* \"#utility.yul\":5231:5310   */\n      tag_267\n      tag_134\n      jump\t// in\n    tag_267:\n        /* \"#utility.yul\":5193:5312   */\n    tag_266:\n        /* \"#utility.yul\":5351:5352   */\n      0x00\n        /* \"#utility.yul\":5376:5429   */\n      tag_268\n        /* \"#utility.yul\":5421:5428   */\n      dup5\n        /* \"#utility.yul\":5412:5418   */\n      dup3\n        /* \"#utility.yul\":5401:5410   */\n      dup6\n        /* \"#utility.yul\":5397:5419   */\n      add\n        /* \"#utility.yul\":5376:5429   */\n      tag_153\n      jump\t// in\n    tag_268:\n        /* \"#utility.yul\":5366:5429   */\n      swap2\n      pop\n        /* \"#utility.yul\":5322:5439   */\n      pop\n        /* \"#utility.yul\":5117:5446   */\n      swap3\n      swap2\n      pop\n      pop\n      jump\t// out\n        /* \"#utility.yul\":5452:5551   */\n    tag_155:\n        /* \"#utility.yul\":5504:5510   */\n      0x00\n        /* \"#utility.yul\":5538:5543   */\n      dup2\n        /* \"#utility.yul\":5532:5544   */\n      mload\n        /* \"#utility.yul\":5522:5544   */\n      swap1\n      pop\n        /* \"#utility.yul\":5452:5551   */\n      swap2\n      swap1\n      pop\n      jump\t// out\n        /* \"#utility.yul\":5557:5726   */\n    tag_156:\n        /* \"#utility.yul\":5641:5652   */\n      0x00\n        /* \"#utility.yul\":5675:5681   */\n      dup3\n        /* \"#utility.yul\":5670:5673   */\n      dup3\n        /* \"#utility.yul\":5663:5682   */\n      mstore\n        /* \"#utility.yul\":5715:5719   */\n      0x20\n        /* \"#utility.yul\":5710:5713   */\n      dup3\n        /* \"#utility.yul\":5706:5720   */\n      add\n        /* \"#utility.yul\":5691:5720   */\n      swap1\n      pop\n        /* \"#utility.yul\":5557:5726   */\n      swap3\n      swap2\n      pop\n      pop\n      jump\t// out\n        /* \"#utility.yul\":5732:5871   */\n    tag_157:\n        /* \"#utility.yul\":5821:5827   */\n      dup3\n        /* \"#utility.yul\":5816:5819   */\n      dup2\n        /* \"#utility.yul\":5811:5814   */\n      dup4\n        /* \"#utility.yul\":5805:5828   */\n      mcopy\n        /* \"#utility.yul\":5862:5863   */\n      0x00\n        /* \"#utility.yul\":5853:5859   */\n      dup4\n        /* \"#utility.yul\":5848:5851   */\n      dup4\n        /* \"#utility.yul\":5844:5860   */\n      add\n        /* \"#utility.yul\":5837:5864   */\n      mstore\n        /* \"#utility.yul\":5732:5871   */\n      pop\n      pop\n      pop\n      jump\t// out\n        /* \"#utility.yul\":5877:6254   */\n    tag_158:\n        /* \"#utility.yul\":5965:5968   */\n      0x00\n        /* \"#utility.yul\":5993:6032   */\n      tag_273\n        /* \"#utility.yul\":6026:6031   */\n      dup3\n        /* \"#utility.yul\":5993:6032   */\n      tag_155\n      jump\t// in\n    tag_273:\n        /* \"#utility.yul\":6048:6119   */\n      tag_274\n        /* \"#utility.yul\":6112:6118   */\n      dup2\n        /* \"#utility.yul\":6107:6110   */\n      dup6\n        /* \"#utility.yul\":6048:6119   */\n      tag_156\n      jump\t// in\n    tag_274:\n        /* \"#utility.yul\":6041:6119   */\n      swap4\n      pop\n        /* \"#utility.yul\":6128:6193   */\n      tag_275\n        /* \"#utility.yul\":6186:6192   */\n      dup2\n        /* \"#utility.yul\":6181:6184   */\n      dup6\n        /* \"#utility.yul\":6174:6178   */\n      0x20\n        /* \"#utility.yul\":6167:6172   */\n      dup7\n        /* \"#utility.yul\":6163:6179   */\n      add\n        /* \"#utility.yul\":6128:6193   */\n      tag_157\n      jump\t// in\n    tag_275:\n        /* \"#utility.yul\":6218:6247   */\n      tag_276\n        /* \"#utility.yul\":6240:6246   */\n      dup2\n        /* \"#utility.yul\":6218:6247   */\n      tag_144\n      jump\t// in\n    tag_276:\n        /* \"#utility.yul\":6213:6216   */\n      dup5\n        /* \"#utility.yul\":6209:6248   */\n      add\n        /* \"#utility.yul\":6202:6248   */\n      swap2\n      pop\n        /* \"#utility.yul\":5969:6254   */\n      pop\n        /* \"#utility.yul\":5877:6254   */\n      swap3\n      swap2\n      pop\n      pop\n      jump\t// out\n        /* \"#utility.yul\":6260:6364   */\n    tag_159:\n        /* \"#utility.yul\":6305:6312   */\n      0x00\n        /* \"#utility.yul\":6334:6358   */\n      tag_278\n        /* \"#utility.yul\":6352:6357   */\n      dup3\n        /* \"#utility.yul\":6334:6358   */\n      tag_136\n      jump\t// in\n    tag_278:\n        /* \"#utility.yul\":6323:6358   */\n      swap1\n      pop\n        /* \"#utility.yul\":6260:6364   */\n      swap2\n      swap1\n      pop\n      jump\t// out\n        /* \"#utility.yul\":6370:6512   */\n    tag_160:\n        /* \"#utility.yul\":6473:6505   */\n      tag_280\n        /* \"#utility.yul\":6499:6504   */\n      dup2\n        /* \"#utility.yul\":6473:6505   */\n      tag_159\n      jump\t// in\n    tag_280:\n        /* \"#utility.yul\":6468:6471   */\n      dup3\n        /* \"#utility.yul\":6461:6506   */\n      mstore\n        /* \"#utility.yul\":6370:6512   */\n      pop\n      pop\n      jump\t// out\n        /* \"#utility.yul\":6518:6608   */\n    tag_161:\n        /* \"#utility.yul\":6552:6559   */\n      0x00\n        /* \"#utility.yul\":6595:6600   */\n      dup2\n        /* \"#utility.yul\":6588:6601   */\n      iszero\n        /* \"#utility.yul\":6581:6602   */\n      iszero\n        /* \"#utility.yul\":6570:6602   */\n      swap1\n      pop\n        /* \"#utility.yul\":6518:6608   */\n      swap2\n      swap1\n      pop\n      jump\t// out\n        /* \"#utility.yul\":6614:6723   */\n    tag_162:\n        /* \"#utility.yul\":6695:6716   */\n      tag_283\n        /* \"#utility.yul\":6710:6715   */\n      dup2\n        /* \"#utility.yul\":6695:6716   */\n      tag_161\n      jump\t// in\n    tag_283:\n        /* \"#utility.yul\":6690:6693   */\n      dup3\n        /* \"#utility.yul\":6683:6717   */\n      mstore\n        /* \"#utility.yul\":6614:6723   */\n      pop\n      pop\n      jump\t// out\n        /* \"#utility.yul\":6729:7504   */\n    tag_41:\n        /* \"#utility.yul\":6964:6968   */\n      0x00\n        /* \"#utility.yul\":7002:7005   */\n      0xa0\n        /* \"#utility.yul\":6991:7000   */\n      dup3\n        /* \"#utility.yul\":6987:7006   */\n      add\n        /* \"#utility.yul\":6979:7006   */\n      swap1\n      pop\n        /* \"#utility.yul\":7016:7087   */\n      tag_285\n        /* \"#utility.yul\":7084:7085   */\n      0x00\n        /* \"#utility.yul\":7073:7082   */\n      dup4\n        /* \"#utility.yul\":7069:7086   */\n      add\n        /* \"#utility.yul\":7060:7066   */\n      dup9\n        /* \"#utility.yul\":7016:7087   */\n      tag_141\n      jump\t// in\n    tag_285:\n        /* \"#utility.yul\":7134:7143   */\n      dup2\n        /* \"#utility.yul\":7128:7132   */\n      dup2\n        /* \"#utility.yul\":7124:7144   */\n      sub\n        /* \"#utility.yul\":7119:7121   */\n      0x20\n        /* \"#utility.yul\":7108:7117   */\n      dup4\n        /* \"#utility.yul\":7104:7122   */\n      add\n        /* \"#utility.yul\":7097:7145   */\n      mstore\n        /* \"#utility.yul\":7162:7240   */\n      tag_286\n        /* \"#utility.yul\":7235:7239   */\n      dup2\n        /* \"#utility.yul\":7226:7232   */\n      dup8\n        /* \"#utility.yul\":7162:7240   */\n      tag_158\n      jump\t// in\n    tag_286:\n        /* \"#utility.yul\":7154:7240   */\n      swap1\n      pop\n        /* \"#utility.yul\":7250:7322   */\n      tag_287\n        /* \"#utility.yul\":7318:7320   */\n      0x40\n        /* \"#utility.yul\":7307:7316   */\n      dup4\n        /* \"#utility.yul\":7303:7321   */\n      add\n        /* \"#utility.yul\":7294:7300   */\n      dup7\n        /* \"#utility.yul\":7250:7322   */\n      tag_141\n      jump\t// in\n    tag_287:\n        /* \"#utility.yul\":7332:7420   */\n      tag_288\n        /* \"#utility.yul\":7416:7418   */\n      0x60\n        /* \"#utility.yul\":7405:7414   */\n      dup4\n        /* \"#utility.yul\":7401:7419   */\n      add\n        /* \"#utility.yul\":7392:7398   */\n      dup6\n        /* \"#utility.yul\":7332:7420   */\n      tag_160\n      jump\t// in\n    tag_288:\n        /* \"#utility.yul\":7430:7497   */\n      tag_289\n        /* \"#utility.yul\":7492:7495   */\n      0x80\n        /* \"#utility.yul\":7481:7490   */\n      dup4\n        /* \"#utility.yul\":7477:7496   */\n      add\n        /* \"#utility.yul\":7468:7474   */\n      dup5\n        /* \"#utility.yul\":7430:7497   */\n      tag_162\n      jump\t// in\n    tag_289:\n        /* \"#utility.yul\":6729:7504   */\n      swap7\n      swap6\n      pop\n      pop\n      pop\n      pop\n      pop\n      pop\n      jump\t// out\n        /* \"#utility.yul\":7510:7570   */\n    tag_163:\n        /* \"#utility.yul\":7538:7541   */\n      0x00\n        /* \"#utility.yul\":7559:7564   */\n      dup2\n        /* \"#utility.yul\":7552:7564   */\n      swap1\n      pop\n        /* \"#utility.yul\":7510:7570   */\n      swap2\n      swap1\n      pop\n      jump\t// out\n        /* \"#utility.yul\":7576:7718   */\n    tag_164:\n        /* \"#utility.yul\":7626:7635   */\n      0x00\n        /* \"#utility.yul\":7659:7712   */\n      tag_292\n        /* \"#utility.yul\":7677:7711   */\n      tag_293\n        /* \"#utility.yul\":7686:7710   */\n      tag_294\n        /* \"#utility.yul\":7704:7709   */\n      dup5\n        /* \"#utility.yul\":7686:7710   */\n      tag_136\n      jump\t// in\n    tag_294:\n        /* \"#utility.yul\":7677:7711   */\n      tag_163\n      jump\t// in\n    tag_293:\n        /* \"#utility.yul\":7659:7712   */\n      tag_136\n      jump\t// in\n    tag_292:\n        /* \"#utility.yul\":7646:7712   */\n      swap1\n      pop\n        /* \"#utility.yul\":7576:7718   */\n      swap2\n      swap1\n      pop\n      jump\t// out\n        /* \"#utility.yul\":7724:7850   */\n    tag_165:\n        /* \"#utility.yul\":7774:7783   */\n      0x00\n        /* \"#utility.yul\":7807:7844   */\n      tag_296\n        /* \"#utility.yul\":7838:7843   */\n      dup3\n        /* \"#utility.yul\":7807:7844   */\n      tag_164\n      jump\t// in\n    tag_296:\n        /* \"#utility.yul\":7794:7844   */\n      swap1\n      pop\n        /* \"#utility.yul\":7724:7850   */\n      swap2\n      swap1\n      pop\n      jump\t// out\n        /* \"#utility.yul\":7856:7996   */\n    tag_166:\n        /* \"#utility.yul\":7920:7929   */\n      0x00\n        /* \"#utility.yul\":7953:7990   */\n      tag_298\n        /* \"#utility.yul\":7984:7989   */\n      dup3\n        /* \"#utility.yul\":7953:7990   */\n      tag_165\n      jump\t// in\n    tag_298:\n        /* \"#utility.yul\":7940:7990   */\n      swap1\n      pop\n        /* \"#utility.yul\":7856:7996   */\n      swap2\n      swap1\n      pop\n      jump\t// out\n        /* \"#utility.yul\":8002:8161   */\n    tag_167:\n        /* \"#utility.yul\":8103:8154   */\n      tag_300\n        /* \"#utility.yul\":8148:8153   */\n      dup2\n        /* \"#utility.yul\":8103:8154   */\n      tag_166\n      jump\t// in\n    tag_300:\n        /* \"#utility.yul\":8098:8101   */\n      dup3\n        /* \"#utility.yul\":8091:8155   */\n      mstore\n        /* \"#utility.yul\":8002:8161   */\n      pop\n      pop\n      jump\t// out\n        /* \"#utility.yul\":8167:8417   */\n    tag_45:\n        /* \"#utility.yul\":8274:8278   */\n      0x00\n        /* \"#utility.yul\":8312:8314   */\n      0x20\n        /* \"#utility.yul\":8301:8310   */\n      dup3\n        /* \"#utility.yul\":8297:8315   */\n      add\n        /* \"#utility.yul\":8289:8315   */\n      swap1\n      pop\n        /* \"#utility.yul\":8325:8410   */\n      tag_302\n        /* \"#utility.yul\":8407:8408   */\n      0x00\n        /* \"#utility.yul\":8396:8405   */\n      dup4\n        /* \"#utility.yul\":8392:8409   */\n      add\n        /* \"#utility.yul\":8383:8389   */\n      dup5\n        /* \"#utility.yul\":8325:8410   */\n      tag_167\n      jump\t// in\n    tag_302:\n        /* \"#utility.yul\":8167:8417   */\n      swap3\n      swap2\n      pop\n      pop\n      jump\t// out\n        /* \"#utility.yul\":8423:8595   */\n    tag_168:\n        /* \"#utility.yul\":8563:8587   */\n      0x4e6f2062616c616e636520746f20776974686472617700000000000000000000\n        /* \"#utility.yul\":8559:8560   */\n      0x00\n        /* \"#utility.yul\":8551:8557   */\n      dup3\n        /* \"#utility.yul\":8547:8561   */\n      add\n        /* \"#utility.yul\":8540:8588   */\n      mstore\n        /* \"#utility.yul\":8423:8595   */\n      pop\n      jump\t// out\n        /* \"#utility.yul\":8601:8967   */\n    tag_169:\n        /* \"#utility.yul\":8743:8746   */\n      0x00\n        /* \"#utility.yul\":8764:8831   */\n      tag_305\n        /* \"#utility.yul\":8828:8830   */\n      0x16\n        /* \"#utility.yul\":8823:8826   */\n      dup4\n        /* \"#utility.yul\":8764:8831   */\n      tag_156\n      jump\t// in\n    tag_305:\n        /* \"#utility.yul\":8757:8831   */\n      swap2\n      pop\n        /* \"#utility.yul\":8840:8933   */\n      tag_306\n        /* \"#utility.yul\":8929:8932   */\n      dup3\n        /* \"#utility.yul\":8840:8933   */\n      tag_168\n      jump\t// in\n    tag_306:\n        /* \"#utility.yul\":8958:8960   */\n      0x20\n        /* \"#utility.yul\":8953:8956   */\n      dup3\n        /* \"#utility.yul\":8949:8961   */\n      add\n        /* \"#utility.yul\":8942:8961   */\n      swap1\n      pop\n        /* \"#utility.yul\":8601:8967   */\n      swap2\n      swap1\n      pop\n      jump\t// out\n        /* \"#utility.yul\":8973:9392   */\n    tag_58:\n        /* \"#utility.yul\":9139:9143   */\n      0x00\n        /* \"#utility.yul\":9177:9179   */\n      0x20\n        /* \"#utility.yul\":9166:9175   */\n      dup3\n        /* \"#utility.yul\":9162:9180   */\n      add\n        /* \"#utility.yul\":9154:9180   */\n      swap1\n      pop\n        /* \"#utility.yul\":9226:9235   */\n      dup2\n        /* \"#utility.yul\":9220:9224   */\n      dup2\n        /* \"#utility.yul\":9216:9236   */\n      sub\n        /* \"#utility.yul\":9212:9213   */\n      0x00\n        /* \"#utility.yul\":9201:9210   */\n      dup4\n        /* \"#utility.yul\":9197:9214   */\n      add\n        /* \"#utility.yul\":9190:9237   */\n      mstore\n        /* \"#utility.yul\":9254:9385   */\n      tag_308\n        /* \"#utility.yul\":9380:9384   */\n      dup2\n        /* \"#utility.yul\":9254:9385   */\n      tag_169\n      jump\t// in\n    tag_308:\n        /* \"#utility.yul\":9246:9385   */\n      swap1\n      pop\n        /* \"#utility.yul\":8973:9392   */\n      swap2\n      swap1\n      pop\n      jump\t// out\n        /* \"#utility.yul\":9398:9730   */\n    tag_60:\n        /* \"#utility.yul\":9519:9523   */\n      0x00\n        /* \"#utility.yul\":9557:9559   */\n      0x40\n        /* \"#utility.yul\":9546:9555   */\n      dup3\n        /* \"#utility.yul\":9542:9560   */\n      add\n        /* \"#utility.yul\":9534:9560   */\n      swap1\n      pop\n        /* \"#utility.yul\":9570:9641   */\n      tag_310\n        /* \"#utility.yul\":9638:9639   */\n      0x00\n        /* \"#utility.yul\":9627:9636   */\n      dup4\n        /* \"#utility.yul\":9623:9640   */\n      add\n        /* \"#utility.yul\":9614:9620   */\n      dup6\n        /* \"#utility.yul\":9570:9641   */\n      tag_154\n      jump\t// in\n    tag_310:\n        /* \"#utility.yul\":9651:9723   */\n      tag_311\n        /* \"#utility.yul\":9719:9721   */\n      0x20\n        /* \"#utility.yul\":9708:9717   */\n      dup4\n        /* \"#utility.yul\":9704:9722   */\n      add\n        /* \"#utility.yul\":9695:9701   */\n      dup5\n        /* \"#utility.yul\":9651:9723   */\n      tag_141\n      jump\t// in\n    tag_311:\n        /* \"#utility.yul\":9398:9730   */\n      swap4\n      swap3\n      pop\n      pop\n      pop\n      jump\t// out\n        /* \"#utility.yul\":9736:9852   */\n    tag_170:\n        /* \"#utility.yul\":9806:9827   */\n      tag_313\n        /* \"#utility.yul\":9821:9826   */\n      dup2\n        /* \"#utility.yul\":9806:9827   */\n      tag_161\n      jump\t// in\n    tag_313:\n        /* \"#utility.yul\":9799:9804   */\n      dup2\n        /* \"#utility.yul\":9796:9828   */\n      eq\n        /* \"#utility.yul\":9786:9846   */\n      tag_314\n      jumpi\n        /* \"#utility.yul\":9842:9843   */\n      0x00\n        /* \"#utility.yul\":9839:9840   */\n      dup1\n        /* \"#utility.yul\":9832:9844   */\n      revert\n        /* \"#utility.yul\":9786:9846   */\n    tag_314:\n        /* \"#utility.yul\":9736:9852   */\n      pop\n      jump\t// out\n        /* \"#utility.yul\":9858:9995   */\n    tag_171:\n        /* \"#utility.yul\":9912:9917   */\n      0x00\n        /* \"#utility.yul\":9943:9949   */\n      dup2\n        /* \"#utility.yul\":9937:9950   */\n      mload\n        /* \"#utility.yul\":9928:9950   */\n      swap1\n      pop\n        /* \"#utility.yul\":9959:9989   */\n      tag_316\n        /* \"#utility.yul\":9983:9988   */\n      dup2\n        /* \"#utility.yul\":9959:9989   */\n      tag_170\n      jump\t// in\n    tag_316:\n        /* \"#utility.yul\":9858:9995   */\n      swap3\n      swap2\n      pop\n      pop\n      jump\t// out\n        /* \"#utility.yul\":10001:10346   */\n    tag_64:\n        /* \"#utility.yul\":10068:10074   */\n      0x00\n        /* \"#utility.yul\":10117:10119   */\n      0x20\n        /* \"#utility.yul\":10105:10114   */\n      dup3\n        /* \"#utility.yul\":10096:10103   */\n      dup5\n        /* \"#utility.yul\":10092:10115   */\n      sub\n        /* \"#utility.yul\":10088:10120   */\n      slt\n        /* \"#utility.yul\":10085:10204   */\n      iszero\n      tag_318\n      jumpi\n        /* \"#utility.yul\":10123:10202   */\n      tag_319\n      tag_134\n      jump\t// in\n    tag_319:\n        /* \"#utility.yul\":10085:10204   */\n    tag_318:\n        /* \"#utility.yul\":10243:10244   */\n      0x00\n        /* \"#utility.yul\":10268:10329   */\n      tag_320\n        /* \"#utility.yul\":10321:10328   */\n      dup5\n        /* \"#utility.yul\":10312:10318   */\n      dup3\n        /* \"#utility.yul\":10301:10310   */\n      dup6\n        /* \"#utility.yul\":10297:10319   */\n      add\n        /* \"#utility.yul\":10268:10329   */\n      tag_171\n      jump\t// in\n    tag_320:\n        /* \"#utility.yul\":10258:10329   */\n      swap2\n      pop\n        /* \"#utility.yul\":10214:10339   */\n      pop\n        /* \"#utility.yul\":10001:10346   */\n      swap3\n      swap2\n      pop\n      pop\n      jump\t// out\n        /* \"#utility.yul\":10352:10526   */\n    tag_172:\n        /* \"#utility.yul\":10492:10518   */\n      0x5769746864726177207472616e73666572206661696c65640000000000000000\n        /* \"#utility.yul\":10488:10489   */\n      0x00\n        /* \"#utility.yul\":10480:10486   */\n      dup3\n        /* \"#utility.yul\":10476:10490   */\n      add\n        /* \"#utility.yul\":10469:10519   */\n      mstore\n        /* \"#utility.yul\":10352:10526   */\n      pop\n      jump\t// out\n        /* \"#utility.yul\":10532:10898   */\n    tag_173:\n        /* \"#utility.yul\":10674:10677   */\n      0x00\n        /* \"#utility.yul\":10695:10762   */\n      tag_323\n        /* \"#utility.yul\":10759:10761   */\n      0x18\n        /* \"#utility.yul\":10754:10757   */\n      dup4\n        /* \"#utility.yul\":10695:10762   */\n      tag_156\n      jump\t// in\n    tag_323:\n        /* \"#utility.yul\":10688:10762   */\n      swap2\n      pop\n        /* \"#utility.yul\":10771:10864   */\n      tag_324\n        /* \"#utility.yul\":10860:10863   */\n      dup3\n        /* \"#utility.yul\":10771:10864   */\n      tag_172\n      jump\t// in\n    tag_324:\n        /* \"#utility.yul\":10889:10891   */\n      0x20\n        /* \"#utility.yul\":10884:10887   */\n      dup3\n        /* \"#utility.yul\":10880:10892   */\n      add\n        /* \"#utility.yul\":10873:10892   */\n      swap1\n      pop\n        /* \"#utility.yul\":10532:10898   */\n      swap2\n      swap1\n      pop\n      jump\t// out\n        /* \"#utility.yul\":10904:11323   */\n    tag_67:\n        /* \"#utility.yul\":11070:11074   */\n      0x00\n        /* \"#utility.yul\":11108:11110   */\n      0x20\n        /* \"#utility.yul\":11097:11106   */\n      dup3\n        /* \"#utility.yul\":11093:11111   */\n      add\n        /* \"#utility.yul\":11085:11111   */\n      swap1\n      pop\n        /* \"#utility.yul\":11157:11166   */\n      dup2\n        /* \"#utility.yul\":11151:11155   */\n      dup2\n        /* \"#utility.yul\":11147:11167   */\n      sub\n        /* \"#utility.yul\":11143:11144   */\n      0x00\n        /* \"#utility.yul\":11132:11141   */\n      dup4\n        /* \"#utility.yul\":11128:11145   */\n      add\n        /* \"#utility.yul\":11121:11168   */\n      mstore\n        /* \"#utility.yul\":11185:11316   */\n      tag_326\n        /* \"#utility.yul\":11311:11315   */\n      dup2\n        /* \"#utility.yul\":11185:11316   */\n      tag_173\n      jump\t// in\n    tag_326:\n        /* \"#utility.yul\":11177:11316   */\n      swap1\n      pop\n        /* \"#utility.yul\":10904:11323   */\n      swap2\n      swap1\n      pop\n      jump\t// out\n        /* \"#utility.yul\":11329:11549   */\n    tag_174:\n        /* \"#utility.yul\":11469:11503   */\n      0x4974656d207072696365206d7573742062652067726561746572207468616e20\n        /* \"#utility.yul\":11465:11466   */\n      0x00\n        /* \"#utility.yul\":11457:11463   */\n      dup3\n        /* \"#utility.yul\":11453:11467   */\n      add\n        /* \"#utility.yul\":11446:11504   */\n      mstore\n        /* \"#utility.yul\":11538:11541   */\n      0x3000000000000000000000000000000000000000000000000000000000000000\n        /* \"#utility.yul\":11533:11535   */\n      0x20\n        /* \"#utility.yul\":11525:11531   */\n      dup3\n        /* \"#utility.yul\":11521:11536   */\n      add\n        /* \"#utility.yul\":11514:11542   */\n      mstore\n        /* \"#utility.yul\":11329:11549   */\n      pop\n      jump\t// out\n        /* \"#utility.yul\":11555:11921   */\n    tag_175:\n        /* \"#utility.yul\":11697:11700   */\n      0x00\n        /* \"#utility.yul\":11718:11785   */\n      tag_329\n        /* \"#utility.yul\":11782:11784   */\n      0x21\n        /* \"#utility.yul\":11777:11780   */\n      dup4\n        /* \"#utility.yul\":11718:11785   */\n      tag_156\n      jump\t// in\n    tag_329:\n        /* \"#utility.yul\":11711:11785   */\n      swap2\n      pop\n        /* \"#utility.yul\":11794:11887   */\n      tag_330\n        /* \"#utility.yul\":11883:11886   */\n      dup3\n        /* \"#utility.yul\":11794:11887   */\n      tag_174\n      jump\t// in\n    tag_330:\n        /* \"#utility.yul\":11912:11914   */\n      0x40\n        /* \"#utility.yul\":11907:11910   */\n      dup3\n        /* \"#utility.yul\":11903:11915   */\n      add\n        /* \"#utility.yul\":11896:11915   */\n      swap1\n      pop\n        /* \"#utility.yul\":11555:11921   */\n      swap2\n      swap1\n      pop\n      jump\t// out\n        /* \"#utility.yul\":11927:12346   */\n    tag_72:\n        /* \"#utility.yul\":12093:12097   */\n      0x00\n        /* \"#utility.yul\":12131:12133   */\n      0x20\n        /* \"#utility.yul\":12120:12129   */\n      dup3\n        /* \"#utility.yul\":12116:12134   */\n      add\n        /* \"#utility.yul\":12108:12134   */\n      swap1\n      pop\n        /* \"#utility.yul\":12180:12189   */\n      dup2\n        /* \"#utility.yul\":12174:12178   */\n      dup2\n        /* \"#utility.yul\":12170:12190   */\n      sub\n        /* \"#utility.yul\":12166:12167   */\n      0x00\n        /* \"#utility.yul\":12155:12164   */\n      dup4\n        /* \"#utility.yul\":12151:12168   */\n      add\n        /* \"#utility.yul\":12144:12191   */\n      mstore\n        /* \"#utility.yul\":12208:12339   */\n      tag_332\n        /* \"#utility.yul\":12334:12338   */\n      dup2\n        /* \"#utility.yul\":12208:12339   */\n      tag_175\n      jump\t// in\n    tag_332:\n        /* \"#utility.yul\":12200:12339   */\n      swap1\n      pop\n        /* \"#utility.yul\":11927:12346   */\n      swap2\n      swap1\n      pop\n      jump\t// out\n        /* \"#utility.yul\":12352:12532   */\n    tag_176:\n        /* \"#utility.yul\":12400:12477   */\n      0x4e487b7100000000000000000000000000000000000000000000000000000000\n        /* \"#utility.yul\":12397:12398   */\n      0x00\n        /* \"#utility.yul\":12390:12478   */\n      mstore\n        /* \"#utility.yul\":12497:12501   */\n      0x11\n        /* \"#utility.yul\":12494:12495   */\n      0x04\n        /* \"#utility.yul\":12487:12502   */\n      mstore\n        /* \"#utility.yul\":12521:12525   */\n      0x24\n        /* \"#utility.yul\":12518:12519   */\n      0x00\n        /* \"#utility.yul\":12511:12526   */\n      revert\n        /* \"#utility.yul\":12538:12771   */\n    tag_74:\n        /* \"#utility.yul\":12577:12580   */\n      0x00\n        /* \"#utility.yul\":12600:12624   */\n      tag_335\n        /* \"#utility.yul\":12618:12623   */\n      dup3\n        /* \"#utility.yul\":12600:12624   */\n      tag_140\n      jump\t// in\n    tag_335:\n        /* \"#utility.yul\":12591:12624   */\n      swap2\n      pop\n        /* \"#utility.yul\":12646:12712   */\n      0xffffffffffffffffffffffffffffffffffffffffffffffffffffffffffffffff\n        /* \"#utility.yul\":12639:12644   */\n      dup3\n        /* \"#utility.yul\":12636:12713   */\n      sub\n        /* \"#utility.yul\":12633:12736   */\n      tag_336\n      jumpi\n        /* \"#utility.yul\":12716:12734   */\n      tag_337\n      tag_176\n      jump\t// in\n    tag_337:\n        /* \"#utility.yul\":12633:12736   */\n    tag_336:\n        /* \"#utility.yul\":12763:12764   */\n      0x01\n        /* \"#utility.yul\":12756:12761   */\n      dup3\n        /* \"#utility.yul\":12752:12765   */\n      add\n        /* \"#utility.yul\":12745:12765   */\n      swap1\n      pop\n        /* \"#utility.yul\":12538:12771   */\n      swap2\n      swap1\n      pop\n      jump\t// out\n        /* \"#utility.yul\":12777:12957   */\n    tag_177:\n        /* \"#utility.yul\":12825:12902   */\n      0x4e487b7100000000000000000000000000000000000000000000000000000000\n        /* \"#utility.yul\":12822:12823   */\n      0x00\n        /* \"#utility.yul\":12815:12903   */\n      mstore\n        /* \"#utility.yul\":12922:12926   */\n      0x22\n        /* \"#utility.yul\":12919:12920   */\n      0x04\n        /* \"#utility.yul\":12912:12927   */\n      mstore\n        /* \"#utility.yul\":12946:12950   */\n      0x24\n        /* \"#utility.yul\":12943:12944   */\n      0x00\n        /* \"#utility.yul\":12936:12951   */\n      revert\n        /* \"#utility.yul\":12963:13283   */\n    tag_87:\n        /* \"#utility.yul\":13007:13013   */\n      0x00\n        /* \"#utility.yul\":13044:13045   */\n      0x02\n        /* \"#utility.yul\":13038:13042   */\n      dup3\n        /* \"#utility.yul\":13034:13046   */\n      div\n        /* \"#utility.yul\":13024:13046   */\n      swap1\n      pop\n        /* \"#utility.yul\":13091:13092   */\n      0x01\n        /* \"#utility.yul\":13085:13089   */\n      dup3\n        /* \"#utility.yul\":13081:13093   */\n      and\n        /* \"#utility.yul\":13112:13130   */\n      dup1\n        /* \"#utility.yul\":13102:13183   */\n      tag_340\n      jumpi\n        /* \"#utility.yul\":13168:13172   */\n      0x7f\n        /* \"#utility.yul\":13160:13166   */\n      dup3\n        /* \"#utility.yul\":13156:13173   */\n      and\n        /* \"#utility.yul\":13146:13173   */\n      swap2\n      pop\n        /* \"#utility.yul\":13102:13183   */\n    tag_340:\n        /* \"#utility.yul\":13230:13232   */\n      0x20\n        /* \"#utility.yul\":13222:13228   */\n      dup3\n        /* \"#utility.yul\":13219:13233   */\n      lt\n        /* \"#utility.yul\":13199:13217   */\n      dup2\n        /* \"#utility.yul\":13196:13234   */\n      sub\n        /* \"#utility.yul\":13193:13277   */\n      tag_341\n      jumpi\n        /* \"#utility.yul\":13249:13267   */\n      tag_342\n      tag_177\n      jump\t// in\n    tag_342:\n        /* \"#utility.yul\":13193:13277   */\n    tag_341:\n        /* \"#utility.yul\":13014:13283   */\n      pop\n        /* \"#utility.yul\":12963:13283   */\n      swap2\n      swap1\n      pop\n      jump\t// out\n        /* \"#utility.yul\":13289:13430   */\n    tag_178:\n        /* \"#utility.yul\":13338:13342   */\n      0x00\n        /* \"#utility.yul\":13361:13364   */\n      dup2\n        /* \"#utility.yul\":13353:13364   */\n      swap1\n      pop\n        /* \"#utility.yul\":13384:13387   */\n      dup2\n        /* \"#utility.yul\":13381:13382   */\n      0x00\n        /* \"#utility.yul\":13374:13388   */\n      mstore\n        /* \"#utility.yul\":13418:13422   */\n      0x20\n        /* \"#utility.yul\":13415:13416   */\n      0x00\n        /* \"#utility.yul\":13405:13423   */\n      keccak256\n        /* \"#utility.yul\":13397:13423   */\n      swap1\n      pop\n        /* \"#utility.yul\":13289:13430   */\n      swap2\n      swap1\n      pop\n      jump\t// out\n        /* \"#utility.yul\":13436:13529   */\n    tag_179:\n        /* \"#utility.yul\":13473:13479   */\n      0x00\n        /* \"#utility.yul\":13520:13522   */\n      0x20\n        /* \"#utility.yul\":13515:13517   */\n      0x1f\n        /* \"#utility.yul\":13508:13513   */\n      dup4\n        /* \"#utility.yul\":13504:13518   */\n      add\n        /* \"#utility.yul\":13500:13523   */\n      div\n        /* \"#utility.yul\":13490:13523   */\n      swap1\n      pop\n        /* \"#utility.yul\":13436:13529   */\n      swap2\n      swap1\n      pop\n      jump\t// out\n        /* \"#utility.yul\":13535:13642   */\n    tag_180:\n        /* \"#utility.yul\":13579:13587   */\n      0x00\n        /* \"#utility.yul\":13629:13634   */\n      dup3\n        /* \"#utility.yul\":13623:13627   */\n      dup3\n        /* \"#utility.yul\":13619:13635   */\n      shl\n        /* \"#utility.yul\":13598:13635   */\n      swap1\n      pop\n        /* \"#utility.yul\":13535:13642   */\n      swap3\n      swap2\n      pop\n      pop\n      jump\t// out\n        /* \"#utility.yul\":13648:14041   */\n    tag_181:\n        /* \"#utility.yul\":13717:13723   */\n      0x00\n        /* \"#utility.yul\":13767:13768   */\n      0x08\n        /* \"#utility.yul\":13755:13765   */\n      dup4\n        /* \"#utility.yul\":13751:13769   */\n      mul\n        /* \"#utility.yul\":13790:13887   */\n      tag_347\n        /* \"#utility.yul\":13820:13886   */\n      0xffffffffffffffffffffffffffffffffffffffffffffffffffffffffffffffff\n        /* \"#utility.yul\":13809:13818   */\n      dup3\n        /* \"#utility.yul\":13790:13887   */\n      tag_180\n      jump\t// in\n    tag_347:\n        /* \"#utility.yul\":13908:13947   */\n      tag_348\n        /* \"#utility.yul\":13938:13946   */\n      dup7\n        /* \"#utility.yul\":13927:13936   */\n      dup4\n        /* \"#utility.yul\":13908:13947   */\n      tag_180\n      jump\t// in\n    tag_348:\n        /* \"#utility.yul\":13896:13947   */\n      swap6\n      pop\n        /* \"#utility.yul\":13980:13984   */\n      dup1\n        /* \"#utility.yul\":13976:13985   */\n      not\n        /* \"#utility.yul\":13969:13974   */\n      dup5\n        /* \"#utility.yul\":13965:13986   */\n      and\n        /* \"#utility.yul\":13956:13986   */\n      swap4\n      pop\n        /* \"#utility.yul\":14029:14033   */\n      dup1\n        /* \"#utility.yul\":14019:14027   */\n      dup7\n        /* \"#utility.yul\":14015:14034   */\n      and\n        /* \"#utility.yul\":14008:14013   */\n      dup5\n        /* \"#utility.yul\":14005:14035   */\n      or\n        /* \"#utility.yul\":13995:14035   */\n      swap3\n      pop\n        /* \"#utility.yul\":13724:14041   */\n      pop\n      pop\n        /* \"#utility.yul\":13648:14041   */\n      swap4\n      swap3\n      pop\n      pop\n      pop\n      jump\t// out\n        /* \"#utility.yul\":14047:14189   */\n    tag_182:\n        /* \"#utility.yul\":14097:14106   */\n      0x00\n        /* \"#utility.yul\":14130:14183   */\n      tag_350\n        /* \"#utility.yul\":14148:14182   */\n      tag_351\n        /* \"#utility.yul\":14157:14181   */\n      tag_352\n        /* \"#utility.yul\":14175:14180   */\n      dup5\n        /* \"#utility.yul\":14157:14181   */\n      tag_140\n      jump\t// in\n    tag_352:\n        /* \"#utility.yul\":14148:14182   */\n      tag_163\n      jump\t// in\n    tag_351:\n        /* \"#utility.yul\":14130:14183   */\n      tag_140\n      jump\t// in\n    tag_350:\n        /* \"#utility.yul\":14117:14183   */\n      swap1\n      pop\n        /* \"#utility.yul\":14047:14189   */\n      swap2\n      swap1\n      pop\n      jump\t// out\n        /* \"#utility.yul\":14195:14270   */\n    tag_183:\n        /* \"#utility.yul\":14238:14241   */\n      0x00\n        /* \"#utility.yul\":14259:14264   */\n      dup2\n        /* \"#utility.yul\":14252:14264   */\n      swap1\n      pop\n        /* \"#utility.yul\":14195:14270   */\n      swap2\n      swap1\n      pop\n      jump\t// out\n        /* \"#utility.yul\":14276:14545   */\n    tag_184:\n        /* \"#utility.yul\":14386:14425   */\n      tag_355\n        /* \"#utility.yul\":14417:14424   */\n      dup4\n        /* \"#utility.yul\":14386:14425   */\n      tag_182\n      jump\t// in\n    tag_355:\n        /* \"#utility.yul\":14447:14538   */\n      tag_356\n        /* \"#utility.yul\":14496:14537   */\n      tag_357\n        /* \"#utility.yul\":14520:14536   */\n      dup3\n        /* \"#utility.yul\":14496:14537   */\n      tag_183\n      jump\t// in\n    tag_357:\n        /* \"#utility.yul\":14488:14494   */\n      dup5\n        /* \"#utility.yul\":14481:14485   */\n      dup5\n        /* \"#utility.yul\":14475:14486   */\n      sload\n        /* \"#utility.yul\":14447:14538   */\n      tag_181\n      jump\t// in\n    tag_356:\n        /* \"#utility.yul\":14441:14445   */\n      dup3\n        /* \"#utility.yul\":14434:14539   */\n      sstore\n        /* \"#utility.yul\":14352:14545   */\n      pop\n        /* \"#utility.yul\":14276:14545   */\n      pop\n      pop\n      pop\n      jump\t// out\n        /* \"#utility.yul\":14551:14624   */\n    tag_185:\n        /* \"#utility.yul\":14596:14599   */\n      0x00\n        /* \"#utility.yul\":14551:14624   */\n      swap1\n      jump\t// out\n        /* \"#utility.yul\":14630:14819   */\n    tag_186:\n        /* \"#utility.yul\":14707:14739   */\n      tag_360\n      tag_185\n      jump\t// in\n    tag_360:\n        /* \"#utility.yul\":14748:14813   */\n      tag_361\n        /* \"#utility.yul\":14806:14812   */\n      dup2\n        /* \"#utility.yul\":14798:14804   */\n      dup5\n        /* \"#utility.yul\":14792:14796   */\n      dup5\n        /* \"#utility.yul\":14748:14813   */\n      tag_184\n      jump\t// in\n    tag_361:\n        /* \"#utility.yul\":14683:14819   */\n      pop\n        /* \"#utility.yul\":14630:14819   */\n      pop\n      pop\n      jump\t// out\n        /* \"#utility.yul\":14825:15011   */\n    tag_187:\n        /* \"#utility.yul\":14885:15005   */\n    tag_363:\n        /* \"#utility.yul\":14902:14905   */\n      dup2\n        /* \"#utility.yul\":14895:14900   */\n      dup2\n        /* \"#utility.yul\":14892:14906   */\n      lt\n        /* \"#utility.yul\":14885:15005   */\n      iszero\n      tag_365\n      jumpi\n        /* \"#utility.yul\":14956:14995   */\n      tag_366\n        /* \"#utility.yul\":14993:14994   */\n      0x00\n        /* \"#utility.yul\":14986:14991   */\n      dup3\n        /* \"#utility.yul\":14956:14995   */\n      tag_186\n      jump\t// in\n    tag_366:\n        /* \"#utility.yul\":14929:14930   */\n      0x01\n        /* \"#utility.yul\":14922:14927   */\n      dup2\n        /* \"#utility.yul\":14918:14931   */\n      add\n        /* \"#utility.yul\":14909:14931   */\n      swap1\n      pop\n        /* \"#utility.yul\":14885:15005   */\n      jump(tag_363)\n    tag_365:\n        /* \"#utility.yul\":14825:15011   */\n      pop\n      pop\n      jump\t// out\n        /* \"#utility.yul\":15017:15560   */\n    tag_188:\n        /* \"#utility.yul\":15118:15120   */\n      0x1f\n        /* \"#utility.yul\":15113:15116   */\n      dup3\n        /* \"#utility.yul\":15110:15121   */\n      gt\n        /* \"#utility.yul\":15107:15553   */\n      iszero\n      tag_368\n      jumpi\n        /* \"#utility.yul\":15152:15190   */\n      tag_369\n        /* \"#utility.yul\":15184:15189   */\n      dup2\n        /* \"#utility.yul\":15152:15190   */\n      tag_178\n      jump\t// in\n    tag_369:\n        /* \"#utility.yul\":15236:15265   */\n      tag_370\n        /* \"#utility.yul\":15254:15264   */\n      dup5\n        /* \"#utility.yul\":15236:15265   */\n      tag_179\n      jump\t// in\n    tag_370:\n        /* \"#utility.yul\":15226:15234   */\n      dup2\n        /* \"#utility.yul\":15222:15266   */\n      add\n        /* \"#utility.yul\":15419:15421   */\n      0x20\n        /* \"#utility.yul\":15407:15417   */\n      dup6\n        /* \"#utility.yul\":15404:15422   */\n      lt\n        /* \"#utility.yul\":15401:15450   */\n      iszero\n      tag_371\n      jumpi\n        /* \"#utility.yul\":15440:15448   */\n      dup2\n        /* \"#utility.yul\":15425:15448   */\n      swap1\n      pop\n        /* \"#utility.yul\":15401:15450   */\n    tag_371:\n        /* \"#utility.yul\":15463:15543   */\n      tag_372\n        /* \"#utility.yul\":15519:15541   */\n      tag_373\n        /* \"#utility.yul\":15537:15540   */\n      dup6\n        /* \"#utility.yul\":15519:15541   */\n      tag_179\n      jump\t// in\n    tag_373:\n        /* \"#utility.yul\":15509:15517   */\n      dup4\n        /* \"#utility.yul\":15505:15542   */\n      add\n        /* \"#utility.yul\":15492:15503   */\n      dup3\n        /* \"#utility.yul\":15463:15543   */\n      tag_187\n      jump\t// in\n    tag_372:\n        /* \"#utility.yul\":15122:15553   */\n      pop\n      pop\n        /* \"#utility.yul\":15107:15553   */\n    tag_368:\n        /* \"#utility.yul\":15017:15560   */\n      pop\n      pop\n      pop\n      jump\t// out\n        /* \"#utility.yul\":15566:15683   */\n    tag_189:\n        /* \"#utility.yul\":15620:15628   */\n      0x00\n        /* \"#utility.yul\":15670:15675   */\n      dup3\n        /* \"#utility.yul\":15664:15668   */\n      dup3\n        /* \"#utility.yul\":15660:15676   */\n      shr\n        /* \"#utility.yul\":15639:15676   */\n      swap1\n      pop\n        /* \"#utility.yul\":15566:15683   */\n      swap3\n      swap2\n      pop\n      pop\n      jump\t// out\n        /* \"#utility.yul\":15689:15858   */\n    tag_190:\n        /* \"#utility.yul\":15733:15739   */\n      0x00\n        /* \"#utility.yul\":15766:15817   */\n      tag_376\n        /* \"#utility.yul\":15814:15815   */\n      0x00\n        /* \"#utility.yul\":15810:15816   */\n      not\n        /* \"#utility.yul\":15802:15807   */\n      dup5\n        /* \"#utility.yul\":15799:15800   */\n      0x08\n        /* \"#utility.yul\":15795:15808   */\n      mul\n        /* \"#utility.yul\":15766:15817   */\n      tag_189\n      jump\t// in\n    tag_376:\n        /* \"#utility.yul\":15762:15818   */\n      not\n        /* \"#utility.yul\":15847:15851   */\n      dup1\n        /* \"#utility.yul\":15841:15845   */\n      dup4\n        /* \"#utility.yul\":15837:15852   */\n      and\n        /* \"#utility.yul\":15827:15852   */\n      swap2\n      pop\n        /* \"#utility.yul\":15740:15858   */\n      pop\n        /* \"#utility.yul\":15689:15858   */\n      swap3\n      swap2\n      pop\n      pop\n      jump\t// out\n        /* \"#utility.yul\":15863:16158   */\n    tag_191:\n        /* \"#utility.yul\":15939:15943   */\n      0x00\n        /* \"#utility.yul\":16085:16114   */\n      tag_378\n        /* \"#utility.yul\":16110:16113   */\n      dup4\n        /* \"#utility.yul\":16104:16108   */\n      dup4\n        /* \"#utility.yul\":16085:16114   */\n      tag_190\n      jump\t// in\n    tag_378:\n        /* \"#utility.yul\":16077:16114   */\n      swap2\n      pop\n        /* \"#utility.yul\":16147:16150   */\n      dup3\n        /* \"#utility.yul\":16144:16145   */\n      0x02\n        /* \"#utility.yul\":16140:16151   */\n      mul\n        /* \"#utility.yul\":16134:16138   */\n      dup3\n        /* \"#utility.yul\":16131:16152   */\n      or\n        /* \"#utility.yul\":16123:16152   */\n      swap1\n      pop\n        /* \"#utility.yul\":15863:16158   */\n      swap3\n      swap2\n      pop\n      pop\n      jump\t// out\n        /* \"#utility.yul\":16163:17558   */\n    tag_76:\n        /* \"#utility.yul\":16280:16317   */\n      tag_380\n        /* \"#utility.yul\":16313:16316   */\n      dup3\n        /* \"#utility.yul\":16280:16317   */\n      tag_155\n      jump\t// in\n    tag_380:\n        /* \"#utility.yul\":16382:16400   */\n      0xffffffffffffffff\n        /* \"#utility.yul\":16374:16380   */\n      dup2\n        /* \"#utility.yul\":16371:16401   */\n      gt\n        /* \"#utility.yul\":16368:16424   */\n      iszero\n      tag_381\n      jumpi\n        /* \"#utility.yul\":16404:16422   */\n      tag_382\n      tag_145\n      jump\t// in\n    tag_382:\n        /* \"#utility.yul\":16368:16424   */\n    tag_381:\n        /* \"#utility.yul\":16448:16486   */\n      tag_383\n        /* \"#utility.yul\":16480:16484   */\n      dup3\n        /* \"#utility.yul\":16474:16485   */\n      sload\n        /* \"#utility.yul\":16448:16486   */\n      tag_87\n      jump\t// in\n    tag_383:\n        /* \"#utility.yul\":16533:16600   */\n      tag_384\n        /* \"#utility.yul\":16593:16599   */\n      dup3\n        /* \"#utility.yul\":16585:16591   */\n      dup3\n        /* \"#utility.yul\":16579:16583   */\n      dup6\n        /* \"#utility.yul\":16533:16600   */\n      tag_188\n      jump\t// in\n    tag_384:\n        /* \"#utility.yul\":16627:16628   */\n      0x00\n        /* \"#utility.yul\":16651:16655   */\n      0x20\n        /* \"#utility.yul\":16638:16655   */\n      swap1\n      pop\n        /* \"#utility.yul\":16683:16685   */\n      0x1f\n        /* \"#utility.yul\":16675:16681   */\n      dup4\n        /* \"#utility.yul\":16672:16686   */\n      gt\n        /* \"#utility.yul\":16700:16701   */\n      0x01\n        /* \"#utility.yul\":16695:17313   */\n      dup2\n      eq\n      tag_386\n      jumpi\n        /* \"#utility.yul\":17357:17358   */\n      0x00\n        /* \"#utility.yul\":17374:17380   */\n      dup5\n        /* \"#utility.yul\":17371:17448   */\n      iszero\n      tag_387\n      jumpi\n        /* \"#utility.yul\":17423:17432   */\n      dup3\n        /* \"#utility.yul\":17418:17421   */\n      dup8\n        /* \"#utility.yul\":17414:17433   */\n      add\n        /* \"#utility.yul\":17408:17434   */\n      mload\n        /* \"#utility.yul\":17399:17434   */\n      swap1\n      pop\n        /* \"#utility.yul\":17371:17448   */\n    tag_387:\n        /* \"#utility.yul\":17474:17541   */\n      tag_388\n        /* \"#utility.yul\":17534:17540   */\n      dup6\n        /* \"#utility.yul\":17527:17532   */\n      dup3\n        /* \"#utility.yul\":17474:17541   */\n      tag_191\n      jump\t// in\n    tag_388:\n        /* \"#utility.yul\":17468:17472   */\n      dup7\n        /* \"#utility.yul\":17461:17542   */\n      sstore\n        /* \"#utility.yul\":17330:17552   */\n      pop\n        /* \"#utility.yul\":16665:17552   */\n      jump(tag_385)\n        /* \"#utility.yul\":16695:17313   */\n    tag_386:\n        /* \"#utility.yul\":16747:16751   */\n      0x1f\n        /* \"#utility.yul\":16743:16752   */\n      not\n        /* \"#utility.yul\":16735:16741   */\n      dup5\n        /* \"#utility.yul\":16731:16753   */\n      and\n        /* \"#utility.yul\":16781:16818   */\n      tag_389\n        /* \"#utility.yul\":16813:16817   */\n      dup7\n        /* \"#utility.yul\":16781:16818   */\n      tag_178\n      jump\t// in\n    tag_389:\n        /* \"#utility.yul\":16840:16841   */\n      0x00\n        /* \"#utility.yul\":16854:17062   */\n    tag_390:\n        /* \"#utility.yul\":16868:16875   */\n      dup3\n        /* \"#utility.yul\":16865:16866   */\n      dup2\n        /* \"#utility.yul\":16862:16876   */\n      lt\n        /* \"#utility.yul\":16854:17062   */\n      iszero\n      tag_392\n      jumpi\n        /* \"#utility.yul\":16947:16956   */\n      dup5\n        /* \"#utility.yul\":16942:16945   */\n      dup10\n        /* \"#utility.yul\":16938:16957   */\n      add\n        /* \"#utility.yul\":16932:16958   */\n      mload\n        /* \"#utility.yul\":16924:16930   */\n      dup3\n        /* \"#utility.yul\":16917:16959   */\n      sstore\n        /* \"#utility.yul\":16998:16999   */\n      0x01\n        /* \"#utility.yul\":16990:16996   */\n      dup3\n        /* \"#utility.yul\":16986:17000   */\n      add\n        /* \"#utility.yul\":16976:17000   */\n      swap2\n      pop\n        /* \"#utility.yul\":17045:17047   */\n      0x20\n        /* \"#utility.yul\":17034:17043   */\n      dup6\n        /* \"#utility.yul\":17030:17048   */\n      add\n        /* \"#utility.yul\":17017:17048   */\n      swap5\n      pop\n        /* \"#utility.yul\":16891:16895   */\n      0x20\n        /* \"#utility.yul\":16888:16889   */\n      dup2\n        /* \"#utility.yul\":16884:16896   */\n      add\n        /* \"#utility.yul\":16879:16896   */\n      swap1\n      pop\n        /* \"#utility.yul\":16854:17062   */\n      jump(tag_390)\n    tag_392:\n        /* \"#utility.yul\":17090:17096   */\n      dup7\n        /* \"#utility.yul\":17081:17088   */\n      dup4\n        /* \"#utility.yul\":17078:17097   */\n      lt\n        /* \"#utility.yul\":17075:17254   */\n      iszero\n      tag_393\n      jumpi\n        /* \"#utility.yul\":17148:17157   */\n      dup5\n        /* \"#utility.yul\":17143:17146   */\n      dup10\n        /* \"#utility.yul\":17139:17158   */\n      add\n        /* \"#utility.yul\":17133:17159   */\n      mload\n        /* \"#utility.yul\":17191:17239   */\n      tag_394\n        /* \"#utility.yul\":17233:17237   */\n      0x1f\n        /* \"#utility.yul\":17225:17231   */\n      dup10\n        /* \"#utility.yul\":17221:17238   */\n      and\n        /* \"#utility.yul\":17210:17219   */\n      dup3\n        /* \"#utility.yul\":17191:17239   */\n      tag_190\n      jump\t// in\n    tag_394:\n        /* \"#utility.yul\":17183:17189   */\n      dup4\n        /* \"#utility.yul\":17176:17240   */\n      sstore\n        /* \"#utility.yul\":17098:17254   */\n      pop\n        /* \"#utility.yul\":17075:17254   */\n    tag_393:\n        /* \"#utility.yul\":17300:17301   */\n      0x01\n        /* \"#utility.yul\":17296:17297   */\n      0x02\n        /* \"#utility.yul\":17288:17294   */\n      dup9\n        /* \"#utility.yul\":17284:17298   */\n      mul\n        /* \"#utility.yul\":17280:17302   */\n      add\n        /* \"#utility.yul\":17274:17278   */\n      dup9\n        /* \"#utility.yul\":17267:17303   */\n      sstore\n        /* \"#utility.yul\":16702:17313   */\n      pop\n      pop\n      pop\n        /* \"#utility.yul\":16665:17552   */\n    tag_385:\n      pop\n        /* \"#utility.yul\":16255:17558   */\n      pop\n      pop\n      pop\n        /* \"#utility.yul\":16163:17558   */\n      pop\n      pop\n      jump\t// out\n        /* \"#utility.yul\":17564:18208   */\n    tag_78:\n        /* \"#utility.yul\":17761:17765   */\n      0x00\n        /* \"#utility.yul\":17799:17802   */\n      0x80\n        /* \"#utility.yul\":17788:17797   */\n      dup3\n        /* \"#utility.yul\":17784:17803   */\n      add\n        /* \"#utility.yul\":17776:17803   */\n      swap1\n      pop\n        /* \"#utility.yul\":17813:17884   */\n      tag_396\n        /* \"#utility.yul\":17881:17882   */\n      0x00\n        /* \"#utility.yul\":17870:17879   */\n      dup4\n        /* \"#utility.yul\":17866:17883   */\n      add\n        /* \"#utility.yul\":17857:17863   */\n      dup8\n        /* \"#utility.yul\":17813:17884   */\n      tag_141\n      jump\t// in\n    tag_396:\n        /* \"#utility.yul\":17931:17940   */\n      dup2\n        /* \"#utility.yul\":17925:17929   */\n      dup2\n        /* \"#utility.yul\":17921:17941   */\n      sub\n        /* \"#utility.yul\":17916:17918   */\n      0x20\n        /* \"#utility.yul\":17905:17914   */\n      dup4\n        /* \"#utility.yul\":17901:17919   */\n      add\n        /* \"#utility.yul\":17894:17942   */\n      mstore\n        /* \"#utility.yul\":17959:18037   */\n      tag_397\n        /* \"#utility.yul\":18032:18036   */\n      dup2\n        /* \"#utility.yul\":18023:18029   */\n      dup7\n        /* \"#utility.yul\":17959:18037   */\n      tag_158\n      jump\t// in\n    tag_397:\n        /* \"#utility.yul\":17951:18037   */\n      swap1\n      pop\n        /* \"#utility.yul\":18047:18119   */\n      tag_398\n        /* \"#utility.yul\":18115:18117   */\n      0x40\n        /* \"#utility.yul\":18104:18113   */\n      dup4\n        /* \"#utility.yul\":18100:18118   */\n      add\n        /* \"#utility.yul\":18091:18097   */\n      dup6\n        /* \"#utility.yul\":18047:18119   */\n      tag_141\n      jump\t// in\n    tag_398:\n        /* \"#utility.yul\":18129:18201   */\n      tag_399\n        /* \"#utility.yul\":18197:18199   */\n      0x60\n        /* \"#utility.yul\":18186:18195   */\n      dup4\n        /* \"#utility.yul\":18182:18200   */\n      add\n        /* \"#utility.yul\":18173:18179   */\n      dup5\n        /* \"#utility.yul\":18129:18201   */\n      tag_154\n      jump\t// in\n    tag_399:\n        /* \"#utility.yul\":17564:18208   */\n      swap6\n      swap5\n      pop\n      pop\n      pop\n      pop\n      pop\n      jump\t// out\n        /* \"#utility.yul\":18214:18378   */\n    tag_192:\n        /* \"#utility.yul\":18354:18370   */\n      0x4974656d206e6f7420666f756e64000000000000000000000000000000000000\n        /* \"#utility.yul\":18350:18351   */\n      0x00\n        /* \"#utility.yul\":18342:18348   */\n      dup3\n        /* \"#utility.yul\":18338:18352   */\n      add\n        /* \"#utility.yul\":18331:18371   */\n      mstore\n        /* \"#utility.yul\":18214:18378   */\n      pop\n      jump\t// out\n        /* \"#utility.yul\":18384:18750   */\n    tag_193:\n        /* \"#utility.yul\":18526:18529   */\n      0x00\n        /* \"#utility.yul\":18547:18614   */\n      tag_402\n        /* \"#utility.yul\":18611:18613   */\n      0x0e\n        /* \"#utility.yul\":18606:18609   */\n      dup4\n        /* \"#utility.yul\":18547:18614   */\n      tag_156\n      jump\t// in\n    tag_402:\n        /* \"#utility.yul\":18540:18614   */\n      swap2\n      pop\n        /* \"#utility.yul\":18623:18716   */\n      tag_403\n        /* \"#utility.yul\":18712:18715   */\n      dup3\n        /* \"#utility.yul\":18623:18716   */\n      tag_192\n      jump\t// in\n    tag_403:\n        /* \"#utility.yul\":18741:18743   */\n      0x20\n        /* \"#utility.yul\":18736:18739   */\n      dup3\n        /* \"#utility.yul\":18732:18744   */\n      add\n        /* \"#utility.yul\":18725:18744   */\n      swap1\n      pop\n        /* \"#utility.yul\":18384:18750   */\n      swap2\n      swap1\n      pop\n      jump\t// out\n        /* \"#utility.yul\":18756:19175   */\n    tag_97:\n        /* \"#utility.yul\":18922:18926   */\n      0x00\n        /* \"#utility.yul\":18960:18962   */\n      0x20\n        /* \"#utility.yul\":18949:18958   */\n      dup3\n        /* \"#utility.yul\":18945:18963   */\n      add\n        /* \"#utility.yul\":18937:18963   */\n      swap1\n      pop\n        /* \"#utility.yul\":19009:19018   */\n      dup2\n        /* \"#utility.yul\":19003:19007   */\n      dup2\n        /* \"#utility.yul\":18999:19019   */\n      sub\n        /* \"#utility.yul\":18995:18996   */\n      0x00\n        /* \"#utility.yul\":18984:18993   */\n      dup4\n        /* \"#utility.yul\":18980:18997   */\n      add\n        /* \"#utility.yul\":18973:19020   */\n      mstore\n        /* \"#utility.yul\":19037:19168   */\n      tag_405\n        /* \"#utility.yul\":19163:19167   */\n      dup2\n        /* \"#utility.yul\":19037:19168   */\n      tag_193\n      jump\t// in\n    tag_405:\n        /* \"#utility.yul\":19029:19168   */\n      swap1\n      pop\n        /* \"#utility.yul\":18756:19175   */\n      swap2\n      swap1\n      pop\n      jump\t// out\n        /* \"#utility.yul\":19181:19348   */\n    tag_194:\n        /* \"#utility.yul\":19321:19340   */\n      0x4974656d20616c726561647920736f6c64000000000000000000000000000000\n        /* \"#utility.yul\":19317:19318   */\n      0x00\n        /* \"#utility.yul\":19309:19315   */\n      dup3\n        /* \"#utility.yul\":19305:19319   */\n      add\n        /* \"#utility.yul\":19298:19341   */\n      mstore\n        /* \"#utility.yul\":19181:19348   */\n      pop\n      jump\t// out\n        /* \"#utility.yul\":19354:19720   */\n    tag_195:\n        /* \"#utility.yul\":19496:19499   */\n      0x00\n        /* \"#utility.yul\":19517:19584   */\n      tag_408\n        /* \"#utility.yul\":19581:19583   */\n      0x11\n        /* \"#utility.yul\":19576:19579   */\n      dup4\n        /* \"#utility.yul\":19517:19584   */\n      tag_156\n      jump\t// in\n    tag_408:\n        /* \"#utility.yul\":19510:19584   */\n      swap2\n      pop\n        /* \"#utility.yul\":19593:19686   */\n      tag_409\n        /* \"#utility.yul\":19682:19685   */\n      dup3\n        /* \"#utility.yul\":19593:19686   */\n      tag_194\n      jump\t// in\n    tag_409:\n        /* \"#utility.yul\":19711:19713   */\n      0x20\n        /* \"#utility.yul\":19706:19709   */\n      dup3\n        /* \"#utility.yul\":19702:19714   */\n      add\n        /* \"#utility.yul\":19695:19714   */\n      swap1\n      pop\n        /* \"#utility.yul\":19354:19720   */\n      swap2\n      swap1\n      pop\n      jump\t// out\n        /* \"#utility.yul\":19726:20145   */\n    tag_100:\n        /* \"#utility.yul\":19892:19896   */\n      0x00\n        /* \"#utility.yul\":19930:19932   */\n      0x20\n        /* \"#utility.yul\":19919:19928   */\n      dup3\n        /* \"#utility.yul\":19915:19933   */\n      add\n        /* \"#utility.yul\":19907:19933   */\n      swap1\n      pop\n        /* \"#utility.yul\":19979:19988   */\n      dup2\n        /* \"#utility.yul\":19973:19977   */\n      dup2\n        /* \"#utility.yul\":19969:19989   */\n      sub\n        /* \"#utility.yul\":19965:19966   */\n      0x00\n        /* \"#utility.yul\":19954:19963   */\n      dup4\n        /* \"#utility.yul\":19950:19967   */\n      add\n        /* \"#utility.yul\":19943:19990   */\n      mstore\n        /* \"#utility.yul\":20007:20138   */\n      tag_411\n        /* \"#utility.yul\":20133:20137   */\n      dup2\n        /* \"#utility.yul\":20007:20138   */\n      tag_195\n      jump\t// in\n    tag_411:\n        /* \"#utility.yul\":19999:20138   */\n      swap1\n      pop\n        /* \"#utility.yul\":19726:20145   */\n      swap2\n      swap1\n      pop\n      jump\t// out\n        /* \"#utility.yul\":20151:20374   */\n    tag_196:\n        /* \"#utility.yul\":20291:20325   */\n      0x4974656d206f776e65722063616e6e6f7420627579207468656972206f776e20\n        /* \"#utility.yul\":20287:20288   */\n      0x00\n        /* \"#utility.yul\":20279:20285   */\n      dup3\n        /* \"#utility.yul\":20275:20289   */\n      add\n        /* \"#utility.yul\":20268:20326   */\n      mstore\n        /* \"#utility.yul\":20360:20366   */\n      0x6974656d00000000000000000000000000000000000000000000000000000000\n        /* \"#utility.yul\":20355:20357   */\n      0x20\n        /* \"#utility.yul\":20347:20353   */\n      dup3\n        /* \"#utility.yul\":20343:20358   */\n      add\n        /* \"#utility.yul\":20336:20367   */\n      mstore\n        /* \"#utility.yul\":20151:20374   */\n      pop\n      jump\t// out\n        /* \"#utility.yul\":20380:20746   */\n    tag_197:\n        /* \"#utility.yul\":20522:20525   */\n      0x00\n        /* \"#utility.yul\":20543:20610   */\n      tag_414\n        /* \"#utility.yul\":20607:20609   */\n      0x24\n        /* \"#utility.yul\":20602:20605   */\n      dup4\n        /* \"#utility.yul\":20543:20610   */\n      tag_156\n      jump\t// in\n    tag_414:\n        /* \"#utility.yul\":20536:20610   */\n      swap2\n      pop\n        /* \"#utility.yul\":20619:20712   */\n      tag_415\n        /* \"#utility.yul\":20708:20711   */\n      dup3\n        /* \"#utility.yul\":20619:20712   */\n      tag_196\n      jump\t// in\n    tag_415:\n        /* \"#utility.yul\":20737:20739   */\n      0x40\n        /* \"#utility.yul\":20732:20735   */\n      dup3\n        /* \"#utility.yul\":20728:20740   */\n      add\n        /* \"#utility.yul\":20721:20740   */\n      swap1\n      pop\n        /* \"#utility.yul\":20380:20746   */\n      swap2\n      swap1\n      pop\n      jump\t// out\n        /* \"#utility.yul\":20752:21171   */\n    tag_103:\n        /* \"#utility.yul\":20918:20922   */\n      0x00\n        /* \"#utility.yul\":20956:20958   */\n      0x20\n        /* \"#utility.yul\":20945:20954   */\n      dup3\n        /* \"#utility.yul\":20941:20959   */\n      add\n        /* \"#utility.yul\":20933:20959   */\n      swap1\n      pop\n        /* \"#utility.yul\":21005:21014   */\n      dup2\n        /* \"#utility.yul\":20999:21003   */\n      dup2\n        /* \"#utility.yul\":20995:21015   */\n      sub\n        /* \"#utility.yul\":20991:20992   */\n      0x00\n        /* \"#utility.yul\":20980:20989   */\n      dup4\n        /* \"#utility.yul\":20976:20993   */\n      add\n        /* \"#utility.yul\":20969:21016   */\n      mstore\n        /* \"#utility.yul\":21033:21164   */\n      tag_417\n        /* \"#utility.yul\":21159:21163   */\n      dup2\n        /* \"#utility.yul\":21033:21164   */\n      tag_197\n      jump\t// in\n    tag_417:\n        /* \"#utility.yul\":21025:21164   */\n      swap1\n      pop\n        /* \"#utility.yul\":20752:21171   */\n      swap2\n      swap1\n      pop\n      jump\t// out\n        /* \"#utility.yul\":21177:21619   */\n    tag_105:\n        /* \"#utility.yul\":21326:21330   */\n      0x00\n        /* \"#utility.yul\":21364:21366   */\n      0x60\n        /* \"#utility.yul\":21353:21362   */\n      dup3\n        /* \"#utility.yul\":21349:21367   */\n      add\n        /* \"#utility.yul\":21341:21367   */\n      swap1\n      pop\n        /* \"#utility.yul\":21377:21448   */\n      tag_419\n        /* \"#utility.yul\":21445:21446   */\n      0x00\n        /* \"#utility.yul\":21434:21443   */\n      dup4\n        /* \"#utility.yul\":21430:21447   */\n      add\n        /* \"#utility.yul\":21421:21427   */\n      dup7\n        /* \"#utility.yul\":21377:21448   */\n      tag_154\n      jump\t// in\n    tag_419:\n        /* \"#utility.yul\":21458:21530   */\n      tag_420\n        /* \"#utility.yul\":21526:21528   */\n      0x20\n        /* \"#utility.yul\":21515:21524   */\n      dup4\n        /* \"#utility.yul\":21511:21529   */\n      add\n        /* \"#utility.yul\":21502:21508   */\n      dup6\n        /* \"#utility.yul\":21458:21530   */\n      tag_154\n      jump\t// in\n    tag_420:\n        /* \"#utility.yul\":21540:21612   */\n      tag_421\n        /* \"#utility.yul\":21608:21610   */\n      0x40\n        /* \"#utility.yul\":21597:21606   */\n      dup4\n        /* \"#utility.yul\":21593:21611   */\n      add\n        /* \"#utility.yul\":21584:21590   */\n      dup5\n        /* \"#utility.yul\":21540:21612   */\n      tag_141\n      jump\t// in\n    tag_421:\n        /* \"#utility.yul\":21177:21619   */\n      swap5\n      swap4\n      pop\n      pop\n      pop\n      pop\n      jump\t// out\n        /* \"#utility.yul\":21625:21796   */\n    tag_198:\n        /* \"#utility.yul\":21765:21788   */\n      0x546f6b656e207472616e73666572206661696c65640000000000000000000000\n        /* \"#utility.yul\":21761:21762   */\n      0x00\n        /* \"#utility.yul\":21753:21759   */\n      dup3\n        /* \"#utility.yul\":21749:21763   */\n      add\n        /* \"#utility.yul\":21742:21789   */\n      mstore\n        /* \"#utility.yul\":21625:21796   */\n      pop\n      jump\t// out\n        /* \"#utility.yul\":21802:22168   */\n    tag_199:\n        /* \"#utility.yul\":21944:21947   */\n      0x00\n        /* \"#utility.yul\":21965:22032   */\n      tag_424\n        /* \"#utility.yul\":22029:22031   */\n      0x15\n        /* \"#utility.yul\":22024:22027   */\n      dup4\n        /* \"#utility.yul\":21965:22032   */\n      tag_156\n      jump\t// in\n    tag_424:\n        /* \"#utility.yul\":21958:22032   */\n      swap2\n      pop\n        /* \"#utility.yul\":22041:22134   */\n      tag_425\n        /* \"#utility.yul\":22130:22133   */\n      dup3\n        /* \"#utility.yul\":22041:22134   */\n      tag_198\n      jump\t// in\n    tag_425:\n        /* \"#utility.yul\":22159:22161   */\n      0x20\n        /* \"#utility.yul\":22154:22157   */\n      dup3\n        /* \"#utility.yul\":22150:22162   */\n      add\n        /* \"#utility.yul\":22143:22162   */\n      swap1\n      pop\n        /* \"#utility.yul\":21802:22168   */\n      swap2\n      swap1\n      pop\n      jump\t// out\n        /* \"#utility.yul\":22174:22593   */\n    tag_111:\n        /* \"#utility.yul\":22340:22344   */\n      0x00\n        /* \"#utility.yul\":22378:22380   */\n      0x20\n        /* \"#utility.yul\":22367:22376   */\n      dup3\n        /* \"#utility.yul\":22363:22381   */\n      add\n        /* \"#utility.yul\":22355:22381   */\n      swap1\n      pop\n        /* \"#utility.yul\":22427:22436   */\n      dup2\n        /* \"#utility.yul\":22421:22425   */\n      dup2\n        /* \"#utility.yul\":22417:22437   */\n      sub\n        /* \"#utility.yul\":22413:22414   */\n      0x00\n        /* \"#utility.yul\":22402:22411   */\n      dup4\n        /* \"#utility.yul\":22398:22415   */\n      add\n        /* \"#utility.yul\":22391:22438   */\n      mstore\n        /* \"#utility.yul\":22455:22586   */\n      tag_427\n        /* \"#utility.yul\":22581:22585   */\n      dup2\n        /* \"#utility.yul\":22455:22586   */\n      tag_199\n      jump\t// in\n    tag_427:\n        /* \"#utility.yul\":22447:22586   */\n      swap1\n      pop\n        /* \"#utility.yul\":22174:22593   */\n      swap2\n      swap1\n      pop\n      jump\t// out\n        /* \"#utility.yul\":22599:22790   */\n    tag_113:\n        /* \"#utility.yul\":22639:22642   */\n      0x00\n        /* \"#utility.yul\":22658:22678   */\n      tag_429\n        /* \"#utility.yul\":22676:22677   */\n      dup3\n        /* \"#utility.yul\":22658:22678   */\n      tag_140\n      jump\t// in\n    tag_429:\n        /* \"#utility.yul\":22653:22678   */\n      swap2\n      pop\n        /* \"#utility.yul\":22692:22712   */\n      tag_430\n        /* \"#utility.yul\":22710:22711   */\n      dup4\n        /* \"#utility.yul\":22692:22712   */\n      tag_140\n      jump\t// in\n    tag_430:\n        /* \"#utility.yul\":22687:22712   */\n      swap3\n      pop\n        /* \"#utility.yul\":22735:22736   */\n      dup3\n        /* \"#utility.yul\":22732:22733   */\n      dup3\n        /* \"#utility.yul\":22728:22737   */\n      add\n        /* \"#utility.yul\":22721:22737   */\n      swap1\n      pop\n        /* \"#utility.yul\":22756:22759   */\n      dup1\n        /* \"#utility.yul\":22753:22754   */\n      dup3\n        /* \"#utility.yul\":22750:22760   */\n      gt\n        /* \"#utility.yul\":22747:22783   */\n      iszero\n      tag_431\n      jumpi\n        /* \"#utility.yul\":22763:22781   */\n      tag_432\n      tag_176\n      jump\t// in\n    tag_432:\n        /* \"#utility.yul\":22747:22783   */\n    tag_431:\n        /* \"#utility.yul\":22599:22790   */\n      swap3\n      swap2\n      pop\n      pop\n      jump\t// out\n        /* \"#utility.yul\":22796:22945   */\n    tag_200:\n        /* \"#utility.yul\":22845:22851   */\n      0x00\n        /* \"#utility.yul\":22879:22884   */\n      dup2\n        /* \"#utility.yul\":22873:22885   */\n      sload\n        /* \"#utility.yul\":22863:22885   */\n      swap1\n      pop\n        /* \"#utility.yul\":22905:22938   */\n      tag_434\n        /* \"#utility.yul\":22931:22937   */\n      dup2\n        /* \"#utility.yul\":22905:22938   */\n      tag_87\n      jump\t// in\n    tag_434:\n        /* \"#utility.yul\":22895:22938   */\n      swap1\n      pop\n        /* \"#utility.yul\":22796:22945   */\n      swap2\n      swap1\n      pop\n      jump\t// out\n        /* \"#utility.yul\":22951:24402   */\n    tag_115:\n        /* \"#utility.yul\":23062:23065   */\n      dup2\n        /* \"#utility.yul\":23056:23060   */\n      dup2\n        /* \"#utility.yul\":23053:23066   */\n      sub\n        /* \"#utility.yul\":23050:23076   */\n      tag_436\n      jumpi\n        /* \"#utility.yul\":23069:23074   */\n      pop\n      pop\n      jump(tag_435)\n        /* \"#utility.yul\":23050:23076   */\n    tag_436:\n        /* \"#utility.yul\":23100:23134   */\n      tag_437\n        /* \"#utility.yul\":23130:23133   */\n      dup3\n        /* \"#utility.yul\":23100:23134   */\n      tag_200\n      jump\t// in\n    tag_437:\n        /* \"#utility.yul\":23199:23217   */\n      0xffffffffffffffff\n        /* \"#utility.yul\":23191:23197   */\n      dup2\n        /* \"#utility.yul\":23188:23218   */\n      gt\n        /* \"#utility.yul\":23185:23241   */\n      iszero\n      tag_438\n      jumpi\n        /* \"#utility.yul\":23221:23239   */\n      tag_439\n      tag_145\n      jump\t// in\n    tag_439:\n        /* \"#utility.yul\":23185:23241   */\n    tag_438:\n        /* \"#utility.yul\":23265:23303   */\n      tag_440\n        /* \"#utility.yul\":23297:23301   */\n      dup3\n        /* \"#utility.yul\":23291:23302   */\n      sload\n        /* \"#utility.yul\":23265:23303   */\n      tag_87\n      jump\t// in\n    tag_440:\n        /* \"#utility.yul\":23350:23417   */\n      tag_441\n        /* \"#utility.yul\":23410:23416   */\n      dup3\n        /* \"#utility.yul\":23402:23408   */\n      dup3\n        /* \"#utility.yul\":23396:23400   */\n      dup6\n        /* \"#utility.yul\":23350:23417   */\n      tag_188\n      jump\t// in\n    tag_441:\n        /* \"#utility.yul\":23444:23445   */\n      0x00\n        /* \"#utility.yul\":23473:23475   */\n      0x1f\n        /* \"#utility.yul\":23465:23471   */\n      dup4\n        /* \"#utility.yul\":23462:23476   */\n      gt\n        /* \"#utility.yul\":23490:23491   */\n      0x01\n        /* \"#utility.yul\":23485:24157   */\n      dup2\n      eq\n      tag_443\n      jumpi\n        /* \"#utility.yul\":24201:24202   */\n      0x00\n        /* \"#utility.yul\":24218:24224   */\n      dup5\n        /* \"#utility.yul\":24215:24292   */\n      iszero\n      tag_444\n      jumpi\n        /* \"#utility.yul\":24267:24276   */\n      dup3\n        /* \"#utility.yul\":24262:24265   */\n      dup8\n        /* \"#utility.yul\":24258:24277   */\n      add\n        /* \"#utility.yul\":24252:24278   */\n      sload\n        /* \"#utility.yul\":24243:24278   */\n      swap1\n      pop\n        /* \"#utility.yul\":24215:24292   */\n    tag_444:\n        /* \"#utility.yul\":24318:24385   */\n      tag_445\n        /* \"#utility.yul\":24378:24384   */\n      dup6\n        /* \"#utility.yul\":24371:24376   */\n      dup3\n        /* \"#utility.yul\":24318:24385   */\n      tag_191\n      jump\t// in\n    tag_445:\n        /* \"#utility.yul\":24312:24316   */\n      dup7\n        /* \"#utility.yul\":24305:24386   */\n      sstore\n        /* \"#utility.yul\":24174:24396   */\n      pop\n        /* \"#utility.yul\":23455:24396   */\n      jump(tag_442)\n        /* \"#utility.yul\":23485:24157   */\n    tag_443:\n        /* \"#utility.yul\":23537:23541   */\n      0x1f\n        /* \"#utility.yul\":23533:23542   */\n      not\n        /* \"#utility.yul\":23525:23531   */\n      dup5\n        /* \"#utility.yul\":23521:23543   */\n      and\n        /* \"#utility.yul\":23563:23599   */\n      tag_446\n        /* \"#utility.yul\":23595:23598   */\n      dup8\n        /* \"#utility.yul\":23563:23599   */\n      tag_178\n      jump\t// in\n    tag_446:\n        /* \"#utility.yul\":23556:23599   */\n      swap7\n      pop\n        /* \"#utility.yul\":23626:23663   */\n      tag_447\n        /* \"#utility.yul\":23658:23662   */\n      dup7\n        /* \"#utility.yul\":23626:23663   */\n      tag_178\n      jump\t// in\n    tag_447:\n        /* \"#utility.yul\":23685:23686   */\n      0x00\n        /* \"#utility.yul\":23699:23906   */\n    tag_448:\n        /* \"#utility.yul\":23713:23720   */\n      dup3\n        /* \"#utility.yul\":23710:23711   */\n      dup2\n        /* \"#utility.yul\":23707:23721   */\n      lt\n        /* \"#utility.yul\":23699:23906   */\n      iszero\n      tag_450\n      jumpi\n        /* \"#utility.yul\":23792:23801   */\n      dup5\n        /* \"#utility.yul\":23787:23790   */\n      dup10\n        /* \"#utility.yul\":23783:23802   */\n      add\n        /* \"#utility.yul\":23777:23803   */\n      sload\n        /* \"#utility.yul\":23769:23775   */\n      dup3\n        /* \"#utility.yul\":23762:23804   */\n      sstore\n        /* \"#utility.yul\":23843:23844   */\n      0x01\n        /* \"#utility.yul\":23835:23841   */\n      dup3\n        /* \"#utility.yul\":23831:23845   */\n      add\n        /* \"#utility.yul\":23821:23845   */\n      swap2\n      pop\n        /* \"#utility.yul\":23890:23891   */\n      0x01\n        /* \"#utility.yul\":23879:23888   */\n      dup6\n        /* \"#utility.yul\":23875:23892   */\n      add\n        /* \"#utility.yul\":23862:23892   */\n      swap5\n      pop\n        /* \"#utility.yul\":23736:23740   */\n      0x20\n        /* \"#utility.yul\":23733:23734   */\n      dup2\n        /* \"#utility.yul\":23729:23741   */\n      add\n        /* \"#utility.yul\":23724:23741   */\n      swap1\n      pop\n        /* \"#utility.yul\":23699:23906   */\n      jump(tag_448)\n    tag_450:\n        /* \"#utility.yul\":23934:23940   */\n      dup7\n        /* \"#utility.yul\":23925:23932   */\n      dup4\n        /* \"#utility.yul\":23922:23941   */\n      lt\n        /* \"#utility.yul\":23919:24098   */\n      iszero\n      tag_451\n      jumpi\n        /* \"#utility.yul\":23992:24001   */\n      dup5\n        /* \"#utility.yul\":23987:23990   */\n      dup10\n        /* \"#utility.yul\":23983:24002   */\n      add\n        /* \"#utility.yul\":23977:24003   */\n      sload\n        /* \"#utility.yul\":24035:24083   */\n      tag_452\n        /* \"#utility.yul\":24077:24081   */\n      0x1f\n        /* \"#utility.yul\":24069:24075   */\n      dup10\n        /* \"#utility.yul\":24065:24082   */\n      and\n        /* \"#utility.yul\":24054:24063   */\n      dup3\n        /* \"#utility.yul\":24035:24083   */\n      tag_190\n      jump\t// in\n    tag_452:\n        /* \"#utility.yul\":24027:24033   */\n      dup4\n        /* \"#utility.yul\":24020:24084   */\n      sstore\n        /* \"#utility.yul\":23942:24098   */\n      pop\n        /* \"#utility.yul\":23919:24098   */\n    tag_451:\n        /* \"#utility.yul\":24144:24145   */\n      0x01\n        /* \"#utility.yul\":24140:24141   */\n      0x02\n        /* \"#utility.yul\":24132:24138   */\n      dup9\n        /* \"#utility.yul\":24128:24142   */\n      mul\n        /* \"#utility.yul\":24124:24146   */\n      add\n        /* \"#utility.yul\":24118:24122   */\n      dup9\n        /* \"#utility.yul\":24111:24147   */\n      sstore\n        /* \"#utility.yul\":23492:24157   */\n      pop\n      pop\n      pop\n        /* \"#utility.yul\":23455:24396   */\n    tag_442:\n      pop\n        /* \"#utility.yul\":23040:24402   */\n      pop\n      pop\n      pop\n        /* \"#utility.yul\":22951:24402   */\n      pop\n      pop\n    tag_435:\n      jump\t// out\n        /* \"#utility.yul\":24432:25263   */\n    tag_201:\n        /* \"#utility.yul\":24517:24520   */\n      0x00\n        /* \"#utility.yul\":24554:24559   */\n      dup2\n        /* \"#utility.yul\":24548:24560   */\n      sload\n        /* \"#utility.yul\":24583:24619   */\n      tag_454\n        /* \"#utility.yul\":24609:24618   */\n      dup2\n        /* \"#utility.yul\":24583:24619   */\n      tag_87\n      jump\t// in\n    tag_454:\n        /* \"#utility.yul\":24635:24706   */\n      tag_455\n        /* \"#utility.yul\":24699:24705   */\n      dup2\n        /* \"#utility.yul\":24694:24697   */\n      dup7\n        /* \"#utility.yul\":24635:24706   */\n      tag_156\n      jump\t// in\n    tag_455:\n        /* \"#utility.yul\":24628:24706   */\n      swap5\n      pop\n        /* \"#utility.yul\":24737:24738   */\n      0x01\n        /* \"#utility.yul\":24726:24735   */\n      dup3\n        /* \"#utility.yul\":24722:24739   */\n      and\n        /* \"#utility.yul\":24753:24754   */\n      0x00\n        /* \"#utility.yul\":24748:24912   */\n      dup2\n      eq\n      tag_457\n      jumpi\n        /* \"#utility.yul\":24926:24927   */\n      0x01\n        /* \"#utility.yul\":24921:25257   */\n      dup2\n      eq\n      tag_458\n      jumpi\n        /* \"#utility.yul\":24715:25257   */\n      jump(tag_456)\n        /* \"#utility.yul\":24748:24912   */\n    tag_457:\n        /* \"#utility.yul\":24832:24836   */\n      0xff\n        /* \"#utility.yul\":24828:24837   */\n      not\n        /* \"#utility.yul\":24817:24826   */\n      dup4\n        /* \"#utility.yul\":24813:24838   */\n      and\n        /* \"#utility.yul\":24808:24811   */\n      dup7\n        /* \"#utility.yul\":24801:24839   */\n      mstore\n        /* \"#utility.yul\":24892:24898   */\n      dup2\n        /* \"#utility.yul\":24885:24899   */\n      iszero\n        /* \"#utility.yul\":24878:24900   */\n      iszero\n        /* \"#utility.yul\":24872:24876   */\n      0x20\n        /* \"#utility.yul\":24868:24901   */\n      mul\n        /* \"#utility.yul\":24863:24866   */\n      dup7\n        /* \"#utility.yul\":24859:24902   */\n      add\n        /* \"#utility.yul\":24852:24902   */\n      swap4\n      pop\n        /* \"#utility.yul\":24748:24912   */\n      jump(tag_456)\n        /* \"#utility.yul\":24921:25257   */\n    tag_458:\n        /* \"#utility.yul\":24988:25026   */\n      tag_459\n        /* \"#utility.yul\":25020:25025   */\n      dup6\n        /* \"#utility.yul\":24988:25026   */\n      tag_178\n      jump\t// in\n    tag_459:\n        /* \"#utility.yul\":25048:25049   */\n      0x00\n        /* \"#utility.yul\":25062:25216   */\n    tag_460:\n        /* \"#utility.yul\":25076:25082   */\n      dup4\n        /* \"#utility.yul\":25073:25074   */\n      dup2\n        /* \"#utility.yul\":25070:25083   */\n      lt\n        /* \"#utility.yul\":25062:25216   */\n      iszero\n      tag_462\n      jumpi\n        /* \"#utility.yul\":25150:25157   */\n      dup2\n        /* \"#utility.yul\":25144:25158   */\n      sload\n        /* \"#utility.yul\":25140:25141   */\n      dup2\n        /* \"#utility.yul\":25135:25138   */\n      dup10\n        /* \"#utility.yul\":25131:25142   */\n      add\n        /* \"#utility.yul\":25124:25159   */\n      mstore\n        /* \"#utility.yul\":25200:25201   */\n      0x01\n        /* \"#utility.yul\":25191:25198   */\n      dup3\n        /* \"#utility.yul\":25187:25202   */\n      add\n        /* \"#utility.yul\":25176:25202   */\n      swap2\n      pop\n        /* \"#utility.yul\":25098:25102   */\n      0x20\n        /* \"#utility.yul\":25095:25096   */\n      dup2\n        /* \"#utility.yul\":25091:25103   */\n      add\n        /* \"#utility.yul\":25086:25103   */\n      swap1\n      pop\n        /* \"#utility.yul\":25062:25216   */\n      jump(tag_460)\n    tag_462:\n        /* \"#utility.yul\":25245:25246   */\n      dup1\n        /* \"#utility.yul\":25240:25243   */\n      dup9\n        /* \"#utility.yul\":25236:25247   */\n      add\n        /* \"#utility.yul\":25229:25247   */\n      swap6\n      pop\n        /* \"#utility.yul\":24928:25257   */\n      pop\n      pop\n        /* \"#utility.yul\":24715:25257   */\n    tag_456:\n      pop\n        /* \"#utility.yul\":24521:25263   */\n      pop\n      pop\n        /* \"#utility.yul\":24432:25263   */\n      swap3\n      swap2\n      pop\n      pop\n      jump\t// out\n        /* \"#utility.yul\":25269:25907   */\n    tag_117:\n        /* \"#utility.yul\":25463:25467   */\n      0x00\n        /* \"#utility.yul\":25501:25504   */\n      0x80\n        /* \"#utility.yul\":25490:25499   */\n      dup3\n        /* \"#utility.yul\":25486:25505   */\n      add\n        /* \"#utility.yul\":25478:25505   */\n      swap1\n      pop\n        /* \"#utility.yul\":25515:25586   */\n      tag_464\n        /* \"#utility.yul\":25583:25584   */\n      0x00\n        /* \"#utility.yul\":25572:25581   */\n      dup4\n        /* \"#utility.yul\":25568:25585   */\n      add\n        /* \"#utility.yul\":25559:25565   */\n      dup8\n        /* \"#utility.yul\":25515:25586   */\n      tag_141\n      jump\t// in\n    tag_464:\n        /* \"#utility.yul\":25633:25642   */\n      dup2\n        /* \"#utility.yul\":25627:25631   */\n      dup2\n        /* \"#utility.yul\":25623:25643   */\n      sub\n        /* \"#utility.yul\":25618:25620   */\n      0x20\n        /* \"#utility.yul\":25607:25616   */\n      dup4\n        /* \"#utility.yul\":25603:25621   */\n      add\n        /* \"#utility.yul\":25596:25644   */\n      mstore\n        /* \"#utility.yul\":25661:25736   */\n      tag_465\n        /* \"#utility.yul\":25731:25735   */\n      dup2\n        /* \"#utility.yul\":25722:25728   */\n      dup7\n        /* \"#utility.yul\":25661:25736   */\n      tag_201\n      jump\t// in\n    tag_465:\n        /* \"#utility.yul\":25653:25736   */\n      swap1\n      pop\n        /* \"#utility.yul\":25746:25818   */\n      tag_466\n        /* \"#utility.yul\":25814:25816   */\n      0x40\n        /* \"#utility.yul\":25803:25812   */\n      dup4\n        /* \"#utility.yul\":25799:25817   */\n      add\n        /* \"#utility.yul\":25790:25796   */\n      dup6\n        /* \"#utility.yul\":25746:25818   */\n      tag_141\n      jump\t// in\n    tag_466:\n        /* \"#utility.yul\":25828:25900   */\n      tag_467\n        /* \"#utility.yul\":25896:25898   */\n      0x60\n        /* \"#utility.yul\":25885:25894   */\n      dup4\n        /* \"#utility.yul\":25881:25899   */\n      add\n        /* \"#utility.yul\":25872:25878   */\n      dup5\n        /* \"#utility.yul\":25828:25900   */\n      tag_154\n      jump\t// in\n    tag_467:\n        /* \"#utility.yul\":25269:25907   */\n      swap6\n      swap5\n      pop\n      pop\n      pop\n      pop\n      pop\n      jump\t// out\n\n    auxdata: 0xa2646970667358221220378fb7f4509580afa510b28bc1ff3be860fed3e1d8330e78a916e2cd0835e01464736f6c634300081a0033\n}\n",
				"bytecode": {
					"linkReferences": {},
					"object": "60806040525f600155348015610013575f80fd5b50335f73ffffffffffffffffffffffffffffffffffffffff168173ffffffffffffffffffffffffffffffffffffffff1603610085575f6040517f1e4fbdf700000000000000000000000000000000000000000000000000000000815260040161007c91906101ee565b60405180910390fd5b610094816100ee60201b60201c565b50736345ada4e7d51e363d87090be6920069149de02160045f6101000a81548173ffffffffffffffffffffffffffffffffffffffff021916908373ffffffffffffffffffffffffffffffffffffffff160217905550610207565b5f805f9054906101000a900473ffffffffffffffffffffffffffffffffffffffff169050815f806101000a81548173ffffffffffffffffffffffffffffffffffffffff021916908373ffffffffffffffffffffffffffffffffffffffff1602179055508173ffffffffffffffffffffffffffffffffffffffff168173ffffffffffffffffffffffffffffffffffffffff167f8be0079c531659141344cd1fd0a4f28419497f9722a3daafe3b4186f6b6457e060405160405180910390a35050565b5f73ffffffffffffffffffffffffffffffffffffffff82169050919050565b5f6101d8826101af565b9050919050565b6101e8816101ce565b82525050565b5f6020820190506102015f8301846101df565b92915050565b611a99806102145f395ff3fe608060405234801561000f575f80fd5b50600436106100a7575f3560e01c80638da5cb5b1161006f5780638da5cb5b14610129578063bfb231d214610147578063c0fa41551461017b578063c71daccb14610199578063e7fb74c7146101b7578063f2fde38b146101d3576100a7565b806327e235e3146100ab5780635fd8c710146100db57806362d6bbdf146100e55780636bfb0d0114610101578063715018a61461011f575b5f80fd5b6100c560048036038101906100c09190610d43565b6101ef565b6040516100d29190610d86565b60405180910390f35b6100e3610204565b005b6100ff60048036038101906100fa9190610f05565b6103e0565b005b610109610561565b6040516101169190610d86565b60405180910390f35b610127610567565b005b61013161057a565b60405161013e9190610f6e565b60405180910390f35b610161600480360381019061015c9190610f87565b6105a1565b60405161017295949392919061104c565b60405180910390f35b610183610685565b60405161019091906110ff565b60405180910390f35b6101a16106aa565b6040516101ae9190610d86565b60405180910390f35b6101d160048036038101906101cc9190610f87565b6106ee565b005b6101ed60048036038101906101e89190610d43565b610b05565b005b6003602052805f5260405f205f915090505481565b5f60035f3373ffffffffffffffffffffffffffffffffffffffff1673ffffffffffffffffffffffffffffffffffffffff1681526020019081526020015f205490505f8111610287576040517f08c379a000000000000000000000000000000000000000000000000000000000815260040161027e90611162565b60405180910390fd5b5f60035f3373ffffffffffffffffffffffffffffffffffffffff1673ffffffffffffffffffffffffffffffffffffffff1681526020019081526020015f208190555060045f9054906101000a900473ffffffffffffffffffffffffffffffffffffffff1673ffffffffffffffffffffffffffffffffffffffff1663a9059cbb33836040518363ffffffff1660e01b8152600401610325929190611180565b6020604051808303815f875af1158015610341573d5f803e3d5ffd5b505050506040513d601f19601f8201168201806040525081019061036591906111d1565b6103a4576040517f08c379a000000000000000000000000000000000000000000000000000000000815260040161039b90611246565b60405180910390fd5b7fddc398b321237a8d40ac914388309c2f52a08c134e4dc4ce61e32f57cb7d80f133826040516103d5929190611180565b60405180910390a150565b5f8111610422576040517f08c379a0000000000000000000000000000000000000000000000000000000008152600401610419906112d4565b60405180910390fd5b60015f8154809291906104349061131f565b91905055506040518060a0016040528060015481526020018381526020018281526020013373ffffffffffffffffffffffffffffffffffffffff1681526020015f151581525060025f60015481526020019081526020015f205f820151815f015560208201518160010190816104aa9190611557565b50604082015181600201556060820151816003015f6101000a81548173ffffffffffffffffffffffffffffffffffffffff021916908373ffffffffffffffffffffffffffffffffffffffff16021790555060808201518160030160146101000a81548160ff0219169083151502179055509050507f4cb34837c7f53a61f23e94bec431249774053a2ab0b596d1382fb3dde16f65cd6001548383336040516105559493929190611626565b60405180910390a15050565b60015481565b61056f610b89565b6105785f610c10565b565b5f805f9054906101000a900473ffffffffffffffffffffffffffffffffffffffff16905090565b6002602052805f5260405f205f91509050805f0154908060010180546105c690611393565b80601f01602080910402602001604051908101604052809291908181526020018280546105f290611393565b801561063d5780601f106106145761010080835404028352916020019161063d565b820191905f5260205f20905b81548152906001019060200180831161062057829003601f168201915b505050505090806002015490806003015f9054906101000a900473ffffffffffffffffffffffffffffffffffffffff16908060030160149054906101000a900460ff16905085565b60045f9054906101000a900473ffffffffffffffffffffffffffffffffffffffff1681565b5f60035f3373ffffffffffffffffffffffffffffffffffffffff1673ffffffffffffffffffffffffffffffffffffffff1681526020019081526020015f2054905090565b5f60025f8381526020019081526020015f2090505f8211801561071357506001548211155b610752576040517f08c379a0000000000000000000000000000000000000000000000000000000008152600401610749906116ba565b60405180910390fd5b8060030160149054906101000a900460ff16156107a4576040517f08c379a000000000000000000000000000000000000000000000000000000000815260040161079b90611722565b60405180910390fd5b3373ffffffffffffffffffffffffffffffffffffffff16816003015f9054906101000a900473ffffffffffffffffffffffffffffffffffffffff1673ffffffffffffffffffffffffffffffffffffffff1603610835576040517f08c379a000000000000000000000000000000000000000000000000000000000815260040161082c906117b0565b60405180910390fd5b60045f9054906101000a900473ffffffffffffffffffffffffffffffffffffffff1673ffffffffffffffffffffffffffffffffffffffff166323b872dd333084600201546040518463ffffffff1660e01b8152600401610897939291906117ce565b6020604051808303815f875af11580156108b3573d5f803e3d5ffd5b505050506040513d601f19601f820116820180604052508101906108d791906111d1565b610916576040517f08c379a000000000000000000000000000000000000000000000000000000000815260040161090d9061184d565b60405180910390fd5b60018160030160146101000a81548160ff021916908315150217905550806002015460035f836003015f9054906101000a900473ffffffffffffffffffffffffffffffffffffffff1673ffffffffffffffffffffffffffffffffffffffff1673ffffffffffffffffffffffffffffffffffffffff1681526020019081526020015f205f8282546109a6919061186b565b9250508190555033816003015f6101000a81548173ffffffffffffffffffffffffffffffffffffffff021916908373ffffffffffffffffffffffffffffffffffffffff1602179055508060025f8481526020019081526020015f205f820154815f015560018201816001019081610a1d91906118b3565b5060028201548160020155600382015f9054906101000a900473ffffffffffffffffffffffffffffffffffffffff16816003015f6101000a81548173ffffffffffffffffffffffffffffffffffffffff021916908373ffffffffffffffffffffffffffffffffffffffff1602179055506003820160149054906101000a900460ff168160030160146101000a81548160ff0219169083151502179055509050507f6bd88e8e70ebe642aa8a5e3889834e40294ae8a8043b694a94071a8a2be7c67b8282600101836002015433604051610af99493929190611a19565b60405180910390a15050565b610b0d610b89565b5f73ffffffffffffffffffffffffffffffffffffffff168173ffffffffffffffffffffffffffffffffffffffff1603610b7d575f6040517f1e4fbdf7000000000000000000000000000000000000000000000000000000008152600401610b749190610f6e565b60405180910390fd5b610b8681610c10565b50565b610b91610cd1565b73ffffffffffffffffffffffffffffffffffffffff16610baf61057a565b73ffffffffffffffffffffffffffffffffffffffff1614610c0e57610bd2610cd1565b6040517f118cdaa7000000000000000000000000000000000000000000000000000000008152600401610c059190610f6e565b60405180910390fd5b565b5f805f9054906101000a900473ffffffffffffffffffffffffffffffffffffffff169050815f806101000a81548173ffffffffffffffffffffffffffffffffffffffff021916908373ffffffffffffffffffffffffffffffffffffffff1602179055508173ffffffffffffffffffffffffffffffffffffffff168173ffffffffffffffffffffffffffffffffffffffff167f8be0079c531659141344cd1fd0a4f28419497f9722a3daafe3b4186f6b6457e060405160405180910390a35050565b5f33905090565b5f604051905090565b5f80fd5b5f80fd5b5f73ffffffffffffffffffffffffffffffffffffffff82169050919050565b5f610d1282610ce9565b9050919050565b610d2281610d08565b8114610d2c575f80fd5b50565b5f81359050610d3d81610d19565b92915050565b5f60208284031215610d5857610d57610ce1565b5b5f610d6584828501610d2f565b91505092915050565b5f819050919050565b610d8081610d6e565b82525050565b5f602082019050610d995f830184610d77565b92915050565b5f80fd5b5f80fd5b5f601f19601f8301169050919050565b7f4e487b71000000000000000000000000000000000000000000000000000000005f52604160045260245ffd5b610ded82610da7565b810181811067ffffffffffffffff82111715610e0c57610e0b610db7565b5b80604052505050565b5f610e1e610cd8565b9050610e2a8282610de4565b919050565b5f67ffffffffffffffff821115610e4957610e48610db7565b5b610e5282610da7565b9050602081019050919050565b828183375f83830152505050565b5f610e7f610e7a84610e2f565b610e15565b905082815260208101848484011115610e9b57610e9a610da3565b5b610ea6848285610e5f565b509392505050565b5f82601f830112610ec257610ec1610d9f565b5b8135610ed2848260208601610e6d565b91505092915050565b610ee481610d6e565b8114610eee575f80fd5b50565b5f81359050610eff81610edb565b92915050565b5f8060408385031215610f1b57610f1a610ce1565b5b5f83013567ffffffffffffffff811115610f3857610f37610ce5565b5b610f4485828601610eae565b9250506020610f5585828601610ef1565b9150509250929050565b610f6881610d08565b82525050565b5f602082019050610f815f830184610f5f565b92915050565b5f60208284031215610f9c57610f9b610ce1565b5b5f610fa984828501610ef1565b91505092915050565b5f81519050919050565b5f82825260208201905092915050565b8281835e5f83830152505050565b5f610fe482610fb2565b610fee8185610fbc565b9350610ffe818560208601610fcc565b61100781610da7565b840191505092915050565b5f61101c82610ce9565b9050919050565b61102c81611012565b82525050565b5f8115159050919050565b61104681611032565b82525050565b5f60a08201905061105f5f830188610d77565b81810360208301526110718187610fda565b90506110806040830186610d77565b61108d6060830185611023565b61109a608083018461103d565b9695505050505050565b5f819050919050565b5f6110c76110c26110bd84610ce9565b6110a4565b610ce9565b9050919050565b5f6110d8826110ad565b9050919050565b5f6110e9826110ce565b9050919050565b6110f9816110df565b82525050565b5f6020820190506111125f8301846110f0565b92915050565b7f4e6f2062616c616e636520746f207769746864726177000000000000000000005f82015250565b5f61114c601683610fbc565b915061115782611118565b602082019050919050565b5f6020820190508181035f83015261117981611140565b9050919050565b5f6040820190506111935f830185610f5f565b6111a06020830184610d77565b9392505050565b6111b081611032565b81146111ba575f80fd5b50565b5f815190506111cb816111a7565b92915050565b5f602082840312156111e6576111e5610ce1565b5b5f6111f3848285016111bd565b91505092915050565b7f5769746864726177207472616e73666572206661696c656400000000000000005f82015250565b5f611230601883610fbc565b915061123b826111fc565b602082019050919050565b5f6020820190508181035f83015261125d81611224565b9050919050565b7f4974656d207072696365206d7573742062652067726561746572207468616e205f8201527f3000000000000000000000000000000000000000000000000000000000000000602082015250565b5f6112be602183610fbc565b91506112c982611264565b604082019050919050565b5f6020820190508181035f8301526112eb816112b2565b9050919050565b7f4e487b71000000000000000000000000000000000000000000000000000000005f52601160045260245ffd5b5f61132982610d6e565b91507fffffffffffffffffffffffffffffffffffffffffffffffffffffffffffffffff820361135b5761135a6112f2565b5b600182019050919050565b7f4e487b71000000000000000000000000000000000000000000000000000000005f52602260045260245ffd5b5f60028204905060018216806113aa57607f821691505b6020821081036113bd576113bc611366565b5b50919050565b5f819050815f5260205f209050919050565b5f6020601f8301049050919050565b5f82821b905092915050565b5f6008830261141f7fffffffffffffffffffffffffffffffffffffffffffffffffffffffffffffffff826113e4565b61142986836113e4565b95508019841693508086168417925050509392505050565b5f61145b61145661145184610d6e565b6110a4565b610d6e565b9050919050565b5f819050919050565b61147483611441565b61148861148082611462565b8484546113f0565b825550505050565b5f90565b61149c611490565b6114a781848461146b565b505050565b5b818110156114ca576114bf5f82611494565b6001810190506114ad565b5050565b601f82111561150f576114e0816113c3565b6114e9846113d5565b810160208510156114f8578190505b61150c611504856113d5565b8301826114ac565b50505b505050565b5f82821c905092915050565b5f61152f5f1984600802611514565b1980831691505092915050565b5f6115478383611520565b9150826002028217905092915050565b61156082610fb2565b67ffffffffffffffff81111561157957611578610db7565b5b6115838254611393565b61158e8282856114ce565b5f60209050601f8311600181146115bf575f84156115ad578287015190505b6115b7858261153c565b86555061161e565b601f1984166115cd866113c3565b5f5b828110156115f4578489015182556001820191506020850194506020810190506115cf565b86831015611611578489015161160d601f891682611520565b8355505b6001600288020188555050505b505050505050565b5f6080820190506116395f830187610d77565b818103602083015261164b8186610fda565b905061165a6040830185610d77565b6116676060830184610f5f565b95945050505050565b7f4974656d206e6f7420666f756e640000000000000000000000000000000000005f82015250565b5f6116a4600e83610fbc565b91506116af82611670565b602082019050919050565b5f6020820190508181035f8301526116d181611698565b9050919050565b7f4974656d20616c726561647920736f6c640000000000000000000000000000005f82015250565b5f61170c601183610fbc565b9150611717826116d8565b602082019050919050565b5f6020820190508181035f83015261173981611700565b9050919050565b7f4974656d206f776e65722063616e6e6f7420627579207468656972206f776e205f8201527f6974656d00000000000000000000000000000000000000000000000000000000602082015250565b5f61179a602483610fbc565b91506117a582611740565b604082019050919050565b5f6020820190508181035f8301526117c78161178e565b9050919050565b5f6060820190506117e15f830186610f5f565b6117ee6020830185610f5f565b6117fb6040830184610d77565b949350505050565b7f546f6b656e207472616e73666572206661696c656400000000000000000000005f82015250565b5f611837601583610fbc565b915061184282611803565b602082019050919050565b5f6020820190508181035f8301526118648161182b565b9050919050565b5f61187582610d6e565b915061188083610d6e565b9250828201905080821115611898576118976112f2565b5b92915050565b5f815490506118ac81611393565b9050919050565b8181036118c1575050611996565b6118ca8261189e565b67ffffffffffffffff8111156118e3576118e2610db7565b5b6118ed8254611393565b6118f88282856114ce565b5f601f831160018114611925575f8415611913578287015490505b61191d858261153c565b86555061198f565b601f198416611933876113c3565b965061193e866113c3565b5f5b8281101561196557848901548255600182019150600185019450602081019050611940565b86831015611982578489015461197e601f891682611520565b8355505b6001600288020188555050505b5050505050505b565b5f81546119a481611393565b6119ae8186610fbc565b9450600182165f81146119c857600181146119de57611a10565b60ff198316865281151560200286019350611a10565b6119e7856113c3565b5f5b83811015611a08578154818901526001820191506020810190506119e9565b808801955050505b50505092915050565b5f608082019050611a2c5f830187610d77565b8181036020830152611a3e8186611998565b9050611a4d6040830185610d77565b611a5a6060830184610f5f565b9594505050505056fea2646970667358221220378fb7f4509580afa510b28bc1ff3be860fed3e1d8330e78a916e2cd0835e01464736f6c634300081a0033",
					"opcodes": "PUSH1 0x80 PUSH1 0x40 MSTORE PUSH0 PUSH1 0x1 SSTORE CALLVALUE DUP1 ISZERO PUSH2 0x13 JUMPI PUSH0 DUP1 REVERT JUMPDEST POP CALLER PUSH0 PUSH20 0xFFFFFFFFFFFFFFFFFFFFFFFFFFFFFFFFFFFFFFFF AND DUP2 PUSH20 0xFFFFFFFFFFFFFFFFFFFFFFFFFFFFFFFFFFFFFFFF AND SUB PUSH2 0x85 JUMPI PUSH0 PUSH1 0x40 MLOAD PUSH32 0x1E4FBDF700000000000000000000000000000000000000000000000000000000 DUP2 MSTORE PUSH1 0x4 ADD PUSH2 0x7C SWAP2 SWAP1 PUSH2 0x1EE JUMP JUMPDEST PUSH1 0x40 MLOAD DUP1 SWAP2 SUB SWAP1 REVERT JUMPDEST PUSH2 0x94 DUP2 PUSH2 0xEE PUSH1 0x20 SHL PUSH1 0x20 SHR JUMP JUMPDEST POP PUSH20 0x6345ADA4E7D51E363D87090BE6920069149DE021 PUSH1 0x4 PUSH0 PUSH2 0x100 EXP DUP2 SLOAD DUP2 PUSH20 0xFFFFFFFFFFFFFFFFFFFFFFFFFFFFFFFFFFFFFFFF MUL NOT AND SWAP1 DUP4 PUSH20 0xFFFFFFFFFFFFFFFFFFFFFFFFFFFFFFFFFFFFFFFF AND MUL OR SWAP1 SSTORE POP PUSH2 0x207 JUMP JUMPDEST PUSH0 DUP1 PUSH0 SWAP1 SLOAD SWAP1 PUSH2 0x100 EXP SWAP1 DIV PUSH20 0xFFFFFFFFFFFFFFFFFFFFFFFFFFFFFFFFFFFFFFFF AND SWAP1 POP DUP2 PUSH0 DUP1 PUSH2 0x100 EXP DUP2 SLOAD DUP2 PUSH20 0xFFFFFFFFFFFFFFFFFFFFFFFFFFFFFFFFFFFFFFFF MUL NOT AND SWAP1 DUP4 PUSH20 0xFFFFFFFFFFFFFFFFFFFFFFFFFFFFFFFFFFFFFFFF AND MUL OR SWAP1 SSTORE POP DUP2 PUSH20 0xFFFFFFFFFFFFFFFFFFFFFFFFFFFFFFFFFFFFFFFF AND DUP2 PUSH20 0xFFFFFFFFFFFFFFFFFFFFFFFFFFFFFFFFFFFFFFFF AND PUSH32 0x8BE0079C531659141344CD1FD0A4F28419497F9722A3DAAFE3B4186F6B6457E0 PUSH1 0x40 MLOAD PUSH1 0x40 MLOAD DUP1 SWAP2 SUB SWAP1 LOG3 POP POP JUMP JUMPDEST PUSH0 PUSH20 0xFFFFFFFFFFFFFFFFFFFFFFFFFFFFFFFFFFFFFFFF DUP3 AND SWAP1 POP SWAP2 SWAP1 POP JUMP JUMPDEST PUSH0 PUSH2 0x1D8 DUP3 PUSH2 0x1AF JUMP JUMPDEST SWAP1 POP SWAP2 SWAP1 POP JUMP JUMPDEST PUSH2 0x1E8 DUP2 PUSH2 0x1CE JUMP JUMPDEST DUP3 MSTORE POP POP JUMP JUMPDEST PUSH0 PUSH1 0x20 DUP3 ADD SWAP1 POP PUSH2 0x201 PUSH0 DUP4 ADD DUP5 PUSH2 0x1DF JUMP JUMPDEST SWAP3 SWAP2 POP POP JUMP JUMPDEST PUSH2 0x1A99 DUP1 PUSH2 0x214 PUSH0 CODECOPY PUSH0 RETURN INVALID PUSH1 0x80 PUSH1 0x40 MSTORE CALLVALUE DUP1 ISZERO PUSH2 0xF JUMPI PUSH0 DUP1 REVERT JUMPDEST POP PUSH1 0x4 CALLDATASIZE LT PUSH2 0xA7 JUMPI PUSH0 CALLDATALOAD PUSH1 0xE0 SHR DUP1 PUSH4 0x8DA5CB5B GT PUSH2 0x6F JUMPI DUP1 PUSH4 0x8DA5CB5B EQ PUSH2 0x129 JUMPI DUP1 PUSH4 0xBFB231D2 EQ PUSH2 0x147 JUMPI DUP1 PUSH4 0xC0FA4155 EQ PUSH2 0x17B JUMPI DUP1 PUSH4 0xC71DACCB EQ PUSH2 0x199 JUMPI DUP1 PUSH4 0xE7FB74C7 EQ PUSH2 0x1B7 JUMPI DUP1 PUSH4 0xF2FDE38B EQ PUSH2 0x1D3 JUMPI PUSH2 0xA7 JUMP JUMPDEST DUP1 PUSH4 0x27E235E3 EQ PUSH2 0xAB JUMPI DUP1 PUSH4 0x5FD8C710 EQ PUSH2 0xDB JUMPI DUP1 PUSH4 0x62D6BBDF EQ PUSH2 0xE5 JUMPI DUP1 PUSH4 0x6BFB0D01 EQ PUSH2 0x101 JUMPI DUP1 PUSH4 0x715018A6 EQ PUSH2 0x11F JUMPI JUMPDEST PUSH0 DUP1 REVERT JUMPDEST PUSH2 0xC5 PUSH1 0x4 DUP1 CALLDATASIZE SUB DUP2 ADD SWAP1 PUSH2 0xC0 SWAP2 SWAP1 PUSH2 0xD43 JUMP JUMPDEST PUSH2 0x1EF JUMP JUMPDEST PUSH1 0x40 MLOAD PUSH2 0xD2 SWAP2 SWAP1 PUSH2 0xD86 JUMP JUMPDEST PUSH1 0x40 MLOAD DUP1 SWAP2 SUB SWAP1 RETURN JUMPDEST PUSH2 0xE3 PUSH2 0x204 JUMP JUMPDEST STOP JUMPDEST PUSH2 0xFF PUSH1 0x4 DUP1 CALLDATASIZE SUB DUP2 ADD SWAP1 PUSH2 0xFA SWAP2 SWAP1 PUSH2 0xF05 JUMP JUMPDEST PUSH2 0x3E0 JUMP JUMPDEST STOP JUMPDEST PUSH2 0x109 PUSH2 0x561 JUMP JUMPDEST PUSH1 0x40 MLOAD PUSH2 0x116 SWAP2 SWAP1 PUSH2 0xD86 JUMP JUMPDEST PUSH1 0x40 MLOAD DUP1 SWAP2 SUB SWAP1 RETURN JUMPDEST PUSH2 0x127 PUSH2 0x567 JUMP JUMPDEST STOP JUMPDEST PUSH2 0x131 PUSH2 0x57A JUMP JUMPDEST PUSH1 0x40 MLOAD PUSH2 0x13E SWAP2 SWAP1 PUSH2 0xF6E JUMP JUMPDEST PUSH1 0x40 MLOAD DUP1 SWAP2 SUB SWAP1 RETURN JUMPDEST PUSH2 0x161 PUSH1 0x4 DUP1 CALLDATASIZE SUB DUP2 ADD SWAP1 PUSH2 0x15C SWAP2 SWAP1 PUSH2 0xF87 JUMP JUMPDEST PUSH2 0x5A1 JUMP JUMPDEST PUSH1 0x40 MLOAD PUSH2 0x172 SWAP6 SWAP5 SWAP4 SWAP3 SWAP2 SWAP1 PUSH2 0x104C JUMP JUMPDEST PUSH1 0x40 MLOAD DUP1 SWAP2 SUB SWAP1 RETURN JUMPDEST PUSH2 0x183 PUSH2 0x685 JUMP JUMPDEST PUSH1 0x40 MLOAD PUSH2 0x190 SWAP2 SWAP1 PUSH2 0x10FF JUMP JUMPDEST PUSH1 0x40 MLOAD DUP1 SWAP2 SUB SWAP1 RETURN JUMPDEST PUSH2 0x1A1 PUSH2 0x6AA JUMP JUMPDEST PUSH1 0x40 MLOAD PUSH2 0x1AE SWAP2 SWAP1 PUSH2 0xD86 JUMP JUMPDEST PUSH1 0x40 MLOAD DUP1 SWAP2 SUB SWAP1 RETURN JUMPDEST PUSH2 0x1D1 PUSH1 0x4 DUP1 CALLDATASIZE SUB DUP2 ADD SWAP1 PUSH2 0x1CC SWAP2 SWAP1 PUSH2 0xF87 JUMP JUMPDEST PUSH2 0x6EE JUMP JUMPDEST STOP JUMPDEST PUSH2 0x1ED PUSH1 0x4 DUP1 CALLDATASIZE SUB DUP2 ADD SWAP1 PUSH2 0x1E8 SWAP2 SWAP1 PUSH2 0xD43 JUMP JUMPDEST PUSH2 0xB05 JUMP JUMPDEST STOP JUMPDEST PUSH1 0x3 PUSH1 0x20 MSTORE DUP1 PUSH0 MSTORE PUSH1 0x40 PUSH0 KECCAK256 PUSH0 SWAP2 POP SWAP1 POP SLOAD DUP2 JUMP JUMPDEST PUSH0 PUSH1 0x3 PUSH0 CALLER PUSH20 0xFFFFFFFFFFFFFFFFFFFFFFFFFFFFFFFFFFFFFFFF AND PUSH20 0xFFFFFFFFFFFFFFFFFFFFFFFFFFFFFFFFFFFFFFFF AND DUP2 MSTORE PUSH1 0x20 ADD SWAP1 DUP2 MSTORE PUSH1 0x20 ADD PUSH0 KECCAK256 SLOAD SWAP1 POP PUSH0 DUP2 GT PUSH2 0x287 JUMPI PUSH1 0x40 MLOAD PUSH32 0x8C379A000000000000000000000000000000000000000000000000000000000 DUP2 MSTORE PUSH1 0x4 ADD PUSH2 0x27E SWAP1 PUSH2 0x1162 JUMP JUMPDEST PUSH1 0x40 MLOAD DUP1 SWAP2 SUB SWAP1 REVERT JUMPDEST PUSH0 PUSH1 0x3 PUSH0 CALLER PUSH20 0xFFFFFFFFFFFFFFFFFFFFFFFFFFFFFFFFFFFFFFFF AND PUSH20 0xFFFFFFFFFFFFFFFFFFFFFFFFFFFFFFFFFFFFFFFF AND DUP2 MSTORE PUSH1 0x20 ADD SWAP1 DUP2 MSTORE PUSH1 0x20 ADD PUSH0 KECCAK256 DUP2 SWAP1 SSTORE POP PUSH1 0x4 PUSH0 SWAP1 SLOAD SWAP1 PUSH2 0x100 EXP SWAP1 DIV PUSH20 0xFFFFFFFFFFFFFFFFFFFFFFFFFFFFFFFFFFFFFFFF AND PUSH20 0xFFFFFFFFFFFFFFFFFFFFFFFFFFFFFFFFFFFFFFFF AND PUSH4 0xA9059CBB CALLER DUP4 PUSH1 0x40 MLOAD DUP4 PUSH4 0xFFFFFFFF AND PUSH1 0xE0 SHL DUP2 MSTORE PUSH1 0x4 ADD PUSH2 0x325 SWAP3 SWAP2 SWAP1 PUSH2 0x1180 JUMP JUMPDEST PUSH1 0x20 PUSH1 0x40 MLOAD DUP1 DUP4 SUB DUP2 PUSH0 DUP8 GAS CALL ISZERO DUP1 ISZERO PUSH2 0x341 JUMPI RETURNDATASIZE PUSH0 DUP1 RETURNDATACOPY RETURNDATASIZE PUSH0 REVERT JUMPDEST POP POP POP POP PUSH1 0x40 MLOAD RETURNDATASIZE PUSH1 0x1F NOT PUSH1 0x1F DUP3 ADD AND DUP3 ADD DUP1 PUSH1 0x40 MSTORE POP DUP2 ADD SWAP1 PUSH2 0x365 SWAP2 SWAP1 PUSH2 0x11D1 JUMP JUMPDEST PUSH2 0x3A4 JUMPI PUSH1 0x40 MLOAD PUSH32 0x8C379A000000000000000000000000000000000000000000000000000000000 DUP2 MSTORE PUSH1 0x4 ADD PUSH2 0x39B SWAP1 PUSH2 0x1246 JUMP JUMPDEST PUSH1 0x40 MLOAD DUP1 SWAP2 SUB SWAP1 REVERT JUMPDEST PUSH32 0xDDC398B321237A8D40AC914388309C2F52A08C134E4DC4CE61E32F57CB7D80F1 CALLER DUP3 PUSH1 0x40 MLOAD PUSH2 0x3D5 SWAP3 SWAP2 SWAP1 PUSH2 0x1180 JUMP JUMPDEST PUSH1 0x40 MLOAD DUP1 SWAP2 SUB SWAP1 LOG1 POP JUMP JUMPDEST PUSH0 DUP2 GT PUSH2 0x422 JUMPI PUSH1 0x40 MLOAD PUSH32 0x8C379A000000000000000000000000000000000000000000000000000000000 DUP2 MSTORE PUSH1 0x4 ADD PUSH2 0x419 SWAP1 PUSH2 0x12D4 JUMP JUMPDEST PUSH1 0x40 MLOAD DUP1 SWAP2 SUB SWAP1 REVERT JUMPDEST PUSH1 0x1 PUSH0 DUP2 SLOAD DUP1 SWAP3 SWAP2 SWAP1 PUSH2 0x434 SWAP1 PUSH2 0x131F JUMP JUMPDEST SWAP2 SWAP1 POP SSTORE POP PUSH1 0x40 MLOAD DUP1 PUSH1 0xA0 ADD PUSH1 0x40 MSTORE DUP1 PUSH1 0x1 SLOAD DUP2 MSTORE PUSH1 0x20 ADD DUP4 DUP2 MSTORE PUSH1 0x20 ADD DUP3 DUP2 MSTORE PUSH1 0x20 ADD CALLER PUSH20 0xFFFFFFFFFFFFFFFFFFFFFFFFFFFFFFFFFFFFFFFF AND DUP2 MSTORE PUSH1 0x20 ADD PUSH0 ISZERO ISZERO DUP2 MSTORE POP PUSH1 0x2 PUSH0 PUSH1 0x1 SLOAD DUP2 MSTORE PUSH1 0x20 ADD SWAP1 DUP2 MSTORE PUSH1 0x20 ADD PUSH0 KECCAK256 PUSH0 DUP3 ADD MLOAD DUP2 PUSH0 ADD SSTORE PUSH1 0x20 DUP3 ADD MLOAD DUP2 PUSH1 0x1 ADD SWAP1 DUP2 PUSH2 0x4AA SWAP2 SWAP1 PUSH2 0x1557 JUMP JUMPDEST POP PUSH1 0x40 DUP3 ADD MLOAD DUP2 PUSH1 0x2 ADD SSTORE PUSH1 0x60 DUP3 ADD MLOAD DUP2 PUSH1 0x3 ADD PUSH0 PUSH2 0x100 EXP DUP2 SLOAD DUP2 PUSH20 0xFFFFFFFFFFFFFFFFFFFFFFFFFFFFFFFFFFFFFFFF MUL NOT AND SWAP1 DUP4 PUSH20 0xFFFFFFFFFFFFFFFFFFFFFFFFFFFFFFFFFFFFFFFF AND MUL OR SWAP1 SSTORE POP PUSH1 0x80 DUP3 ADD MLOAD DUP2 PUSH1 0x3 ADD PUSH1 0x14 PUSH2 0x100 EXP DUP2 SLOAD DUP2 PUSH1 0xFF MUL NOT AND SWAP1 DUP4 ISZERO ISZERO MUL OR SWAP1 SSTORE POP SWAP1 POP POP PUSH32 0x4CB34837C7F53A61F23E94BEC431249774053A2AB0B596D1382FB3DDE16F65CD PUSH1 0x1 SLOAD DUP4 DUP4 CALLER PUSH1 0x40 MLOAD PUSH2 0x555 SWAP5 SWAP4 SWAP3 SWAP2 SWAP1 PUSH2 0x1626 JUMP JUMPDEST PUSH1 0x40 MLOAD DUP1 SWAP2 SUB SWAP1 LOG1 POP POP JUMP JUMPDEST PUSH1 0x1 SLOAD DUP2 JUMP JUMPDEST PUSH2 0x56F PUSH2 0xB89 JUMP JUMPDEST PUSH2 0x578 PUSH0 PUSH2 0xC10 JUMP JUMPDEST JUMP JUMPDEST PUSH0 DUP1 PUSH0 SWAP1 SLOAD SWAP1 PUSH2 0x100 EXP SWAP1 DIV PUSH20 0xFFFFFFFFFFFFFFFFFFFFFFFFFFFFFFFFFFFFFFFF AND SWAP1 POP SWAP1 JUMP JUMPDEST PUSH1 0x2 PUSH1 0x20 MSTORE DUP1 PUSH0 MSTORE PUSH1 0x40 PUSH0 KECCAK256 PUSH0 SWAP2 POP SWAP1 POP DUP1 PUSH0 ADD SLOAD SWAP1 DUP1 PUSH1 0x1 ADD DUP1 SLOAD PUSH2 0x5C6 SWAP1 PUSH2 0x1393 JUMP JUMPDEST DUP1 PUSH1 0x1F ADD PUSH1 0x20 DUP1 SWAP2 DIV MUL PUSH1 0x20 ADD PUSH1 0x40 MLOAD SWAP1 DUP2 ADD PUSH1 0x40 MSTORE DUP1 SWAP3 SWAP2 SWAP1 DUP2 DUP2 MSTORE PUSH1 0x20 ADD DUP3 DUP1 SLOAD PUSH2 0x5F2 SWAP1 PUSH2 0x1393 JUMP JUMPDEST DUP1 ISZERO PUSH2 0x63D JUMPI DUP1 PUSH1 0x1F LT PUSH2 0x614 JUMPI PUSH2 0x100 DUP1 DUP4 SLOAD DIV MUL DUP4 MSTORE SWAP2 PUSH1 0x20 ADD SWAP2 PUSH2 0x63D JUMP JUMPDEST DUP3 ADD SWAP2 SWAP1 PUSH0 MSTORE PUSH1 0x20 PUSH0 KECCAK256 SWAP1 JUMPDEST DUP2 SLOAD DUP2 MSTORE SWAP1 PUSH1 0x1 ADD SWAP1 PUSH1 0x20 ADD DUP1 DUP4 GT PUSH2 0x620 JUMPI DUP3 SWAP1 SUB PUSH1 0x1F AND DUP3 ADD SWAP2 JUMPDEST POP POP POP POP POP SWAP1 DUP1 PUSH1 0x2 ADD SLOAD SWAP1 DUP1 PUSH1 0x3 ADD PUSH0 SWAP1 SLOAD SWAP1 PUSH2 0x100 EXP SWAP1 DIV PUSH20 0xFFFFFFFFFFFFFFFFFFFFFFFFFFFFFFFFFFFFFFFF AND SWAP1 DUP1 PUSH1 0x3 ADD PUSH1 0x14 SWAP1 SLOAD SWAP1 PUSH2 0x100 EXP SWAP1 DIV PUSH1 0xFF AND SWAP1 POP DUP6 JUMP JUMPDEST PUSH1 0x4 PUSH0 SWAP1 SLOAD SWAP1 PUSH2 0x100 EXP SWAP1 DIV PUSH20 0xFFFFFFFFFFFFFFFFFFFFFFFFFFFFFFFFFFFFFFFF AND DUP2 JUMP JUMPDEST PUSH0 PUSH1 0x3 PUSH0 CALLER PUSH20 0xFFFFFFFFFFFFFFFFFFFFFFFFFFFFFFFFFFFFFFFF AND PUSH20 0xFFFFFFFFFFFFFFFFFFFFFFFFFFFFFFFFFFFFFFFF AND DUP2 MSTORE PUSH1 0x20 ADD SWAP1 DUP2 MSTORE PUSH1 0x20 ADD PUSH0 KECCAK256 SLOAD SWAP1 POP SWAP1 JUMP JUMPDEST PUSH0 PUSH1 0x2 PUSH0 DUP4 DUP2 MSTORE PUSH1 0x20 ADD SWAP1 DUP2 MSTORE PUSH1 0x20 ADD PUSH0 KECCAK256 SWAP1 POP PUSH0 DUP3 GT DUP1 ISZERO PUSH2 0x713 JUMPI POP PUSH1 0x1 SLOAD DUP3 GT ISZERO JUMPDEST PUSH2 0x752 JUMPI PUSH1 0x40 MLOAD PUSH32 0x8C379A000000000000000000000000000000000000000000000000000000000 DUP2 MSTORE PUSH1 0x4 ADD PUSH2 0x749 SWAP1 PUSH2 0x16BA JUMP JUMPDEST PUSH1 0x40 MLOAD DUP1 SWAP2 SUB SWAP1 REVERT JUMPDEST DUP1 PUSH1 0x3 ADD PUSH1 0x14 SWAP1 SLOAD SWAP1 PUSH2 0x100 EXP SWAP1 DIV PUSH1 0xFF AND ISZERO PUSH2 0x7A4 JUMPI PUSH1 0x40 MLOAD PUSH32 0x8C379A000000000000000000000000000000000000000000000000000000000 DUP2 MSTORE PUSH1 0x4 ADD PUSH2 0x79B SWAP1 PUSH2 0x1722 JUMP JUMPDEST PUSH1 0x40 MLOAD DUP1 SWAP2 SUB SWAP1 REVERT JUMPDEST CALLER PUSH20 0xFFFFFFFFFFFFFFFFFFFFFFFFFFFFFFFFFFFFFFFF AND DUP2 PUSH1 0x3 ADD PUSH0 SWAP1 SLOAD SWAP1 PUSH2 0x100 EXP SWAP1 DIV PUSH20 0xFFFFFFFFFFFFFFFFFFFFFFFFFFFFFFFFFFFFFFFF AND PUSH20 0xFFFFFFFFFFFFFFFFFFFFFFFFFFFFFFFFFFFFFFFF AND SUB PUSH2 0x835 JUMPI PUSH1 0x40 MLOAD PUSH32 0x8C379A000000000000000000000000000000000000000000000000000000000 DUP2 MSTORE PUSH1 0x4 ADD PUSH2 0x82C SWAP1 PUSH2 0x17B0 JUMP JUMPDEST PUSH1 0x40 MLOAD DUP1 SWAP2 SUB SWAP1 REVERT JUMPDEST PUSH1 0x4 PUSH0 SWAP1 SLOAD SWAP1 PUSH2 0x100 EXP SWAP1 DIV PUSH20 0xFFFFFFFFFFFFFFFFFFFFFFFFFFFFFFFFFFFFFFFF AND PUSH20 0xFFFFFFFFFFFFFFFFFFFFFFFFFFFFFFFFFFFFFFFF AND PUSH4 0x23B872DD CALLER ADDRESS DUP5 PUSH1 0x2 ADD SLOAD PUSH1 0x40 MLOAD DUP5 PUSH4 0xFFFFFFFF AND PUSH1 0xE0 SHL DUP2 MSTORE PUSH1 0x4 ADD PUSH2 0x897 SWAP4 SWAP3 SWAP2 SWAP1 PUSH2 0x17CE JUMP JUMPDEST PUSH1 0x20 PUSH1 0x40 MLOAD DUP1 DUP4 SUB DUP2 PUSH0 DUP8 GAS CALL ISZERO DUP1 ISZERO PUSH2 0x8B3 JUMPI RETURNDATASIZE PUSH0 DUP1 RETURNDATACOPY RETURNDATASIZE PUSH0 REVERT JUMPDEST POP POP POP POP PUSH1 0x40 MLOAD RETURNDATASIZE PUSH1 0x1F NOT PUSH1 0x1F DUP3 ADD AND DUP3 ADD DUP1 PUSH1 0x40 MSTORE POP DUP2 ADD SWAP1 PUSH2 0x8D7 SWAP2 SWAP1 PUSH2 0x11D1 JUMP JUMPDEST PUSH2 0x916 JUMPI PUSH1 0x40 MLOAD PUSH32 0x8C379A000000000000000000000000000000000000000000000000000000000 DUP2 MSTORE PUSH1 0x4 ADD PUSH2 0x90D SWAP1 PUSH2 0x184D JUMP JUMPDEST PUSH1 0x40 MLOAD DUP1 SWAP2 SUB SWAP1 REVERT JUMPDEST PUSH1 0x1 DUP2 PUSH1 0x3 ADD PUSH1 0x14 PUSH2 0x100 EXP DUP2 SLOAD DUP2 PUSH1 0xFF MUL NOT AND SWAP1 DUP4 ISZERO ISZERO MUL OR SWAP1 SSTORE POP DUP1 PUSH1 0x2 ADD SLOAD PUSH1 0x3 PUSH0 DUP4 PUSH1 0x3 ADD PUSH0 SWAP1 SLOAD SWAP1 PUSH2 0x100 EXP SWAP1 DIV PUSH20 0xFFFFFFFFFFFFFFFFFFFFFFFFFFFFFFFFFFFFFFFF AND PUSH20 0xFFFFFFFFFFFFFFFFFFFFFFFFFFFFFFFFFFFFFFFF AND PUSH20 0xFFFFFFFFFFFFFFFFFFFFFFFFFFFFFFFFFFFFFFFF AND DUP2 MSTORE PUSH1 0x20 ADD SWAP1 DUP2 MSTORE PUSH1 0x20 ADD PUSH0 KECCAK256 PUSH0 DUP3 DUP3 SLOAD PUSH2 0x9A6 SWAP2 SWAP1 PUSH2 0x186B JUMP JUMPDEST SWAP3 POP POP DUP2 SWAP1 SSTORE POP CALLER DUP2 PUSH1 0x3 ADD PUSH0 PUSH2 0x100 EXP DUP2 SLOAD DUP2 PUSH20 0xFFFFFFFFFFFFFFFFFFFFFFFFFFFFFFFFFFFFFFFF MUL NOT AND SWAP1 DUP4 PUSH20 0xFFFFFFFFFFFFFFFFFFFFFFFFFFFFFFFFFFFFFFFF AND MUL OR SWAP1 SSTORE POP DUP1 PUSH1 0x2 PUSH0 DUP5 DUP2 MSTORE PUSH1 0x20 ADD SWAP1 DUP2 MSTORE PUSH1 0x20 ADD PUSH0 KECCAK256 PUSH0 DUP3 ADD SLOAD DUP2 PUSH0 ADD SSTORE PUSH1 0x1 DUP3 ADD DUP2 PUSH1 0x1 ADD SWAP1 DUP2 PUSH2 0xA1D SWAP2 SWAP1 PUSH2 0x18B3 JUMP JUMPDEST POP PUSH1 0x2 DUP3 ADD SLOAD DUP2 PUSH1 0x2 ADD SSTORE PUSH1 0x3 DUP3 ADD PUSH0 SWAP1 SLOAD SWAP1 PUSH2 0x100 EXP SWAP1 DIV PUSH20 0xFFFFFFFFFFFFFFFFFFFFFFFFFFFFFFFFFFFFFFFF AND DUP2 PUSH1 0x3 ADD PUSH0 PUSH2 0x100 EXP DUP2 SLOAD DUP2 PUSH20 0xFFFFFFFFFFFFFFFFFFFFFFFFFFFFFFFFFFFFFFFF MUL NOT AND SWAP1 DUP4 PUSH20 0xFFFFFFFFFFFFFFFFFFFFFFFFFFFFFFFFFFFFFFFF AND MUL OR SWAP1 SSTORE POP PUSH1 0x3 DUP3 ADD PUSH1 0x14 SWAP1 SLOAD SWAP1 PUSH2 0x100 EXP SWAP1 DIV PUSH1 0xFF AND DUP2 PUSH1 0x3 ADD PUSH1 0x14 PUSH2 0x100 EXP DUP2 SLOAD DUP2 PUSH1 0xFF MUL NOT AND SWAP1 DUP4 ISZERO ISZERO MUL OR SWAP1 SSTORE POP SWAP1 POP POP PUSH32 0x6BD88E8E70EBE642AA8A5E3889834E40294AE8A8043B694A94071A8A2BE7C67B DUP3 DUP3 PUSH1 0x1 ADD DUP4 PUSH1 0x2 ADD SLOAD CALLER PUSH1 0x40 MLOAD PUSH2 0xAF9 SWAP5 SWAP4 SWAP3 SWAP2 SWAP1 PUSH2 0x1A19 JUMP JUMPDEST PUSH1 0x40 MLOAD DUP1 SWAP2 SUB SWAP1 LOG1 POP POP JUMP JUMPDEST PUSH2 0xB0D PUSH2 0xB89 JUMP JUMPDEST PUSH0 PUSH20 0xFFFFFFFFFFFFFFFFFFFFFFFFFFFFFFFFFFFFFFFF AND DUP2 PUSH20 0xFFFFFFFFFFFFFFFFFFFFFFFFFFFFFFFFFFFFFFFF AND SUB PUSH2 0xB7D JUMPI PUSH0 PUSH1 0x40 MLOAD PUSH32 0x1E4FBDF700000000000000000000000000000000000000000000000000000000 DUP2 MSTORE PUSH1 0x4 ADD PUSH2 0xB74 SWAP2 SWAP1 PUSH2 0xF6E JUMP JUMPDEST PUSH1 0x40 MLOAD DUP1 SWAP2 SUB SWAP1 REVERT JUMPDEST PUSH2 0xB86 DUP2 PUSH2 0xC10 JUMP JUMPDEST POP JUMP JUMPDEST PUSH2 0xB91 PUSH2 0xCD1 JUMP JUMPDEST PUSH20 0xFFFFFFFFFFFFFFFFFFFFFFFFFFFFFFFFFFFFFFFF AND PUSH2 0xBAF PUSH2 0x57A JUMP JUMPDEST PUSH20 0xFFFFFFFFFFFFFFFFFFFFFFFFFFFFFFFFFFFFFFFF AND EQ PUSH2 0xC0E JUMPI PUSH2 0xBD2 PUSH2 0xCD1 JUMP JUMPDEST PUSH1 0x40 MLOAD PUSH32 0x118CDAA700000000000000000000000000000000000000000000000000000000 DUP2 MSTORE PUSH1 0x4 ADD PUSH2 0xC05 SWAP2 SWAP1 PUSH2 0xF6E JUMP JUMPDEST PUSH1 0x40 MLOAD DUP1 SWAP2 SUB SWAP1 REVERT JUMPDEST JUMP JUMPDEST PUSH0 DUP1 PUSH0 SWAP1 SLOAD SWAP1 PUSH2 0x100 EXP SWAP1 DIV PUSH20 0xFFFFFFFFFFFFFFFFFFFFFFFFFFFFFFFFFFFFFFFF AND SWAP1 POP DUP2 PUSH0 DUP1 PUSH2 0x100 EXP DUP2 SLOAD DUP2 PUSH20 0xFFFFFFFFFFFFFFFFFFFFFFFFFFFFFFFFFFFFFFFF MUL NOT AND SWAP1 DUP4 PUSH20 0xFFFFFFFFFFFFFFFFFFFFFFFFFFFFFFFFFFFFFFFF AND MUL OR SWAP1 SSTORE POP DUP2 PUSH20 0xFFFFFFFFFFFFFFFFFFFFFFFFFFFFFFFFFFFFFFFF AND DUP2 PUSH20 0xFFFFFFFFFFFFFFFFFFFFFFFFFFFFFFFFFFFFFFFF AND PUSH32 0x8BE0079C531659141344CD1FD0A4F28419497F9722A3DAAFE3B4186F6B6457E0 PUSH1 0x40 MLOAD PUSH1 0x40 MLOAD DUP1 SWAP2 SUB SWAP1 LOG3 POP POP JUMP JUMPDEST PUSH0 CALLER SWAP1 POP SWAP1 JUMP JUMPDEST PUSH0 PUSH1 0x40 MLOAD SWAP1 POP SWAP1 JUMP JUMPDEST PUSH0 DUP1 REVERT JUMPDEST PUSH0 DUP1 REVERT JUMPDEST PUSH0 PUSH20 0xFFFFFFFFFFFFFFFFFFFFFFFFFFFFFFFFFFFFFFFF DUP3 AND SWAP1 POP SWAP2 SWAP1 POP JUMP JUMPDEST PUSH0 PUSH2 0xD12 DUP3 PUSH2 0xCE9 JUMP JUMPDEST SWAP1 POP SWAP2 SWAP1 POP JUMP JUMPDEST PUSH2 0xD22 DUP2 PUSH2 0xD08 JUMP JUMPDEST DUP2 EQ PUSH2 0xD2C JUMPI PUSH0 DUP1 REVERT JUMPDEST POP JUMP JUMPDEST PUSH0 DUP2 CALLDATALOAD SWAP1 POP PUSH2 0xD3D DUP2 PUSH2 0xD19 JUMP JUMPDEST SWAP3 SWAP2 POP POP JUMP JUMPDEST PUSH0 PUSH1 0x20 DUP3 DUP5 SUB SLT ISZERO PUSH2 0xD58 JUMPI PUSH2 0xD57 PUSH2 0xCE1 JUMP JUMPDEST JUMPDEST PUSH0 PUSH2 0xD65 DUP5 DUP3 DUP6 ADD PUSH2 0xD2F JUMP JUMPDEST SWAP2 POP POP SWAP3 SWAP2 POP POP JUMP JUMPDEST PUSH0 DUP2 SWAP1 POP SWAP2 SWAP1 POP JUMP JUMPDEST PUSH2 0xD80 DUP2 PUSH2 0xD6E JUMP JUMPDEST DUP3 MSTORE POP POP JUMP JUMPDEST PUSH0 PUSH1 0x20 DUP3 ADD SWAP1 POP PUSH2 0xD99 PUSH0 DUP4 ADD DUP5 PUSH2 0xD77 JUMP JUMPDEST SWAP3 SWAP2 POP POP JUMP JUMPDEST PUSH0 DUP1 REVERT JUMPDEST PUSH0 DUP1 REVERT JUMPDEST PUSH0 PUSH1 0x1F NOT PUSH1 0x1F DUP4 ADD AND SWAP1 POP SWAP2 SWAP1 POP JUMP JUMPDEST PUSH32 0x4E487B7100000000000000000000000000000000000000000000000000000000 PUSH0 MSTORE PUSH1 0x41 PUSH1 0x4 MSTORE PUSH1 0x24 PUSH0 REVERT JUMPDEST PUSH2 0xDED DUP3 PUSH2 0xDA7 JUMP JUMPDEST DUP2 ADD DUP2 DUP2 LT PUSH8 0xFFFFFFFFFFFFFFFF DUP3 GT OR ISZERO PUSH2 0xE0C JUMPI PUSH2 0xE0B PUSH2 0xDB7 JUMP JUMPDEST JUMPDEST DUP1 PUSH1 0x40 MSTORE POP POP POP JUMP JUMPDEST PUSH0 PUSH2 0xE1E PUSH2 0xCD8 JUMP JUMPDEST SWAP1 POP PUSH2 0xE2A DUP3 DUP3 PUSH2 0xDE4 JUMP JUMPDEST SWAP2 SWAP1 POP JUMP JUMPDEST PUSH0 PUSH8 0xFFFFFFFFFFFFFFFF DUP3 GT ISZERO PUSH2 0xE49 JUMPI PUSH2 0xE48 PUSH2 0xDB7 JUMP JUMPDEST JUMPDEST PUSH2 0xE52 DUP3 PUSH2 0xDA7 JUMP JUMPDEST SWAP1 POP PUSH1 0x20 DUP2 ADD SWAP1 POP SWAP2 SWAP1 POP JUMP JUMPDEST DUP3 DUP2 DUP4 CALLDATACOPY PUSH0 DUP4 DUP4 ADD MSTORE POP POP POP JUMP JUMPDEST PUSH0 PUSH2 0xE7F PUSH2 0xE7A DUP5 PUSH2 0xE2F JUMP JUMPDEST PUSH2 0xE15 JUMP JUMPDEST SWAP1 POP DUP3 DUP2 MSTORE PUSH1 0x20 DUP2 ADD DUP5 DUP5 DUP5 ADD GT ISZERO PUSH2 0xE9B JUMPI PUSH2 0xE9A PUSH2 0xDA3 JUMP JUMPDEST JUMPDEST PUSH2 0xEA6 DUP5 DUP3 DUP6 PUSH2 0xE5F JUMP JUMPDEST POP SWAP4 SWAP3 POP POP POP JUMP JUMPDEST PUSH0 DUP3 PUSH1 0x1F DUP4 ADD SLT PUSH2 0xEC2 JUMPI PUSH2 0xEC1 PUSH2 0xD9F JUMP JUMPDEST JUMPDEST DUP2 CALLDATALOAD PUSH2 0xED2 DUP5 DUP3 PUSH1 0x20 DUP7 ADD PUSH2 0xE6D JUMP JUMPDEST SWAP2 POP POP SWAP3 SWAP2 POP POP JUMP JUMPDEST PUSH2 0xEE4 DUP2 PUSH2 0xD6E JUMP JUMPDEST DUP2 EQ PUSH2 0xEEE JUMPI PUSH0 DUP1 REVERT JUMPDEST POP JUMP JUMPDEST PUSH0 DUP2 CALLDATALOAD SWAP1 POP PUSH2 0xEFF DUP2 PUSH2 0xEDB JUMP JUMPDEST SWAP3 SWAP2 POP POP JUMP JUMPDEST PUSH0 DUP1 PUSH1 0x40 DUP4 DUP6 SUB SLT ISZERO PUSH2 0xF1B JUMPI PUSH2 0xF1A PUSH2 0xCE1 JUMP JUMPDEST JUMPDEST PUSH0 DUP4 ADD CALLDATALOAD PUSH8 0xFFFFFFFFFFFFFFFF DUP2 GT ISZERO PUSH2 0xF38 JUMPI PUSH2 0xF37 PUSH2 0xCE5 JUMP JUMPDEST JUMPDEST PUSH2 0xF44 DUP6 DUP3 DUP7 ADD PUSH2 0xEAE JUMP JUMPDEST SWAP3 POP POP PUSH1 0x20 PUSH2 0xF55 DUP6 DUP3 DUP7 ADD PUSH2 0xEF1 JUMP JUMPDEST SWAP2 POP POP SWAP3 POP SWAP3 SWAP1 POP JUMP JUMPDEST PUSH2 0xF68 DUP2 PUSH2 0xD08 JUMP JUMPDEST DUP3 MSTORE POP POP JUMP JUMPDEST PUSH0 PUSH1 0x20 DUP3 ADD SWAP1 POP PUSH2 0xF81 PUSH0 DUP4 ADD DUP5 PUSH2 0xF5F JUMP JUMPDEST SWAP3 SWAP2 POP POP JUMP JUMPDEST PUSH0 PUSH1 0x20 DUP3 DUP5 SUB SLT ISZERO PUSH2 0xF9C JUMPI PUSH2 0xF9B PUSH2 0xCE1 JUMP JUMPDEST JUMPDEST PUSH0 PUSH2 0xFA9 DUP5 DUP3 DUP6 ADD PUSH2 0xEF1 JUMP JUMPDEST SWAP2 POP POP SWAP3 SWAP2 POP POP JUMP JUMPDEST PUSH0 DUP2 MLOAD SWAP1 POP SWAP2 SWAP1 POP JUMP JUMPDEST PUSH0 DUP3 DUP3 MSTORE PUSH1 0x20 DUP3 ADD SWAP1 POP SWAP3 SWAP2 POP POP JUMP JUMPDEST DUP3 DUP2 DUP4 MCOPY PUSH0 DUP4 DUP4 ADD MSTORE POP POP POP JUMP JUMPDEST PUSH0 PUSH2 0xFE4 DUP3 PUSH2 0xFB2 JUMP JUMPDEST PUSH2 0xFEE DUP2 DUP6 PUSH2 0xFBC JUMP JUMPDEST SWAP4 POP PUSH2 0xFFE DUP2 DUP6 PUSH1 0x20 DUP7 ADD PUSH2 0xFCC JUMP JUMPDEST PUSH2 0x1007 DUP2 PUSH2 0xDA7 JUMP JUMPDEST DUP5 ADD SWAP2 POP POP SWAP3 SWAP2 POP POP JUMP JUMPDEST PUSH0 PUSH2 0x101C DUP3 PUSH2 0xCE9 JUMP JUMPDEST SWAP1 POP SWAP2 SWAP1 POP JUMP JUMPDEST PUSH2 0x102C DUP2 PUSH2 0x1012 JUMP JUMPDEST DUP3 MSTORE POP POP JUMP JUMPDEST PUSH0 DUP2 ISZERO ISZERO SWAP1 POP SWAP2 SWAP1 POP JUMP JUMPDEST PUSH2 0x1046 DUP2 PUSH2 0x1032 JUMP JUMPDEST DUP3 MSTORE POP POP JUMP JUMPDEST PUSH0 PUSH1 0xA0 DUP3 ADD SWAP1 POP PUSH2 0x105F PUSH0 DUP4 ADD DUP9 PUSH2 0xD77 JUMP JUMPDEST DUP2 DUP2 SUB PUSH1 0x20 DUP4 ADD MSTORE PUSH2 0x1071 DUP2 DUP8 PUSH2 0xFDA JUMP JUMPDEST SWAP1 POP PUSH2 0x1080 PUSH1 0x40 DUP4 ADD DUP7 PUSH2 0xD77 JUMP JUMPDEST PUSH2 0x108D PUSH1 0x60 DUP4 ADD DUP6 PUSH2 0x1023 JUMP JUMPDEST PUSH2 0x109A PUSH1 0x80 DUP4 ADD DUP5 PUSH2 0x103D JUMP JUMPDEST SWAP7 SWAP6 POP POP POP POP POP POP JUMP JUMPDEST PUSH0 DUP2 SWAP1 POP SWAP2 SWAP1 POP JUMP JUMPDEST PUSH0 PUSH2 0x10C7 PUSH2 0x10C2 PUSH2 0x10BD DUP5 PUSH2 0xCE9 JUMP JUMPDEST PUSH2 0x10A4 JUMP JUMPDEST PUSH2 0xCE9 JUMP JUMPDEST SWAP1 POP SWAP2 SWAP1 POP JUMP JUMPDEST PUSH0 PUSH2 0x10D8 DUP3 PUSH2 0x10AD JUMP JUMPDEST SWAP1 POP SWAP2 SWAP1 POP JUMP JUMPDEST PUSH0 PUSH2 0x10E9 DUP3 PUSH2 0x10CE JUMP JUMPDEST SWAP1 POP SWAP2 SWAP1 POP JUMP JUMPDEST PUSH2 0x10F9 DUP2 PUSH2 0x10DF JUMP JUMPDEST DUP3 MSTORE POP POP JUMP JUMPDEST PUSH0 PUSH1 0x20 DUP3 ADD SWAP1 POP PUSH2 0x1112 PUSH0 DUP4 ADD DUP5 PUSH2 0x10F0 JUMP JUMPDEST SWAP3 SWAP2 POP POP JUMP JUMPDEST PUSH32 0x4E6F2062616C616E636520746F20776974686472617700000000000000000000 PUSH0 DUP3 ADD MSTORE POP JUMP JUMPDEST PUSH0 PUSH2 0x114C PUSH1 0x16 DUP4 PUSH2 0xFBC JUMP JUMPDEST SWAP2 POP PUSH2 0x1157 DUP3 PUSH2 0x1118 JUMP JUMPDEST PUSH1 0x20 DUP3 ADD SWAP1 POP SWAP2 SWAP1 POP JUMP JUMPDEST PUSH0 PUSH1 0x20 DUP3 ADD SWAP1 POP DUP2 DUP2 SUB PUSH0 DUP4 ADD MSTORE PUSH2 0x1179 DUP2 PUSH2 0x1140 JUMP JUMPDEST SWAP1 POP SWAP2 SWAP1 POP JUMP JUMPDEST PUSH0 PUSH1 0x40 DUP3 ADD SWAP1 POP PUSH2 0x1193 PUSH0 DUP4 ADD DUP6 PUSH2 0xF5F JUMP JUMPDEST PUSH2 0x11A0 PUSH1 0x20 DUP4 ADD DUP5 PUSH2 0xD77 JUMP JUMPDEST SWAP4 SWAP3 POP POP POP JUMP JUMPDEST PUSH2 0x11B0 DUP2 PUSH2 0x1032 JUMP JUMPDEST DUP2 EQ PUSH2 0x11BA JUMPI PUSH0 DUP1 REVERT JUMPDEST POP JUMP JUMPDEST PUSH0 DUP2 MLOAD SWAP1 POP PUSH2 0x11CB DUP2 PUSH2 0x11A7 JUMP JUMPDEST SWAP3 SWAP2 POP POP JUMP JUMPDEST PUSH0 PUSH1 0x20 DUP3 DUP5 SUB SLT ISZERO PUSH2 0x11E6 JUMPI PUSH2 0x11E5 PUSH2 0xCE1 JUMP JUMPDEST JUMPDEST PUSH0 PUSH2 0x11F3 DUP5 DUP3 DUP6 ADD PUSH2 0x11BD JUMP JUMPDEST SWAP2 POP POP SWAP3 SWAP2 POP POP JUMP JUMPDEST PUSH32 0x5769746864726177207472616E73666572206661696C65640000000000000000 PUSH0 DUP3 ADD MSTORE POP JUMP JUMPDEST PUSH0 PUSH2 0x1230 PUSH1 0x18 DUP4 PUSH2 0xFBC JUMP JUMPDEST SWAP2 POP PUSH2 0x123B DUP3 PUSH2 0x11FC JUMP JUMPDEST PUSH1 0x20 DUP3 ADD SWAP1 POP SWAP2 SWAP1 POP JUMP JUMPDEST PUSH0 PUSH1 0x20 DUP3 ADD SWAP1 POP DUP2 DUP2 SUB PUSH0 DUP4 ADD MSTORE PUSH2 0x125D DUP2 PUSH2 0x1224 JUMP JUMPDEST SWAP1 POP SWAP2 SWAP1 POP JUMP JUMPDEST PUSH32 0x4974656D207072696365206D7573742062652067726561746572207468616E20 PUSH0 DUP3 ADD MSTORE PUSH32 0x3000000000000000000000000000000000000000000000000000000000000000 PUSH1 0x20 DUP3 ADD MSTORE POP JUMP JUMPDEST PUSH0 PUSH2 0x12BE PUSH1 0x21 DUP4 PUSH2 0xFBC JUMP JUMPDEST SWAP2 POP PUSH2 0x12C9 DUP3 PUSH2 0x1264 JUMP JUMPDEST PUSH1 0x40 DUP3 ADD SWAP1 POP SWAP2 SWAP1 POP JUMP JUMPDEST PUSH0 PUSH1 0x20 DUP3 ADD SWAP1 POP DUP2 DUP2 SUB PUSH0 DUP4 ADD MSTORE PUSH2 0x12EB DUP2 PUSH2 0x12B2 JUMP JUMPDEST SWAP1 POP SWAP2 SWAP1 POP JUMP JUMPDEST PUSH32 0x4E487B7100000000000000000000000000000000000000000000000000000000 PUSH0 MSTORE PUSH1 0x11 PUSH1 0x4 MSTORE PUSH1 0x24 PUSH0 REVERT JUMPDEST PUSH0 PUSH2 0x1329 DUP3 PUSH2 0xD6E JUMP JUMPDEST SWAP2 POP PUSH32 0xFFFFFFFFFFFFFFFFFFFFFFFFFFFFFFFFFFFFFFFFFFFFFFFFFFFFFFFFFFFFFFFF DUP3 SUB PUSH2 0x135B JUMPI PUSH2 0x135A PUSH2 0x12F2 JUMP JUMPDEST JUMPDEST PUSH1 0x1 DUP3 ADD SWAP1 POP SWAP2 SWAP1 POP JUMP JUMPDEST PUSH32 0x4E487B7100000000000000000000000000000000000000000000000000000000 PUSH0 MSTORE PUSH1 0x22 PUSH1 0x4 MSTORE PUSH1 0x24 PUSH0 REVERT JUMPDEST PUSH0 PUSH1 0x2 DUP3 DIV SWAP1 POP PUSH1 0x1 DUP3 AND DUP1 PUSH2 0x13AA JUMPI PUSH1 0x7F DUP3 AND SWAP2 POP JUMPDEST PUSH1 0x20 DUP3 LT DUP2 SUB PUSH2 0x13BD JUMPI PUSH2 0x13BC PUSH2 0x1366 JUMP JUMPDEST JUMPDEST POP SWAP2 SWAP1 POP JUMP JUMPDEST PUSH0 DUP2 SWAP1 POP DUP2 PUSH0 MSTORE PUSH1 0x20 PUSH0 KECCAK256 SWAP1 POP SWAP2 SWAP1 POP JUMP JUMPDEST PUSH0 PUSH1 0x20 PUSH1 0x1F DUP4 ADD DIV SWAP1 POP SWAP2 SWAP1 POP JUMP JUMPDEST PUSH0 DUP3 DUP3 SHL SWAP1 POP SWAP3 SWAP2 POP POP JUMP JUMPDEST PUSH0 PUSH1 0x8 DUP4 MUL PUSH2 0x141F PUSH32 0xFFFFFFFFFFFFFFFFFFFFFFFFFFFFFFFFFFFFFFFFFFFFFFFFFFFFFFFFFFFFFFFF DUP3 PUSH2 0x13E4 JUMP JUMPDEST PUSH2 0x1429 DUP7 DUP4 PUSH2 0x13E4 JUMP JUMPDEST SWAP6 POP DUP1 NOT DUP5 AND SWAP4 POP DUP1 DUP7 AND DUP5 OR SWAP3 POP POP POP SWAP4 SWAP3 POP POP POP JUMP JUMPDEST PUSH0 PUSH2 0x145B PUSH2 0x1456 PUSH2 0x1451 DUP5 PUSH2 0xD6E JUMP JUMPDEST PUSH2 0x10A4 JUMP JUMPDEST PUSH2 0xD6E JUMP JUMPDEST SWAP1 POP SWAP2 SWAP1 POP JUMP JUMPDEST PUSH0 DUP2 SWAP1 POP SWAP2 SWAP1 POP JUMP JUMPDEST PUSH2 0x1474 DUP4 PUSH2 0x1441 JUMP JUMPDEST PUSH2 0x1488 PUSH2 0x1480 DUP3 PUSH2 0x1462 JUMP JUMPDEST DUP5 DUP5 SLOAD PUSH2 0x13F0 JUMP JUMPDEST DUP3 SSTORE POP POP POP POP JUMP JUMPDEST PUSH0 SWAP1 JUMP JUMPDEST PUSH2 0x149C PUSH2 0x1490 JUMP JUMPDEST PUSH2 0x14A7 DUP2 DUP5 DUP5 PUSH2 0x146B JUMP JUMPDEST POP POP POP JUMP JUMPDEST JUMPDEST DUP2 DUP2 LT ISZERO PUSH2 0x14CA JUMPI PUSH2 0x14BF PUSH0 DUP3 PUSH2 0x1494 JUMP JUMPDEST PUSH1 0x1 DUP2 ADD SWAP1 POP PUSH2 0x14AD JUMP JUMPDEST POP POP JUMP JUMPDEST PUSH1 0x1F DUP3 GT ISZERO PUSH2 0x150F JUMPI PUSH2 0x14E0 DUP2 PUSH2 0x13C3 JUMP JUMPDEST PUSH2 0x14E9 DUP5 PUSH2 0x13D5 JUMP JUMPDEST DUP2 ADD PUSH1 0x20 DUP6 LT ISZERO PUSH2 0x14F8 JUMPI DUP2 SWAP1 POP JUMPDEST PUSH2 0x150C PUSH2 0x1504 DUP6 PUSH2 0x13D5 JUMP JUMPDEST DUP4 ADD DUP3 PUSH2 0x14AC JUMP JUMPDEST POP POP JUMPDEST POP POP POP JUMP JUMPDEST PUSH0 DUP3 DUP3 SHR SWAP1 POP SWAP3 SWAP2 POP POP JUMP JUMPDEST PUSH0 PUSH2 0x152F PUSH0 NOT DUP5 PUSH1 0x8 MUL PUSH2 0x1514 JUMP JUMPDEST NOT DUP1 DUP4 AND SWAP2 POP POP SWAP3 SWAP2 POP POP JUMP JUMPDEST PUSH0 PUSH2 0x1547 DUP4 DUP4 PUSH2 0x1520 JUMP JUMPDEST SWAP2 POP DUP3 PUSH1 0x2 MUL DUP3 OR SWAP1 POP SWAP3 SWAP2 POP POP JUMP JUMPDEST PUSH2 0x1560 DUP3 PUSH2 0xFB2 JUMP JUMPDEST PUSH8 0xFFFFFFFFFFFFFFFF DUP2 GT ISZERO PUSH2 0x1579 JUMPI PUSH2 0x1578 PUSH2 0xDB7 JUMP JUMPDEST JUMPDEST PUSH2 0x1583 DUP3 SLOAD PUSH2 0x1393 JUMP JUMPDEST PUSH2 0x158E DUP3 DUP3 DUP6 PUSH2 0x14CE JUMP JUMPDEST PUSH0 PUSH1 0x20 SWAP1 POP PUSH1 0x1F DUP4 GT PUSH1 0x1 DUP2 EQ PUSH2 0x15BF JUMPI PUSH0 DUP5 ISZERO PUSH2 0x15AD JUMPI DUP3 DUP8 ADD MLOAD SWAP1 POP JUMPDEST PUSH2 0x15B7 DUP6 DUP3 PUSH2 0x153C JUMP JUMPDEST DUP7 SSTORE POP PUSH2 0x161E JUMP JUMPDEST PUSH1 0x1F NOT DUP5 AND PUSH2 0x15CD DUP7 PUSH2 0x13C3 JUMP JUMPDEST PUSH0 JUMPDEST DUP3 DUP2 LT ISZERO PUSH2 0x15F4 JUMPI DUP5 DUP10 ADD MLOAD DUP3 SSTORE PUSH1 0x1 DUP3 ADD SWAP2 POP PUSH1 0x20 DUP6 ADD SWAP5 POP PUSH1 0x20 DUP2 ADD SWAP1 POP PUSH2 0x15CF JUMP JUMPDEST DUP7 DUP4 LT ISZERO PUSH2 0x1611 JUMPI DUP5 DUP10 ADD MLOAD PUSH2 0x160D PUSH1 0x1F DUP10 AND DUP3 PUSH2 0x1520 JUMP JUMPDEST DUP4 SSTORE POP JUMPDEST PUSH1 0x1 PUSH1 0x2 DUP9 MUL ADD DUP9 SSTORE POP POP POP JUMPDEST POP POP POP POP POP POP JUMP JUMPDEST PUSH0 PUSH1 0x80 DUP3 ADD SWAP1 POP PUSH2 0x1639 PUSH0 DUP4 ADD DUP8 PUSH2 0xD77 JUMP JUMPDEST DUP2 DUP2 SUB PUSH1 0x20 DUP4 ADD MSTORE PUSH2 0x164B DUP2 DUP7 PUSH2 0xFDA JUMP JUMPDEST SWAP1 POP PUSH2 0x165A PUSH1 0x40 DUP4 ADD DUP6 PUSH2 0xD77 JUMP JUMPDEST PUSH2 0x1667 PUSH1 0x60 DUP4 ADD DUP5 PUSH2 0xF5F JUMP JUMPDEST SWAP6 SWAP5 POP POP POP POP POP JUMP JUMPDEST PUSH32 0x4974656D206E6F7420666F756E64000000000000000000000000000000000000 PUSH0 DUP3 ADD MSTORE POP JUMP JUMPDEST PUSH0 PUSH2 0x16A4 PUSH1 0xE DUP4 PUSH2 0xFBC JUMP JUMPDEST SWAP2 POP PUSH2 0x16AF DUP3 PUSH2 0x1670 JUMP JUMPDEST PUSH1 0x20 DUP3 ADD SWAP1 POP SWAP2 SWAP1 POP JUMP JUMPDEST PUSH0 PUSH1 0x20 DUP3 ADD SWAP1 POP DUP2 DUP2 SUB PUSH0 DUP4 ADD MSTORE PUSH2 0x16D1 DUP2 PUSH2 0x1698 JUMP JUMPDEST SWAP1 POP SWAP2 SWAP1 POP JUMP JUMPDEST PUSH32 0x4974656D20616C726561647920736F6C64000000000000000000000000000000 PUSH0 DUP3 ADD MSTORE POP JUMP JUMPDEST PUSH0 PUSH2 0x170C PUSH1 0x11 DUP4 PUSH2 0xFBC JUMP JUMPDEST SWAP2 POP PUSH2 0x1717 DUP3 PUSH2 0x16D8 JUMP JUMPDEST PUSH1 0x20 DUP3 ADD SWAP1 POP SWAP2 SWAP1 POP JUMP JUMPDEST PUSH0 PUSH1 0x20 DUP3 ADD SWAP1 POP DUP2 DUP2 SUB PUSH0 DUP4 ADD MSTORE PUSH2 0x1739 DUP2 PUSH2 0x1700 JUMP JUMPDEST SWAP1 POP SWAP2 SWAP1 POP JUMP JUMPDEST PUSH32 0x4974656D206F776E65722063616E6E6F7420627579207468656972206F776E20 PUSH0 DUP3 ADD MSTORE PUSH32 0x6974656D00000000000000000000000000000000000000000000000000000000 PUSH1 0x20 DUP3 ADD MSTORE POP JUMP JUMPDEST PUSH0 PUSH2 0x179A PUSH1 0x24 DUP4 PUSH2 0xFBC JUMP JUMPDEST SWAP2 POP PUSH2 0x17A5 DUP3 PUSH2 0x1740 JUMP JUMPDEST PUSH1 0x40 DUP3 ADD SWAP1 POP SWAP2 SWAP1 POP JUMP JUMPDEST PUSH0 PUSH1 0x20 DUP3 ADD SWAP1 POP DUP2 DUP2 SUB PUSH0 DUP4 ADD MSTORE PUSH2 0x17C7 DUP2 PUSH2 0x178E JUMP JUMPDEST SWAP1 POP SWAP2 SWAP1 POP JUMP JUMPDEST PUSH0 PUSH1 0x60 DUP3 ADD SWAP1 POP PUSH2 0x17E1 PUSH0 DUP4 ADD DUP7 PUSH2 0xF5F JUMP JUMPDEST PUSH2 0x17EE PUSH1 0x20 DUP4 ADD DUP6 PUSH2 0xF5F JUMP JUMPDEST PUSH2 0x17FB PUSH1 0x40 DUP4 ADD DUP5 PUSH2 0xD77 JUMP JUMPDEST SWAP5 SWAP4 POP POP POP POP JUMP JUMPDEST PUSH32 0x546F6B656E207472616E73666572206661696C65640000000000000000000000 PUSH0 DUP3 ADD MSTORE POP JUMP JUMPDEST PUSH0 PUSH2 0x1837 PUSH1 0x15 DUP4 PUSH2 0xFBC JUMP JUMPDEST SWAP2 POP PUSH2 0x1842 DUP3 PUSH2 0x1803 JUMP JUMPDEST PUSH1 0x20 DUP3 ADD SWAP1 POP SWAP2 SWAP1 POP JUMP JUMPDEST PUSH0 PUSH1 0x20 DUP3 ADD SWAP1 POP DUP2 DUP2 SUB PUSH0 DUP4 ADD MSTORE PUSH2 0x1864 DUP2 PUSH2 0x182B JUMP JUMPDEST SWAP1 POP SWAP2 SWAP1 POP JUMP JUMPDEST PUSH0 PUSH2 0x1875 DUP3 PUSH2 0xD6E JUMP JUMPDEST SWAP2 POP PUSH2 0x1880 DUP4 PUSH2 0xD6E JUMP JUMPDEST SWAP3 POP DUP3 DUP3 ADD SWAP1 POP DUP1 DUP3 GT ISZERO PUSH2 0x1898 JUMPI PUSH2 0x1897 PUSH2 0x12F2 JUMP JUMPDEST JUMPDEST SWAP3 SWAP2 POP POP JUMP JUMPDEST PUSH0 DUP2 SLOAD SWAP1 POP PUSH2 0x18AC DUP2 PUSH2 0x1393 JUMP JUMPDEST SWAP1 POP SWAP2 SWAP1 POP JUMP JUMPDEST DUP2 DUP2 SUB PUSH2 0x18C1 JUMPI POP POP PUSH2 0x1996 JUMP JUMPDEST PUSH2 0x18CA DUP3 PUSH2 0x189E JUMP JUMPDEST PUSH8 0xFFFFFFFFFFFFFFFF DUP2 GT ISZERO PUSH2 0x18E3 JUMPI PUSH2 0x18E2 PUSH2 0xDB7 JUMP JUMPDEST JUMPDEST PUSH2 0x18ED DUP3 SLOAD PUSH2 0x1393 JUMP JUMPDEST PUSH2 0x18F8 DUP3 DUP3 DUP6 PUSH2 0x14CE JUMP JUMPDEST PUSH0 PUSH1 0x1F DUP4 GT PUSH1 0x1 DUP2 EQ PUSH2 0x1925 JUMPI PUSH0 DUP5 ISZERO PUSH2 0x1913 JUMPI DUP3 DUP8 ADD SLOAD SWAP1 POP JUMPDEST PUSH2 0x191D DUP6 DUP3 PUSH2 0x153C JUMP JUMPDEST DUP7 SSTORE POP PUSH2 0x198F JUMP JUMPDEST PUSH1 0x1F NOT DUP5 AND PUSH2 0x1933 DUP8 PUSH2 0x13C3 JUMP JUMPDEST SWAP7 POP PUSH2 0x193E DUP7 PUSH2 0x13C3 JUMP JUMPDEST PUSH0 JUMPDEST DUP3 DUP2 LT ISZERO PUSH2 0x1965 JUMPI DUP5 DUP10 ADD SLOAD DUP3 SSTORE PUSH1 0x1 DUP3 ADD SWAP2 POP PUSH1 0x1 DUP6 ADD SWAP5 POP PUSH1 0x20 DUP2 ADD SWAP1 POP PUSH2 0x1940 JUMP JUMPDEST DUP7 DUP4 LT ISZERO PUSH2 0x1982 JUMPI DUP5 DUP10 ADD SLOAD PUSH2 0x197E PUSH1 0x1F DUP10 AND DUP3 PUSH2 0x1520 JUMP JUMPDEST DUP4 SSTORE POP JUMPDEST PUSH1 0x1 PUSH1 0x2 DUP9 MUL ADD DUP9 SSTORE POP POP POP JUMPDEST POP POP POP POP POP POP JUMPDEST JUMP JUMPDEST PUSH0 DUP2 SLOAD PUSH2 0x19A4 DUP2 PUSH2 0x1393 JUMP JUMPDEST PUSH2 0x19AE DUP2 DUP7 PUSH2 0xFBC JUMP JUMPDEST SWAP5 POP PUSH1 0x1 DUP3 AND PUSH0 DUP2 EQ PUSH2 0x19C8 JUMPI PUSH1 0x1 DUP2 EQ PUSH2 0x19DE JUMPI PUSH2 0x1A10 JUMP JUMPDEST PUSH1 0xFF NOT DUP4 AND DUP7 MSTORE DUP2 ISZERO ISZERO PUSH1 0x20 MUL DUP7 ADD SWAP4 POP PUSH2 0x1A10 JUMP JUMPDEST PUSH2 0x19E7 DUP6 PUSH2 0x13C3 JUMP JUMPDEST PUSH0 JUMPDEST DUP4 DUP2 LT ISZERO PUSH2 0x1A08 JUMPI DUP2 SLOAD DUP2 DUP10 ADD MSTORE PUSH1 0x1 DUP3 ADD SWAP2 POP PUSH1 0x20 DUP2 ADD SWAP1 POP PUSH2 0x19E9 JUMP JUMPDEST DUP1 DUP9 ADD SWAP6 POP POP POP JUMPDEST POP POP POP SWAP3 SWAP2 POP POP JUMP JUMPDEST PUSH0 PUSH1 0x80 DUP3 ADD SWAP1 POP PUSH2 0x1A2C PUSH0 DUP4 ADD DUP8 PUSH2 0xD77 JUMP JUMPDEST DUP2 DUP2 SUB PUSH1 0x20 DUP4 ADD MSTORE PUSH2 0x1A3E DUP2 DUP7 PUSH2 0x1998 JUMP JUMPDEST SWAP1 POP PUSH2 0x1A4D PUSH1 0x40 DUP4 ADD DUP6 PUSH2 0xD77 JUMP JUMPDEST PUSH2 0x1A5A PUSH1 0x60 DUP4 ADD DUP5 PUSH2 0xF5F JUMP JUMPDEST SWAP6 SWAP5 POP POP POP POP POP JUMP INVALID LOG2 PUSH5 0x6970667358 0x22 SLT KECCAK256 CALLDATACOPY DUP16 0xB7 DELEGATECALL POP SWAP6 DUP1 0xAF 0xA5 LT 0xB2 DUP12 0xC1 SELFDESTRUCT EXTCODESIZE 0xE8 PUSH1 0xFE 0xD3 0xE1 0xD8 CALLER 0xE PUSH25 0xA916E2CD0835E01464736F6C634300081A0033000000000000 "
				},
				"gasEstimates": {
					"creation": {
						"codeDepositCost": "1361800",
						"executionCost": "infinite",
						"totalCost": "infinite"
					},
					"external": {
						"addItem(string,uint256)": "infinite",
						"balances(address)": "2803",
						"buyItem(uint256)": "infinite",
						"checkBalance()": "2585",
						"itemCount()": "2492",
						"items(uint256)": "infinite",
						"laptopToken()": "infinite",
						"owner()": "2515",
						"renounceOwnership()": "infinite",
						"transferOwnership(address)": "infinite",
						"withdrawBalance()": "infinite"
					}
				},
				"methodIdentifiers": {
					"addItem(string,uint256)": "62d6bbdf",
					"balances(address)": "27e235e3",
					"buyItem(uint256)": "e7fb74c7",
					"checkBalance()": "c71daccb",
					"itemCount()": "6bfb0d01",
					"items(uint256)": "bfb231d2",
					"laptopToken()": "c0fa4155",
					"owner()": "8da5cb5b",
					"renounceOwnership()": "715018a6",
					"transferOwnership(address)": "f2fde38b",
					"withdrawBalance()": "5fd8c710"
				}
			},
			"storageLayout": {
				"storage": [
					{
						"astId": 8,
						"contract": "contracts/LaptopMarketplaceERC20Test2.sol:LaptopMarketplace",
						"label": "_owner",
						"offset": 0,
						"slot": "0",
						"type": "t_address"
					},
					{
						"astId": 275,
						"contract": "contracts/LaptopMarketplaceERC20Test2.sol:LaptopMarketplace",
						"label": "itemCount",
						"offset": 0,
						"slot": "1",
						"type": "t_uint256"
					},
					{
						"astId": 280,
						"contract": "contracts/LaptopMarketplaceERC20Test2.sol:LaptopMarketplace",
						"label": "items",
						"offset": 0,
						"slot": "2",
						"type": "t_mapping(t_uint256,t_struct(Item)272_storage)"
					},
					{
						"astId": 284,
						"contract": "contracts/LaptopMarketplaceERC20Test2.sol:LaptopMarketplace",
						"label": "balances",
						"offset": 0,
						"slot": "3",
						"type": "t_mapping(t_address,t_uint256)"
					},
					{
						"astId": 287,
						"contract": "contracts/LaptopMarketplaceERC20Test2.sol:LaptopMarketplace",
						"label": "laptopToken",
						"offset": 0,
						"slot": "4",
						"type": "t_contract(IERC20)225"
					}
				],
				"types": {
					"t_address": {
						"encoding": "inplace",
						"label": "address",
						"numberOfBytes": "20"
					},
					"t_address_payable": {
						"encoding": "inplace",
						"label": "address payable",
						"numberOfBytes": "20"
					},
					"t_bool": {
						"encoding": "inplace",
						"label": "bool",
						"numberOfBytes": "1"
					},
					"t_contract(IERC20)225": {
						"encoding": "inplace",
						"label": "contract IERC20",
						"numberOfBytes": "20"
					},
					"t_mapping(t_address,t_uint256)": {
						"encoding": "mapping",
						"key": "t_address",
						"label": "mapping(address => uint256)",
						"numberOfBytes": "32",
						"value": "t_uint256"
					},
					"t_mapping(t_uint256,t_struct(Item)272_storage)": {
						"encoding": "mapping",
						"key": "t_uint256",
						"label": "mapping(uint256 => struct LaptopMarketplace.Item)",
						"numberOfBytes": "32",
						"value": "t_struct(Item)272_storage"
					},
					"t_string_storage": {
						"encoding": "bytes",
						"label": "string",
						"numberOfBytes": "32"
					},
					"t_struct(Item)272_storage": {
						"encoding": "inplace",
						"label": "struct LaptopMarketplace.Item",
						"members": [
							{
								"astId": 263,
								"contract": "contracts/LaptopMarketplaceERC20Test2.sol:LaptopMarketplace",
								"label": "id",
								"offset": 0,
								"slot": "0",
								"type": "t_uint256"
							},
							{
								"astId": 265,
								"contract": "contracts/LaptopMarketplaceERC20Test2.sol:LaptopMarketplace",
								"label": "itemName",
								"offset": 0,
								"slot": "1",
								"type": "t_string_storage"
							},
							{
								"astId": 267,
								"contract": "contracts/LaptopMarketplaceERC20Test2.sol:LaptopMarketplace",
								"label": "itemPrice",
								"offset": 0,
								"slot": "2",
								"type": "t_uint256"
							},
							{
								"astId": 269,
								"contract": "contracts/LaptopMarketplaceERC20Test2.sol:LaptopMarketplace",
								"label": "itemOwner",
								"offset": 0,
								"slot": "3",
								"type": "t_address_payable"
							},
							{
								"astId": 271,
								"contract": "contracts/LaptopMarketplaceERC20Test2.sol:LaptopMarketplace",
								"label": "isSold",
								"offset": 20,
								"slot": "3",
								"type": "t_bool"
							}
						],
						"numberOfBytes": "128"
					},
					"t_uint256": {
						"encoding": "inplace",
						"label": "uint256",
						"numberOfBytes": "32"
					}
				}
			},
			"userdoc": {
				"kind": "user",
				"methods": {},
				"version": 1
			}
		}
	}
}